{
  "contractName": "DAOToken",
  "abi": [
    {
      "inputs": [],
      "stateMutability": "nonpayable",
      "type": "constructor"
    },
    {
      "anonymous": false,
      "inputs": [
        {
          "indexed": true,
          "internalType": "address",
          "name": "previousOwner",
          "type": "address"
        },
        {
          "indexed": true,
          "internalType": "address",
          "name": "newOwner",
          "type": "address"
        }
      ],
      "name": "OwnershipTransferred",
      "type": "event"
    },
    {
      "anonymous": false,
      "inputs": [
        {
          "indexed": true,
          "internalType": "address",
          "name": "from",
          "type": "address"
        },
        {
          "indexed": true,
          "internalType": "address",
          "name": "to",
          "type": "address"
        },
        {
          "indexed": false,
          "internalType": "uint256",
          "name": "value",
          "type": "uint256"
        }
      ],
      "name": "Transfer",
      "type": "event"
    },
    {
      "inputs": [
        {
          "internalType": "address",
          "name": "",
          "type": "address"
        }
      ],
      "name": "balances",
      "outputs": [
        {
          "internalType": "uint256",
          "name": "",
          "type": "uint256"
        }
      ],
      "stateMutability": "view",
      "type": "function",
      "constant": true
    },
    {
      "inputs": [],
      "name": "owner",
      "outputs": [
        {
          "internalType": "address",
          "name": "",
          "type": "address"
        }
      ],
      "stateMutability": "view",
      "type": "function",
      "constant": true
    },
    {
      "inputs": [],
      "name": "renounceOwnership",
      "outputs": [],
      "stateMutability": "nonpayable",
      "type": "function"
    },
    {
      "inputs": [
        {
          "internalType": "address",
          "name": "newOwner",
          "type": "address"
        }
      ],
      "name": "transferOwnership",
      "outputs": [],
      "stateMutability": "nonpayable",
      "type": "function"
    },
    {
      "inputs": [],
      "name": "standard",
      "outputs": [
        {
          "internalType": "string",
          "name": "",
          "type": "string"
        }
      ],
      "stateMutability": "pure",
      "type": "function",
      "constant": true
    },
    {
      "inputs": [],
      "name": "name",
      "outputs": [
        {
          "internalType": "string",
          "name": "",
          "type": "string"
        }
      ],
      "stateMutability": "view",
      "type": "function",
      "constant": true
    },
    {
      "inputs": [],
      "name": "symbol",
      "outputs": [
        {
          "internalType": "string",
          "name": "",
          "type": "string"
        }
      ],
      "stateMutability": "view",
      "type": "function",
      "constant": true
    },
    {
      "inputs": [],
      "name": "decimals",
      "outputs": [
        {
          "internalType": "uint8",
          "name": "",
          "type": "uint8"
        }
      ],
      "stateMutability": "view",
      "type": "function",
      "constant": true
    },
    {
      "inputs": [],
      "name": "totalSupply",
      "outputs": [
        {
          "internalType": "uint256",
          "name": "",
          "type": "uint256"
        }
      ],
      "stateMutability": "view",
      "type": "function",
      "constant": true
    },
    {
      "inputs": [
        {
          "internalType": "address",
          "name": "owner",
          "type": "address"
        }
      ],
      "name": "balanceOf",
      "outputs": [
        {
          "internalType": "uint256",
          "name": "",
          "type": "uint256"
        }
      ],
      "stateMutability": "view",
      "type": "function",
      "constant": true
    },
    {
      "inputs": [
        {
          "internalType": "address",
          "name": "_to",
          "type": "address"
        },
        {
          "internalType": "uint256",
          "name": "_value",
          "type": "uint256"
        }
      ],
      "name": "transfer",
      "outputs": [
        {
          "internalType": "bool",
          "name": "success",
          "type": "bool"
        }
      ],
      "stateMutability": "nonpayable",
      "type": "function"
    },
    {
      "inputs": [
        {
          "internalType": "address",
          "name": "_to",
          "type": "address"
        },
        {
          "internalType": "uint256",
          "name": "_value",
          "type": "uint256"
        },
        {
          "internalType": "bytes",
          "name": "_data",
          "type": "bytes"
        }
      ],
      "name": "transfer",
      "outputs": [
        {
          "internalType": "bool",
          "name": "success",
          "type": "bool"
        }
      ],
      "stateMutability": "nonpayable",
      "type": "function"
    },
    {
      "inputs": [
        {
          "internalType": "address",
          "name": "account",
          "type": "address"
        },
        {
          "internalType": "uint256",
          "name": "value",
          "type": "uint256"
        }
      ],
      "name": "mint",
      "outputs": [
        {
          "internalType": "bool",
          "name": "success",
          "type": "bool"
        }
      ],
      "stateMutability": "nonpayable",
      "type": "function"
    },
    {
      "inputs": [
        {
          "internalType": "uint256",
          "name": "value",
          "type": "uint256"
        }
      ],
      "name": "burn",
      "outputs": [],
      "stateMutability": "nonpayable",
      "type": "function"
    }
  ],
  "bytecode": "0x60806040523480156200001157600080fd5b506200003262000026620000f860201b60201c565b6200010060201b60201c565b6040518060400160405280600881526020017f44414f546f6b656e000000000000000000000000000000000000000000000000815250600190805190602001906200007f929190620001c4565b506040518060400160405280600281526020017f445400000000000000000000000000000000000000000000000000000000000081525060029080519060200190620000cd929190620001c4565b506000600360006101000a81548160ff021916908360ff1602179055506000600481905550620002d8565b600033905090565b60008060009054906101000a900473ffffffffffffffffffffffffffffffffffffffff169050816000806101000a81548173ffffffffffffffffffffffffffffffffffffffff021916908373ffffffffffffffffffffffffffffffffffffffff1602179055508173ffffffffffffffffffffffffffffffffffffffff168173ffffffffffffffffffffffffffffffffffffffff167f8be0079c531659141344cd1fd0a4f28419497f9722a3daafe3b4186f6b6457e060405160405180910390a35050565b828054620001d290620002a3565b90600052602060002090601f016020900481019282620001f6576000855562000242565b82601f106200021157805160ff191683800117855562000242565b8280016001018555821562000242579182015b828111156200024157825182559160200191906001019062000224565b5b50905062000251919062000255565b5090565b5b808211156200027057600081600090555060010162000256565b5090565b7f4e487b7100000000000000000000000000000000000000000000000000000000600052602260045260246000fd5b60006002820490506001821680620002bc57607f821691505b602082108103620002d257620002d162000274565b5b50919050565b6114af80620002e86000396000f3fe608060405234801561001057600080fd5b50600436106100ea5760003560e01c806370a082311161008c57806395d89b411161006657806395d89b411461023b578063a9059cbb14610259578063be45fd6214610289578063f2fde38b146102b9576100ea565b806370a08231146101e3578063715018a6146102135780638da5cb5b1461021d576100ea565b8063313ce567116100c8578063313ce5671461015b57806340c10f191461017957806342966c68146101a95780635a3b7e42146101c5576100ea565b806306fdde03146100ef57806318160ddd1461010d57806327e235e31461012b575b600080fd5b6100f76102d5565b6040516101049190610e5f565b60405180910390f35b610115610367565b6040516101229190610e9a565b60405180910390f35b61014560048036038101906101409190610f1d565b610371565b6040516101529190610e9a565b60405180910390f35b610163610389565b6040516101709190610f66565b60405180910390f35b610193600480360381019061018e9190610fad565b6103a0565b6040516101a09190611008565b60405180910390f35b6101c360048036038101906101be9190611023565b6104ec565b005b6101cd6105f7565b6040516101da9190610e5f565b60405180910390f35b6101fd60048036038101906101f89190610f1d565b610634565b60405161020a9190610e9a565b60405180910390f35b61021b61067d565b005b610225610705565b604051610232919061105f565b60405180910390f35b61024361072e565b6040516102509190610e5f565b60405180910390f35b610273600480360381019061026e9190610fad565b6107c0565b6040516102809190611008565b60405180910390f35b6102a3600480360381019061029e91906110df565b6109e1565b6040516102b09190611008565b60405180910390f35b6102d360048036038101906102ce9190610f1d565b610bf0565b005b6060600180546102e490611182565b80601f016020809104026020016040519081016040528092919081815260200182805461031090611182565b801561035d5780601f106103325761010080835404028352916020019161035d565b820191906000526020600020905b81548152906001019060200180831161034057829003601f168201915b5050505050905090565b6000600454905090565b60056020528060005260406000206000915090505481565b6000600360009054906101000a900460ff16905090565b60008073ffffffffffffffffffffffffffffffffffffffff168373ffffffffffffffffffffffffffffffffffffffff16036103da57600080fd5b816004546103e891906111e2565b60048190555081600560008573ffffffffffffffffffffffffffffffffffffffff1673ffffffffffffffffffffffffffffffffffffffff1681526020019081526020016000205461043991906111e2565b600560008573ffffffffffffffffffffffffffffffffffffffff1673ffffffffffffffffffffffffffffffffffffffff168152602001908152602001600020819055508273ffffffffffffffffffffffffffffffffffffffff16600073ffffffffffffffffffffffffffffffffffffffff167fddf252ad1be2c89b69c2b068fc378daa952ba7f163c4a11628f55a4df523b3ef846040516104da9190610e9a565b60405180910390a36001905092915050565b806004546104fa9190611238565b60048190555080600560003373ffffffffffffffffffffffffffffffffffffffff1673ffffffffffffffffffffffffffffffffffffffff1681526020019081526020016000205461054b9190611238565b600560003373ffffffffffffffffffffffffffffffffffffffff1673ffffffffffffffffffffffffffffffffffffffff16815260200190815260200160002081905550600073ffffffffffffffffffffffffffffffffffffffff163373ffffffffffffffffffffffffffffffffffffffff167fddf252ad1be2c89b69c2b068fc378daa952ba7f163c4a11628f55a4df523b3ef836040516105ec9190610e9a565b60405180910390a350565b60606040518060400160405280600681526020017f6572633232330000000000000000000000000000000000000000000000000000815250905090565b6000600560008373ffffffffffffffffffffffffffffffffffffffff1673ffffffffffffffffffffffffffffffffffffffff168152602001908152602001600020549050919050565b610685610ce7565b73ffffffffffffffffffffffffffffffffffffffff166106a3610705565b73ffffffffffffffffffffffffffffffffffffffff16146106f9576040517f08c379a00000000000000000000000000000000000000000000000000000000081526004016106f0906112b8565b60405180910390fd5b6107036000610cef565b565b60008060009054906101000a900473ffffffffffffffffffffffffffffffffffffffff16905090565b60606002805461073d90611182565b80601f016020809104026020016040519081016040528092919081815260200182805461076990611182565b80156107b65780601f1061078b576101008083540402835291602001916107b6565b820191906000526020600020905b81548152906001019060200180831161079957829003601f168201915b5050505050905090565b600081600560003373ffffffffffffffffffffffffffffffffffffffff1673ffffffffffffffffffffffffffffffffffffffff1681526020019081526020016000205461080d9190611238565b600560003373ffffffffffffffffffffffffffffffffffffffff1673ffffffffffffffffffffffffffffffffffffffff1681526020019081526020016000208190555081600560008573ffffffffffffffffffffffffffffffffffffffff1673ffffffffffffffffffffffffffffffffffffffff1681526020019081526020016000205461089b91906111e2565b600560008573ffffffffffffffffffffffffffffffffffffffff1673ffffffffffffffffffffffffffffffffffffffff168152602001908152602001600020819055506108e783610db3565b15610972578273ffffffffffffffffffffffffffffffffffffffff1663c0ee0b8a338460405180604001604052806004815260200160008152506040518463ffffffff1660e01b815260040161093f9392919061132d565b600060405180830381600087803b15801561095957600080fd5b505af115801561096d573d6000803e3d6000fd5b505050505b8273ffffffffffffffffffffffffffffffffffffffff163373ffffffffffffffffffffffffffffffffffffffff167fddf252ad1be2c89b69c2b068fc378daa952ba7f163c4a11628f55a4df523b3ef846040516109cf9190610e9a565b60405180910390a36001905092915050565b600083600560003373ffffffffffffffffffffffffffffffffffffffff1673ffffffffffffffffffffffffffffffffffffffff16815260200190815260200160002054610a2e9190611238565b600560003373ffffffffffffffffffffffffffffffffffffffff1673ffffffffffffffffffffffffffffffffffffffff1681526020019081526020016000208190555083600560008773ffffffffffffffffffffffffffffffffffffffff1673ffffffffffffffffffffffffffffffffffffffff16815260200190815260200160002054610abc91906111e2565b600560008773ffffffffffffffffffffffffffffffffffffffff1673ffffffffffffffffffffffffffffffffffffffff16815260200190815260200160002081905550610b0885610db3565b15610b7f578473ffffffffffffffffffffffffffffffffffffffff1663c0ee0b8a338686866040518563ffffffff1660e01b8152600401610b4c94939291906113a7565b600060405180830381600087803b158015610b6657600080fd5b505af1158015610b7a573d6000803e3d6000fd5b505050505b8473ffffffffffffffffffffffffffffffffffffffff163373ffffffffffffffffffffffffffffffffffffffff167fddf252ad1be2c89b69c2b068fc378daa952ba7f163c4a11628f55a4df523b3ef86604051610bdc9190610e9a565b60405180910390a360019050949350505050565b610bf8610ce7565b73ffffffffffffffffffffffffffffffffffffffff16610c16610705565b73ffffffffffffffffffffffffffffffffffffffff1614610c6c576040517f08c379a0000000000000000000000000000000000000000000000000000000008152600401610c63906112b8565b60405180910390fd5b600073ffffffffffffffffffffffffffffffffffffffff168173ffffffffffffffffffffffffffffffffffffffff1603610cdb576040517f08c379a0000000000000000000000000000000000000000000000000000000008152600401610cd290611459565b60405180910390fd5b610ce481610cef565b50565b600033905090565b60008060009054906101000a900473ffffffffffffffffffffffffffffffffffffffff169050816000806101000a81548173ffffffffffffffffffffffffffffffffffffffff021916908373ffffffffffffffffffffffffffffffffffffffff1602179055508173ffffffffffffffffffffffffffffffffffffffff168173ffffffffffffffffffffffffffffffffffffffff167f8be0079c531659141344cd1fd0a4f28419497f9722a3daafe3b4186f6b6457e060405160405180910390a35050565b600080823b905060008111915050919050565b600081519050919050565b600082825260208201905092915050565b60005b83811015610e00578082015181840152602081019050610de5565b83811115610e0f576000848401525b50505050565b6000601f19601f8301169050919050565b6000610e3182610dc6565b610e3b8185610dd1565b9350610e4b818560208601610de2565b610e5481610e15565b840191505092915050565b60006020820190508181036000830152610e798184610e26565b905092915050565b6000819050919050565b610e9481610e81565b82525050565b6000602082019050610eaf6000830184610e8b565b92915050565b600080fd5b600080fd5b600073ffffffffffffffffffffffffffffffffffffffff82169050919050565b6000610eea82610ebf565b9050919050565b610efa81610edf565b8114610f0557600080fd5b50565b600081359050610f1781610ef1565b92915050565b600060208284031215610f3357610f32610eb5565b5b6000610f4184828501610f08565b91505092915050565b600060ff82169050919050565b610f6081610f4a565b82525050565b6000602082019050610f7b6000830184610f57565b92915050565b610f8a81610e81565b8114610f9557600080fd5b50565b600081359050610fa781610f81565b92915050565b60008060408385031215610fc457610fc3610eb5565b5b6000610fd285828601610f08565b9250506020610fe385828601610f98565b9150509250929050565b60008115159050919050565b61100281610fed565b82525050565b600060208201905061101d6000830184610ff9565b92915050565b60006020828403121561103957611038610eb5565b5b600061104784828501610f98565b91505092915050565b61105981610edf565b82525050565b60006020820190506110746000830184611050565b92915050565b600080fd5b600080fd5b600080fd5b60008083601f84011261109f5761109e61107a565b5b8235905067ffffffffffffffff8111156110bc576110bb61107f565b5b6020830191508360018202830111156110d8576110d7611084565b5b9250929050565b600080600080606085870312156110f9576110f8610eb5565b5b600061110787828801610f08565b945050602061111887828801610f98565b935050604085013567ffffffffffffffff81111561113957611138610eba565b5b61114587828801611089565b925092505092959194509250565b7f4e487b7100000000000000000000000000000000000000000000000000000000600052602260045260246000fd5b6000600282049050600182168061119a57607f821691505b6020821081036111ad576111ac611153565b5b50919050565b7f4e487b7100000000000000000000000000000000000000000000000000000000600052601160045260246000fd5b60006111ed82610e81565b91506111f883610e81565b9250827fffffffffffffffffffffffffffffffffffffffffffffffffffffffffffffffff0382111561122d5761122c6111b3565b5b828201905092915050565b600061124382610e81565b915061124e83610e81565b925082821015611261576112606111b3565b5b828203905092915050565b7f4f776e61626c653a2063616c6c6572206973206e6f7420746865206f776e6572600082015250565b60006112a2602083610dd1565b91506112ad8261126c565b602082019050919050565b600060208201905081810360008301526112d181611295565b9050919050565b600081519050919050565b600082825260208201905092915050565b60006112ff826112d8565b61130981856112e3565b9350611319818560208601610de2565b61132281610e15565b840191505092915050565b60006060820190506113426000830186611050565b61134f6020830185610e8b565b818103604083015261136181846112f4565b9050949350505050565b82818337600083830152505050565b600061138683856112e3565b935061139383858461136b565b61139c83610e15565b840190509392505050565b60006060820190506113bc6000830187611050565b6113c96020830186610e8b565b81810360408301526113dc81848661137a565b905095945050505050565b7f4f776e61626c653a206e6577206f776e657220697320746865207a65726f206160008201527f6464726573730000000000000000000000000000000000000000000000000000602082015250565b6000611443602683610dd1565b915061144e826113e7565b604082019050919050565b6000602082019050818103600083015261147281611436565b905091905056fea26469706673582212203b6f2cb16b5826ff32e1cb758ffc049ee0b765eb2ad08111cbb7b7269b7b149d64736f6c634300080e0033",
  "immutableReferences": {},
  "source": "// SPDX-License-Identifier: MIT\n\n/*\n* Standard ERC223 Token implementation.\n*/\n\npragma solidity ^0.8.4;\n\nimport \"@openzeppelin/contracts/access/Ownable.sol\";\n\ninterface IERC223 {\n    function name() external view returns (string memory);\n    function symbol() external view returns (string memory);\n    function standard() external view returns (string memory);\n    function decimals() external view returns (uint8);\n    function totalSupply() external view returns (uint256);\n    function balanceOf(address who) external view returns (uint256);\n    function transfer(address to, uint256 value) external returns (bool success);\n    function transfer(address to, uint256 value, bytes calldata data) external returns (bool success);\n\n    event Transfer(address indexed from, address indexed to, uint256 value);\n}\n\n// Standard ERC223 function that will handle incoming token transfers.\ninterface IERC223Recipient {\n    function tokenFallback(\n        address _from,\n        uint256 _value,\n        bytes calldata _data\n    ) external;\n}\n\n// Utility library of inline functions on addresses\nlibrary Address {\n   // Returns whether the target address is a contract\n   function isContract(address account) internal view returns (bool) {\n      uint256 size;\n      // solhint-disable-next-line no-inline-assembly\n      assembly {\n         size := extcodesize(account)\n      }\n      return size > 0;\n   }\n}\n\n\ncontract DAOToken is IERC223, Ownable {\n\n   string private _name;\n   string private _symbol;\n   uint8 private _decimals;\n   uint256 private _totalSupply;\n   bytes constant _empty = hex\"00000000\";\n   mapping(address => uint256) public balances; //List of user balances\n\n   constructor() {\n      _name = \"DAOToken\";\n      _symbol = \"DT\";\n      _decimals = 0;\n      _totalSupply = 0;\n   }\n\n   // @dev ERC223 tokens must explicitly return.\n   function standard() public pure returns (string memory) {\n      return \"erc223\";\n   }\n\n   // @dev Returns the name of the token.\n   function name() public view override returns (string memory) {\n      return _name;\n   }\n\n   // @dev Returns the symbol of the token, usually a shorter veriosn of the name.\n   function symbol() public view override returns (string memory) {\n      return _symbol;\n   }\n\n   // @dev  Returns the number of decimals used to get its user representation.\n   // E.g. if decimals=2, a balance of `505` tokens should be displayed to a user as `5,05` (`505 / 10^decimals`)\n   function decimals() public view override returns (uint8) {\n      return _decimals;\n   }\n\n   // @dev Returns total supply of the token.\n   function totalSupply() public view override returns (uint256) {\n      return _totalSupply;\n   }\n\n   // @dev Returns balance of the owner.\n   function balanceOf(address owner) public view override returns (uint256) {\n      return balances[owner];\n   }\n\n   function transfer(address _to, uint256 _value) public override returns (bool success){\n        // Standard function transfer similar to ERC20 transfer with no _data .\n        // Added due to backwards compatibility reasons .\n        balances[msg.sender] = balances[msg.sender] - _value;\n        balances[_to] = balances[_to] + _value;\n        if (Address.isContract(_to)) {\n            IERC223Recipient(_to).tokenFallback(msg.sender, _value, _empty);\n        }\n        emit Transfer(msg.sender, _to, _value);\n        return true;\n    }\n\n    function transfer(address _to, uint256 _value, bytes calldata _data) public override returns (bool success) {\n        balances[msg.sender] = balances[msg.sender] - _value;\n        balances[_to] = balances[_to] + _value;\n        if (Address.isContract(_to)) {\n            IERC223Recipient(_to).tokenFallback(msg.sender, _value, _data);\n        }\n        emit Transfer(msg.sender, _to, _value);\n        return true;\n    }\n\n    function mint(address account, uint256 value) public returns (bool success) {\n        require(account != address(0));\n        _totalSupply = _totalSupply + (value);\n        balances[account] = balances[account] + (value);\n        emit Transfer(address(0), account, value);\n        return true;\n    }\n\n   function burn(uint256 value) public {\n        _totalSupply = _totalSupply - (value);\n        balances[msg.sender] = balances[msg.sender] - (value);\n        emit Transfer(msg.sender, address(0), value);\n    }\n}\n",
  "sourcePath": "/home/fabian/Documents/02_Uni/TU-Wien/Smart_Contracts/FinalProject/e12140504/contracts/DAOToken.sol",
  "compiler": {
    "name": "solc",
    "version": "0.8.14+commit.80d49f37.Emscripten.clang"
  },
  "schemaVersion": "3.4.7",
  "updatedAt": "2022-06-10T13:25:48.071Z",
  "networkType": "ethereum",
  "devdoc": {
    "kind": "dev",
    "methods": {
      "owner()": {
        "details": "Returns the address of the current owner."
      },
      "renounceOwnership()": {
        "details": "Leaves the contract without owner. It will not be possible to call `onlyOwner` functions anymore. Can only be called by the current owner. NOTE: Renouncing ownership will leave the contract without an owner, thereby removing any functionality that is only available to the owner."
      },
      "transferOwnership(address)": {
        "details": "Transfers ownership of the contract to a new account (`newOwner`). Can only be called by the current owner."
      }
    },
    "version": 1
  },
  "userdoc": {
    "kind": "user",
    "methods": {},
    "version": 1
  }
}