{
  "contractName": "ICO_DAOToken",
  "abi": [
    {
      "inputs": [
        {
          "internalType": "address",
          "name": "_address",
          "type": "address"
        }
      ],
      "stateMutability": "payable",
      "type": "constructor",
      "payable": true
    },
    {
      "anonymous": false,
      "inputs": [
        {
          "indexed": true,
          "internalType": "address",
          "name": "previousOwner",
          "type": "address"
        },
        {
          "indexed": true,
          "internalType": "address",
          "name": "newOwner",
          "type": "address"
        }
      ],
      "name": "OwnershipTransferred",
      "type": "event"
    },
    {
      "inputs": [],
      "name": "DAOTokenContract",
      "outputs": [
        {
          "internalType": "contract DAOToken",
          "name": "",
          "type": "address"
        }
      ],
      "stateMutability": "view",
      "type": "function",
      "constant": true
    },
    {
      "inputs": [],
      "name": "ICO2_TOKEN_SUPPLY_LIMIT",
      "outputs": [
        {
          "internalType": "uint16",
          "name": "",
          "type": "uint16"
        }
      ],
      "stateMutability": "view",
      "type": "function",
      "constant": true
    },
    {
      "inputs": [],
      "name": "ICO_PRICE1",
      "outputs": [
        {
          "internalType": "uint8",
          "name": "",
          "type": "uint8"
        }
      ],
      "stateMutability": "view",
      "type": "function",
      "constant": true
    },
    {
      "inputs": [],
      "name": "ICO_PRICE2",
      "outputs": [
        {
          "internalType": "uint8",
          "name": "",
          "type": "uint8"
        }
      ],
      "stateMutability": "view",
      "type": "function",
      "constant": true
    },
    {
      "inputs": [],
      "name": "ICO_TOKEN_SUPPLY_LIMIT",
      "outputs": [
        {
          "internalType": "uint16",
          "name": "",
          "type": "uint16"
        }
      ],
      "stateMutability": "view",
      "type": "function",
      "constant": true
    },
    {
      "inputs": [],
      "name": "PRESALE_PRICE",
      "outputs": [
        {
          "internalType": "uint8",
          "name": "",
          "type": "uint8"
        }
      ],
      "stateMutability": "view",
      "type": "function",
      "constant": true
    },
    {
      "inputs": [],
      "name": "PRESALE_TOKEN_SUPPLY_LIMIT",
      "outputs": [
        {
          "internalType": "uint16",
          "name": "",
          "type": "uint16"
        }
      ],
      "stateMutability": "view",
      "type": "function",
      "constant": true
    },
    {
      "inputs": [],
      "name": "_totalSupply",
      "outputs": [
        {
          "internalType": "uint256",
          "name": "",
          "type": "uint256"
        }
      ],
      "stateMutability": "view",
      "type": "function",
      "constant": true
    },
    {
      "inputs": [],
      "name": "inProcess",
      "outputs": [
        {
          "internalType": "bool",
          "name": "",
          "type": "bool"
        }
      ],
      "stateMutability": "view",
      "type": "function",
      "constant": true
    },
    {
      "inputs": [],
      "name": "owner",
      "outputs": [
        {
          "internalType": "address",
          "name": "",
          "type": "address"
        }
      ],
      "stateMutability": "view",
      "type": "function",
      "constant": true
    },
    {
      "inputs": [],
      "name": "price",
      "outputs": [
        {
          "internalType": "uint8",
          "name": "",
          "type": "uint8"
        }
      ],
      "stateMutability": "view",
      "type": "function",
      "constant": true
    },
    {
      "inputs": [],
      "name": "renounceOwnership",
      "outputs": [],
      "stateMutability": "nonpayable",
      "type": "function"
    },
    {
      "inputs": [
        {
          "internalType": "address",
          "name": "newOwner",
          "type": "address"
        }
      ],
      "name": "transferOwnership",
      "outputs": [],
      "stateMutability": "nonpayable",
      "type": "function"
    },
    {
      "stateMutability": "payable",
      "type": "receive",
      "payable": true
    },
    {
      "inputs": [],
      "name": "startICO",
      "outputs": [],
      "stateMutability": "nonpayable",
      "type": "function"
    },
    {
      "inputs": [],
      "name": "stopICO",
      "outputs": [],
      "stateMutability": "nonpayable",
      "type": "function"
    },
    {
      "inputs": [],
      "name": "buy",
      "outputs": [
        {
          "internalType": "bool",
          "name": "sucess",
          "type": "bool"
        }
      ],
      "stateMutability": "payable",
      "type": "function",
      "payable": true
    },
    {
      "inputs": [],
      "name": "getBuyPrice",
      "outputs": [
        {
          "internalType": "uint256",
          "name": "",
          "type": "uint256"
        }
      ],
      "stateMutability": "view",
      "type": "function",
      "constant": true
    },
    {
      "inputs": [
        {
          "internalType": "uint256",
          "name": "amount",
          "type": "uint256"
        }
      ],
      "name": "withdraw",
      "outputs": [
        {
          "internalType": "bool",
          "name": "success",
          "type": "bool"
        }
      ],
      "stateMutability": "nonpayable",
      "type": "function"
    }
  ],
  "bytecode": "0x60806040526064600355600a600460006101000a81548160ff021916908360ff160217905550604051620014d0380380620014d083398181016040528101906200004a9190620002a7565b600160008190555062000072620000666200016f60201b60201c565b6200017760201b60201c565b6001600260146101000a81548160ff02191690831515021790555080600260006101000a81548173ffffffffffffffffffffffffffffffffffffffff021916908373ffffffffffffffffffffffffffffffffffffffff160217905550600260009054906101000a900473ffffffffffffffffffffffffffffffffffffffff1673ffffffffffffffffffffffffffffffffffffffff166318160ddd6040518163ffffffff1660e01b8152600401602060405180830381865afa1580156200013c573d6000803e3d6000fd5b505050506040513d601f19601f8201168201806040525081019062000162919062000314565b6005819055505062000346565b600033905090565b6000600160009054906101000a900473ffffffffffffffffffffffffffffffffffffffff16905081600160006101000a81548173ffffffffffffffffffffffffffffffffffffffff021916908373ffffffffffffffffffffffffffffffffffffffff1602179055508173ffffffffffffffffffffffffffffffffffffffff168173ffffffffffffffffffffffffffffffffffffffff167f8be0079c531659141344cd1fd0a4f28419497f9722a3daafe3b4186f6b6457e060405160405180910390a35050565b600080fd5b600073ffffffffffffffffffffffffffffffffffffffff82169050919050565b60006200026f8262000242565b9050919050565b620002818162000262565b81146200028d57600080fd5b50565b600081519050620002a18162000276565b92915050565b600060208284031215620002c057620002bf6200023d565b5b6000620002d08482850162000290565b91505092915050565b6000819050919050565b620002ee81620002d9565b8114620002fa57600080fd5b50565b6000815190506200030e81620002e3565b92915050565b6000602082840312156200032d576200032c6200023d565b5b60006200033d84828501620002fd565b91505092915050565b61117a80620003566000396000f3fe60806040526004361061010d5760003560e01c806398e0fb0811610095578063c8e569a811610064578063c8e569a81461032d578063d69b153814610344578063e92e5f031461036f578063f2fde38b1461039a578063f88607e4146103c35761011c565b806398e0fb081461028e5780639989bdf1146102b9578063a035b1fe146102e4578063a6f2ae3a1461030f5761011c565b80636cb5291e116100dc5780636cb5291e146101df578063715018a61461020a5780637fa8c15814610221578063859e9266146102385780638da5cb5b146102635761011c565b8063018a25e8146101215780632e1a7d4d1461014c5780633eaaf86b1461018957806362dc6e21146101b45761011c565b3661011c5761011a6103ee565b005b600080fd5b34801561012d57600080fd5b506101366105e8565b6040516101439190610b74565b60405180910390f35b34801561015857600080fd5b50610173600480360381019061016e9190610bc0565b610602565b6040516101809190610c08565b60405180910390f35b34801561019557600080fd5b5061019e61073f565b6040516101ab9190610b74565b60405180910390f35b3480156101c057600080fd5b506101c9610745565b6040516101d69190610c3f565b60405180910390f35b3480156101eb57600080fd5b506101f461074a565b6040516102019190610c3f565b60405180910390f35b34801561021657600080fd5b5061021f61074f565b005b34801561022d57600080fd5b506102366107d7565b005b34801561024457600080fd5b5061024d610870565b60405161025a9190610cd9565b60405180910390f35b34801561026f57600080fd5b50610278610896565b6040516102859190610d15565b60405180910390f35b34801561029a57600080fd5b506102a36108c0565b6040516102b09190610d4d565b60405180910390f35b3480156102c557600080fd5b506102ce6108c6565b6040516102db9190610c08565b60405180910390f35b3480156102f057600080fd5b506102f96108d9565b6040516103069190610c3f565b60405180910390f35b6103176103ee565b6040516103249190610c08565b60405180910390f35b34801561033957600080fd5b506103426108ec565b005b34801561035057600080fd5b50610359610985565b6040516103669190610d4d565b60405180910390f35b34801561037b57600080fd5b5061038461098b565b6040516103919190610d4d565b60405180910390f35b3480156103a657600080fd5b506103c160048036038101906103bc9190610d94565b610991565b005b3480156103cf57600080fd5b506103d8610a88565b6040516103e59190610c3f565b60405180910390f35b6000600260005403610435576040517f08c379a000000000000000000000000000000000000000000000000000000000815260040161042c90610e1e565b60405180910390fd5b600260008190555060001515600260149054906101000a900460ff1615150361045d57600080fd5b6000349050600260009054906101000a900473ffffffffffffffffffffffffffffffffffffffff1673ffffffffffffffffffffffffffffffffffffffff166340c10f1933836040518363ffffffff1660e01b81526004016104bf929190610e3e565b6020604051808303816000875af11580156104de573d6000803e3d6000fd5b505050506040513d601f19601f820116820180604052508101906105029190610e93565b610541576040517f08c379a000000000000000000000000000000000000000000000000000000000815260040161053890610f0c565b60405180910390fd5b600260009054906101000a900473ffffffffffffffffffffffffffffffffffffffff1673ffffffffffffffffffffffffffffffffffffffff166318160ddd6040518163ffffffff1660e01b8152600401602060405180830381865afa1580156105ae573d6000803e3d6000fd5b505050506040513d601f19601f820116820180604052508101906105d29190610f41565b6005819055506001915050600160008190555090565b6000600460009054906101000a900460ff1660ff16905090565b600061060c610a8d565b73ffffffffffffffffffffffffffffffffffffffff1661062a610896565b73ffffffffffffffffffffffffffffffffffffffff1614610680576040517f08c379a000000000000000000000000000000000000000000000000000000000815260040161067790610fba565b60405180910390fd5b478211156106c3576040517f08c379a00000000000000000000000000000000000000000000000000000000081526004016106ba9061104c565b60405180910390fd5b6106cb610a8d565b73ffffffffffffffffffffffffffffffffffffffff16826040516106ee9061109d565b60006040518083038185875af1925050503d806000811461072b576040519150601f19603f3d011682016040523d82523d6000602084013e610730565b606091505b50508091505060019050919050565b60055481565b600a81565b601481565b610757610a8d565b73ffffffffffffffffffffffffffffffffffffffff16610775610896565b73ffffffffffffffffffffffffffffffffffffffff16146107cb576040517f08c379a00000000000000000000000000000000000000000000000000000000081526004016107c290610fba565b60405180910390fd5b6107d56000610a95565b565b6107df610a8d565b73ffffffffffffffffffffffffffffffffffffffff166107fd610896565b73ffffffffffffffffffffffffffffffffffffffff1614610853576040517f08c379a000000000000000000000000000000000000000000000000000000000815260040161084a90610fba565b60405180910390fd5b6001600260146101000a81548160ff021916908315150217905550565b600260009054906101000a900473ffffffffffffffffffffffffffffffffffffffff1681565b6000600160009054906101000a900473ffffffffffffffffffffffffffffffffffffffff16905090565b6107d081565b600260149054906101000a900460ff1681565b600460009054906101000a900460ff1681565b6108f4610a8d565b73ffffffffffffffffffffffffffffffffffffffff16610912610896565b73ffffffffffffffffffffffffffffffffffffffff1614610968576040517f08c379a000000000000000000000000000000000000000000000000000000000815260040161095f90610fba565b60405180910390fd5b6000600260146101000a81548160ff021916908315150217905550565b610fa081565b6103e881565b610999610a8d565b73ffffffffffffffffffffffffffffffffffffffff166109b7610896565b73ffffffffffffffffffffffffffffffffffffffff1614610a0d576040517f08c379a0000000000000000000000000000000000000000000000000000000008152600401610a0490610fba565b60405180910390fd5b600073ffffffffffffffffffffffffffffffffffffffff168173ffffffffffffffffffffffffffffffffffffffff1603610a7c576040517f08c379a0000000000000000000000000000000000000000000000000000000008152600401610a7390611124565b60405180910390fd5b610a8581610a95565b50565b602881565b600033905090565b6000600160009054906101000a900473ffffffffffffffffffffffffffffffffffffffff16905081600160006101000a81548173ffffffffffffffffffffffffffffffffffffffff021916908373ffffffffffffffffffffffffffffffffffffffff1602179055508173ffffffffffffffffffffffffffffffffffffffff168173ffffffffffffffffffffffffffffffffffffffff167f8be0079c531659141344cd1fd0a4f28419497f9722a3daafe3b4186f6b6457e060405160405180910390a35050565b6000819050919050565b610b6e81610b5b565b82525050565b6000602082019050610b896000830184610b65565b92915050565b600080fd5b610b9d81610b5b565b8114610ba857600080fd5b50565b600081359050610bba81610b94565b92915050565b600060208284031215610bd657610bd5610b8f565b5b6000610be484828501610bab565b91505092915050565b60008115159050919050565b610c0281610bed565b82525050565b6000602082019050610c1d6000830184610bf9565b92915050565b600060ff82169050919050565b610c3981610c23565b82525050565b6000602082019050610c546000830184610c30565b92915050565b600073ffffffffffffffffffffffffffffffffffffffff82169050919050565b6000819050919050565b6000610c9f610c9a610c9584610c5a565b610c7a565b610c5a565b9050919050565b6000610cb182610c84565b9050919050565b6000610cc382610ca6565b9050919050565b610cd381610cb8565b82525050565b6000602082019050610cee6000830184610cca565b92915050565b6000610cff82610c5a565b9050919050565b610d0f81610cf4565b82525050565b6000602082019050610d2a6000830184610d06565b92915050565b600061ffff82169050919050565b610d4781610d30565b82525050565b6000602082019050610d626000830184610d3e565b92915050565b610d7181610cf4565b8114610d7c57600080fd5b50565b600081359050610d8e81610d68565b92915050565b600060208284031215610daa57610da9610b8f565b5b6000610db884828501610d7f565b91505092915050565b600082825260208201905092915050565b7f5265656e7472616e637947756172643a207265656e7472616e742063616c6c00600082015250565b6000610e08601f83610dc1565b9150610e1382610dd2565b602082019050919050565b60006020820190508181036000830152610e3781610dfb565b9050919050565b6000604082019050610e536000830185610d06565b610e606020830184610b65565b9392505050565b610e7081610bed565b8114610e7b57600080fd5b50565b600081519050610e8d81610e67565b92915050565b600060208284031215610ea957610ea8610b8f565b5b6000610eb784828501610e7e565b91505092915050565b7f6d696e74206469646e7420776f726b0000000000000000000000000000000000600082015250565b6000610ef6600f83610dc1565b9150610f0182610ec0565b602082019050919050565b60006020820190508181036000830152610f2581610ee9565b9050919050565b600081519050610f3b81610b94565b92915050565b600060208284031215610f5757610f56610b8f565b5b6000610f6584828501610f2c565b91505092915050565b7f4f776e61626c653a2063616c6c6572206973206e6f7420746865206f776e6572600082015250565b6000610fa4602083610dc1565b9150610faf82610f6e565b602082019050919050565b60006020820190508181036000830152610fd381610f97565b9050919050565b7f49434f3a2066756e6374696f6e20776974686472617720696e76616c6964206960008201527f6e70757400000000000000000000000000000000000000000000000000000000602082015250565b6000611036602483610dc1565b915061104182610fda565b604082019050919050565b6000602082019050818103600083015261106581611029565b9050919050565b600081905092915050565b50565b600061108760008361106c565b915061109282611077565b600082019050919050565b60006110a88261107a565b9150819050919050565b7f4f776e61626c653a206e6577206f776e657220697320746865207a65726f206160008201527f6464726573730000000000000000000000000000000000000000000000000000602082015250565b600061110e602683610dc1565b9150611119826110b2565b604082019050919050565b6000602082019050818103600083015261113d81611101565b905091905056fea26469706673582212208a5e2729da75b3388d6f0e29222844a0e9efae6619ab09620f764db4b466ee5164736f6c634300080e0033",
  "immutableReferences": {},
  "source": "// SPDX-License-Identifier: MIT\npragma solidity ^0.8.4;\n\n// import from node_modules @openzeppelin/contracts v4.0\nimport \"@openzeppelin/contracts/security/ReentrancyGuard.sol\";\nimport \"@openzeppelin/contracts/access/Ownable.sol\";\nimport \"./DAOToken.sol\";\n\n/** \n  *@title Initial Coin Offerring(ICO) contract\n*/\n\ncontract ICO_DAOToken is ReentrancyGuard, Ownable {\n\n    // constructor() public ERC20(\"_name\", \"_symbol\") {\n    //  // mint to `msg.sender` \n    //  _mint(msg.sender, _amount*(10**uint256(decimals())));\n    //  // mint to `_address`\n    //  _mint(_address, _amount*(10**uint256(decimals())));\n    // }\n\n    DAOToken public DAOTokenContract;\n\n    bool public inProcess;\n    uint256 maxPreorderAmountPerUser = 100;\n    uint8 public constant PRESALE_PRICE = 10;\n    uint8 public constant ICO_PRICE1 = 20;\n    uint8 public constant ICO_PRICE2 = 40;\n    uint16 public constant PRESALE_TOKEN_SUPPLY_LIMIT = 1000;\n    uint16 public constant ICO_TOKEN_SUPPLY_LIMIT = 2000;\n    uint16 public constant ICO2_TOKEN_SUPPLY_LIMIT = 4000;\n    uint8 public price = PRESALE_PRICE;\n    uint256 public _totalSupply;\n    \n    constructor(address _address) payable {\n      inProcess = true;\n      DAOTokenContract = DAOToken(_address);\n      _totalSupply = DAOTokenContract.totalSupply();\n    }\n    \n    function startICO() public onlyOwner {\n        inProcess = true;\n    }\n\n    function stopICO() public onlyOwner {\n        inProcess = false;\n    }\n\n    modifier _inProcess() {\n      if (inProcess == false) revert();\n      _;\n    }\n\n    /** \n      @dev function to buy token with ether\n    */\n    function buy() public payable nonReentrant _inProcess returns (bool sucess) {\n      // require(msg.sender.balance >= msg.value && msg.value != 0 ether, \"ICO: function buy invalid input\");\n      // require(DAOTokenContract.balanceOf(msg.sender) < maxPreorderAmountPerUser, \"User reached max preorder amount\");\n      // // Track total sold tokens and update price accordingly\n      // if (_totalSupply >= PRESALE_TOKEN_SUPPLY_LIMIT) {\n      //   price = ICO_PRICE1;\n      // } else if (_totalSupply >= ICO_TOKEN_SUPPLY_LIMIT) {\n      //   price = ICO_PRICE2;\n      // } else if (_totalSupply >= ICO2_TOKEN_SUPPLY_LIMIT) {\n      //   inProcess = false;\n      // }\n      uint256 amount = msg.value; // / price;\n      require(DAOTokenContract.mint(msg.sender, amount), \"mint didnt work\");\n      _totalSupply = DAOTokenContract.totalSupply();\n      return true;\n    }\n\n    function getBuyPrice() public view returns(uint) {\n        return price;\n    }\n\n    /**\n      @dev function use to withdraw ether from contract\n    */\n    function withdraw(uint256 amount) public onlyOwner returns (bool success) {\n      require(amount <= address(this).balance, \"ICO: function withdraw invalid input\");\n      (success, ) = payable(_msgSender()).call{value: amount}(\"\");\n      return true;\n    }\n\n    receive() external payable {\n      buy();\n    }\n}",
  "sourcePath": "/home/fabian/Documents/02_Uni/TU-Wien/Smart_Contracts/FinalProject/e12140504/contracts/ICO_DAOToken.sol",
  "compiler": {
    "name": "solc",
    "version": "0.8.14+commit.80d49f37.Emscripten.clang"
  },
  "schemaVersion": "3.4.7",
  "updatedAt": "2022-06-10T13:25:48.090Z",
  "networkType": "ethereum",
  "devdoc": {
    "kind": "dev",
    "methods": {
      "buy()": {
        "details": "function to buy token with ether"
      },
      "owner()": {
        "details": "Returns the address of the current owner."
      },
      "renounceOwnership()": {
        "details": "Leaves the contract without owner. It will not be possible to call `onlyOwner` functions anymore. Can only be called by the current owner. NOTE: Renouncing ownership will leave the contract without an owner, thereby removing any functionality that is only available to the owner."
      },
      "transferOwnership(address)": {
        "details": "Transfers ownership of the contract to a new account (`newOwner`). Can only be called by the current owner."
      },
      "withdraw(uint256)": {
        "details": "function use to withdraw ether from contract"
      }
    },
    "title": "Initial Coin Offerring(ICO) contract",
    "version": 1
  },
  "userdoc": {
    "kind": "user",
    "methods": {},
    "version": 1
  }
}