{
  "contractName": "DAOToken",
  "abi": [
    {
      "inputs": [],
      "stateMutability": "nonpayable",
      "type": "constructor"
    },
    {
      "anonymous": false,
      "inputs": [
        {
          "indexed": true,
          "internalType": "address",
          "name": "owner",
          "type": "address"
        },
        {
          "indexed": false,
          "internalType": "uint256",
          "name": "amount",
          "type": "uint256"
        }
      ],
      "name": "Freeze",
      "type": "event"
    },
    {
      "anonymous": false,
      "inputs": [
        {
          "indexed": true,
          "internalType": "bytes32",
          "name": "role",
          "type": "bytes32"
        },
        {
          "indexed": true,
          "internalType": "bytes32",
          "name": "previousAdminRole",
          "type": "bytes32"
        },
        {
          "indexed": true,
          "internalType": "bytes32",
          "name": "newAdminRole",
          "type": "bytes32"
        }
      ],
      "name": "RoleAdminChanged",
      "type": "event"
    },
    {
      "anonymous": false,
      "inputs": [
        {
          "indexed": true,
          "internalType": "bytes32",
          "name": "role",
          "type": "bytes32"
        },
        {
          "indexed": true,
          "internalType": "address",
          "name": "account",
          "type": "address"
        },
        {
          "indexed": true,
          "internalType": "address",
          "name": "sender",
          "type": "address"
        }
      ],
      "name": "RoleGranted",
      "type": "event"
    },
    {
      "anonymous": false,
      "inputs": [
        {
          "indexed": true,
          "internalType": "bytes32",
          "name": "role",
          "type": "bytes32"
        },
        {
          "indexed": true,
          "internalType": "address",
          "name": "account",
          "type": "address"
        },
        {
          "indexed": true,
          "internalType": "address",
          "name": "sender",
          "type": "address"
        }
      ],
      "name": "RoleRevoked",
      "type": "event"
    },
    {
      "anonymous": false,
      "inputs": [
        {
          "indexed": true,
          "internalType": "address",
          "name": "from",
          "type": "address"
        },
        {
          "indexed": true,
          "internalType": "address",
          "name": "to",
          "type": "address"
        },
        {
          "indexed": false,
          "internalType": "uint256",
          "name": "value",
          "type": "uint256"
        }
      ],
      "name": "Transfer",
      "type": "event"
    },
    {
      "anonymous": false,
      "inputs": [
        {
          "indexed": true,
          "internalType": "address",
          "name": "owner",
          "type": "address"
        },
        {
          "indexed": false,
          "internalType": "uint256",
          "name": "amount",
          "type": "uint256"
        }
      ],
      "name": "Unfreeze",
      "type": "event"
    },
    {
      "inputs": [],
      "name": "DEFAULT_ADMIN_ROLE",
      "outputs": [
        {
          "internalType": "bytes32",
          "name": "",
          "type": "bytes32"
        }
      ],
      "stateMutability": "view",
      "type": "function",
      "constant": true
    },
    {
      "inputs": [],
      "name": "OWNER",
      "outputs": [
        {
          "internalType": "bytes32",
          "name": "",
          "type": "bytes32"
        }
      ],
      "stateMutability": "view",
      "type": "function",
      "constant": true
    },
    {
      "inputs": [
        {
          "internalType": "address",
          "name": "owner",
          "type": "address"
        }
      ],
      "name": "balanceOf",
      "outputs": [
        {
          "internalType": "uint256",
          "name": "",
          "type": "uint256"
        }
      ],
      "stateMutability": "view",
      "type": "function",
      "constant": true
    },
    {
      "inputs": [
        {
          "internalType": "address",
          "name": "",
          "type": "address"
        }
      ],
      "name": "balances",
      "outputs": [
        {
          "internalType": "uint256",
          "name": "",
          "type": "uint256"
        }
      ],
      "stateMutability": "view",
      "type": "function",
      "constant": true
    },
    {
      "inputs": [
        {
          "internalType": "uint256",
          "name": "value",
          "type": "uint256"
        }
      ],
      "name": "burn",
      "outputs": [],
      "stateMutability": "nonpayable",
      "type": "function"
    },
    {
      "inputs": [],
      "name": "decimals",
      "outputs": [
        {
          "internalType": "uint8",
          "name": "",
          "type": "uint8"
        }
      ],
      "stateMutability": "view",
      "type": "function",
      "constant": true
    },
    {
      "inputs": [
        {
          "internalType": "address",
          "name": "",
          "type": "address"
        }
      ],
      "name": "frozen",
      "outputs": [
        {
          "internalType": "uint256",
          "name": "",
          "type": "uint256"
        }
      ],
      "stateMutability": "view",
      "type": "function",
      "constant": true
    },
    {
      "inputs": [
        {
          "internalType": "bytes32",
          "name": "role",
          "type": "bytes32"
        }
      ],
      "name": "getRoleAdmin",
      "outputs": [
        {
          "internalType": "bytes32",
          "name": "",
          "type": "bytes32"
        }
      ],
      "stateMutability": "view",
      "type": "function",
      "constant": true
    },
    {
      "inputs": [
        {
          "internalType": "bytes32",
          "name": "role",
          "type": "bytes32"
        },
        {
          "internalType": "address",
          "name": "account",
          "type": "address"
        }
      ],
      "name": "grantRole",
      "outputs": [],
      "stateMutability": "nonpayable",
      "type": "function"
    },
    {
      "inputs": [
        {
          "internalType": "bytes32",
          "name": "role",
          "type": "bytes32"
        },
        {
          "internalType": "address",
          "name": "account",
          "type": "address"
        }
      ],
      "name": "hasRole",
      "outputs": [
        {
          "internalType": "bool",
          "name": "",
          "type": "bool"
        }
      ],
      "stateMutability": "view",
      "type": "function",
      "constant": true
    },
    {
      "inputs": [
        {
          "internalType": "address",
          "name": "account",
          "type": "address"
        },
        {
          "internalType": "uint256",
          "name": "value",
          "type": "uint256"
        }
      ],
      "name": "mint",
      "outputs": [
        {
          "internalType": "bool",
          "name": "success",
          "type": "bool"
        }
      ],
      "stateMutability": "nonpayable",
      "type": "function"
    },
    {
      "inputs": [],
      "name": "name",
      "outputs": [
        {
          "internalType": "string",
          "name": "",
          "type": "string"
        }
      ],
      "stateMutability": "view",
      "type": "function",
      "constant": true
    },
    {
      "inputs": [
        {
          "internalType": "bytes32",
          "name": "role",
          "type": "bytes32"
        },
        {
          "internalType": "address",
          "name": "account",
          "type": "address"
        }
      ],
      "name": "renounceRole",
      "outputs": [],
      "stateMutability": "nonpayable",
      "type": "function"
    },
    {
      "inputs": [
        {
          "internalType": "bytes32",
          "name": "role",
          "type": "bytes32"
        },
        {
          "internalType": "address",
          "name": "account",
          "type": "address"
        }
      ],
      "name": "revokeRole",
      "outputs": [],
      "stateMutability": "nonpayable",
      "type": "function"
    },
    {
      "inputs": [],
      "name": "standard",
      "outputs": [
        {
          "internalType": "string",
          "name": "",
          "type": "string"
        }
      ],
      "stateMutability": "pure",
      "type": "function",
      "constant": true
    },
    {
      "inputs": [
        {
          "internalType": "bytes4",
          "name": "interfaceId",
          "type": "bytes4"
        }
      ],
      "name": "supportsInterface",
      "outputs": [
        {
          "internalType": "bool",
          "name": "",
          "type": "bool"
        }
      ],
      "stateMutability": "view",
      "type": "function",
      "constant": true
    },
    {
      "inputs": [],
      "name": "symbol",
      "outputs": [
        {
          "internalType": "string",
          "name": "",
          "type": "string"
        }
      ],
      "stateMutability": "view",
      "type": "function",
      "constant": true
    },
    {
      "inputs": [],
      "name": "totalSupply",
      "outputs": [
        {
          "internalType": "uint256",
          "name": "",
          "type": "uint256"
        }
      ],
      "stateMutability": "view",
      "type": "function",
      "constant": true
    },
    {
      "inputs": [
        {
          "internalType": "address",
          "name": "_address",
          "type": "address"
        },
        {
          "internalType": "uint256",
          "name": "_amount",
          "type": "uint256"
        }
      ],
      "name": "freeze",
      "outputs": [],
      "stateMutability": "nonpayable",
      "type": "function"
    },
    {
      "inputs": [
        {
          "internalType": "address",
          "name": "_address",
          "type": "address"
        },
        {
          "internalType": "uint256",
          "name": "_amount",
          "type": "uint256"
        }
      ],
      "name": "unfreeze",
      "outputs": [],
      "stateMutability": "nonpayable",
      "type": "function"
    },
    {
      "inputs": [
        {
          "internalType": "address",
          "name": "owner",
          "type": "address"
        }
      ],
      "name": "frozenBalanceOf",
      "outputs": [
        {
          "internalType": "uint256",
          "name": "",
          "type": "uint256"
        }
      ],
      "stateMutability": "view",
      "type": "function",
      "constant": true
    },
    {
      "inputs": [
        {
          "internalType": "address",
          "name": "_to",
          "type": "address"
        },
        {
          "internalType": "uint256",
          "name": "_value",
          "type": "uint256"
        }
      ],
      "name": "transfer",
      "outputs": [
        {
          "internalType": "bool",
          "name": "success",
          "type": "bool"
        }
      ],
      "stateMutability": "nonpayable",
      "type": "function"
    },
    {
      "inputs": [
        {
          "internalType": "address",
          "name": "_to",
          "type": "address"
        },
        {
          "internalType": "uint256",
          "name": "_value",
          "type": "uint256"
        },
        {
          "internalType": "bytes",
          "name": "_data",
          "type": "bytes"
        }
      ],
      "name": "transfer",
      "outputs": [
        {
          "internalType": "bool",
          "name": "success",
          "type": "bool"
        }
      ],
      "stateMutability": "nonpayable",
      "type": "function"
    }
  ],
  "bytecode": "0x60806040523480156200001157600080fd5b506040518060400160405280600881526020017f44414f546f6b656e0000000000000000000000000000000000000000000000008152506040518060400160405280600281526020017f445400000000000000000000000000000000000000000000000000000000000081525060008260019081620000919190620004d8565b508160029081620000a39190620004d8565b5080600360006101000a81548160ff021916908360ff1602179055506000600481905550620000dc6000801b33620000e560201b60201c565b505050620005bf565b620000f78282620000fb60201b60201c565b5050565b6200010d8282620001ec60201b60201c565b620001e857600160008084815260200190815260200160002060000160008373ffffffffffffffffffffffffffffffffffffffff1673ffffffffffffffffffffffffffffffffffffffff16815260200190815260200160002060006101000a81548160ff0219169083151502179055506200018d6200025660201b60201c565b73ffffffffffffffffffffffffffffffffffffffff168173ffffffffffffffffffffffffffffffffffffffff16837f2f8788117e7eff1d82e926ec794901d17c78024a50270940304540a733656f0d60405160405180910390a45b5050565b600080600084815260200190815260200160002060000160008373ffffffffffffffffffffffffffffffffffffffff1673ffffffffffffffffffffffffffffffffffffffff16815260200190815260200160002060009054906101000a900460ff16905092915050565b600033905090565b600081519050919050565b7f4e487b7100000000000000000000000000000000000000000000000000000000600052604160045260246000fd5b7f4e487b7100000000000000000000000000000000000000000000000000000000600052602260045260246000fd5b60006002820490506001821680620002e057607f821691505b602082108103620002f657620002f562000298565b5b50919050565b60008190508160005260206000209050919050565b60006020601f8301049050919050565b600082821b905092915050565b600060088302620003607fffffffffffffffffffffffffffffffffffffffffffffffffffffffffffffffff8262000321565b6200036c868362000321565b95508019841693508086168417925050509392505050565b6000819050919050565b6000819050919050565b6000620003b9620003b3620003ad8462000384565b6200038e565b62000384565b9050919050565b6000819050919050565b620003d58362000398565b620003ed620003e482620003c0565b8484546200032e565b825550505050565b600090565b62000404620003f5565b62000411818484620003ca565b505050565b5b8181101562000439576200042d600082620003fa565b60018101905062000417565b5050565b601f82111562000488576200045281620002fc565b6200045d8462000311565b810160208510156200046d578190505b620004856200047c8562000311565b83018262000416565b50505b505050565b600082821c905092915050565b6000620004ad600019846008026200048d565b1980831691505092915050565b6000620004c883836200049a565b9150826002028217905092915050565b620004e3826200025e565b67ffffffffffffffff811115620004ff57620004fe62000269565b5b6200050b8254620002c7565b620005188282856200043d565b600060209050601f8311600181146200055057600084156200053b578287015190505b620005478582620004ba565b865550620005b7565b601f1984166200056086620002fc565b60005b828110156200058a5784890151825560018201915060208501945060208101905062000563565b86831015620005aa5784890151620005a6601f8916826200049a565b8355505b6001600288020188555050505b505050505050565b61230680620005cf6000396000f3fe608060405234801561001057600080fd5b506004361061014d5760003560e01c806342966c68116100c3578063a217fddf1161007c578063a217fddf146103b2578063a9059cbb146103d0578063be45fd6214610400578063be91de5314610430578063d051665014610460578063d547741f146104905761014d565b806342966c68146102de5780635a3b7e42146102fa57806370a08231146103185780637b46b80b1461034857806391d148541461036457806395d89b41146103945761014d565b806324bce60c1161011557806324bce60c1461020c57806327e235e3146102285780632f2ff15d14610258578063313ce5671461027457806336568abe1461029257806340c10f19146102ae5761014d565b806301ffc9a71461015257806306fdde0314610182578063117803e3146101a057806318160ddd146101be578063248a9ca3146101dc575b600080fd5b61016c600480360381019061016791906118ed565b6104ac565b6040516101799190611935565b60405180910390f35b61018a610526565b60405161019791906119e9565b60405180910390f35b6101a86105b8565b6040516101b59190611a24565b60405180910390f35b6101c66105dc565b6040516101d39190611a58565b60405180910390f35b6101f660048036038101906101f19190611a9f565b6105e6565b6040516102039190611a24565b60405180910390f35b61022660048036038101906102219190611b56565b610605565b005b610242600480360381019061023d9190611b96565b61070e565b60405161024f9190611a58565b60405180910390f35b610272600480360381019061026d9190611bc3565b610726565b005b61027c610747565b6040516102899190611c1f565b60405180910390f35b6102ac60048036038101906102a79190611bc3565b61075e565b005b6102c860048036038101906102c39190611b56565b6107e1565b6040516102d59190611935565b60405180910390f35b6102f860048036038101906102f39190611c3a565b610955565b005b610302610a5c565b60405161030f91906119e9565b60405180910390f35b610332600480360381019061032d9190611b96565b610a99565b60405161033f9190611a58565b60405180910390f35b610362600480360381019061035d9190611b56565b610ae2565b005b61037e60048036038101906103799190611bc3565b610beb565b60405161038b9190611935565b60405180910390f35b61039c610c55565b6040516103a991906119e9565b60405180910390f35b6103ba610ce7565b6040516103c79190611a24565b60405180910390f35b6103ea60048036038101906103e59190611b56565b610cee565b6040516103f79190611935565b60405180910390f35b61041a60048036038101906104159190611ccc565b610fd5565b6040516104279190611935565b60405180910390f35b61044a60048036038101906104459190611b96565b6112aa565b6040516104579190611a58565b60405180910390f35b61047a60048036038101906104759190611b96565b6112f3565b6040516104879190611a58565b60405180910390f35b6104aa60048036038101906104a59190611bc3565b61130b565b005b60007f7965db0b000000000000000000000000000000000000000000000000000000007bffffffffffffffffffffffffffffffffffffffffffffffffffffffff1916827bffffffffffffffffffffffffffffffffffffffffffffffffffffffff1916148061051f575061051e8261132c565b5b9050919050565b60606001805461053590611d6f565b80601f016020809104026020016040519081016040528092919081815260200182805461056190611d6f565b80156105ae5780601f10610583576101008083540402835291602001916105ae565b820191906000526020600020905b81548152906001019060200180831161059157829003601f168201915b5050505050905090565b7f6270edb7c868f86fda4adedba75108201087268ea345934db8bad688e1feb91b81565b6000600454905090565b6000806000838152602001908152602001600020600101549050919050565b7f6270edb7c868f86fda4adedba75108201087268ea345934db8bad688e1feb91b61062f81611396565b610678600660008573ffffffffffffffffffffffffffffffffffffffff1673ffffffffffffffffffffffffffffffffffffffff16815260200190815260200160002054836113aa565b600660008573ffffffffffffffffffffffffffffffffffffffff1673ffffffffffffffffffffffffffffffffffffffff168152602001908152602001600020819055508273ffffffffffffffffffffffffffffffffffffffff167ff97a274face0b5517365ad396b1fdba6f68bd3135ef603e44272adba3af5a1e0836040516107019190611a58565b60405180910390a2505050565b60056020528060005260406000206000915090505481565b61072f826105e6565b61073881611396565b61074283836113c0565b505050565b6000600360009054906101000a900460ff16905090565b6107666114a0565b73ffffffffffffffffffffffffffffffffffffffff168173ffffffffffffffffffffffffffffffffffffffff16146107d3576040517f08c379a00000000000000000000000000000000000000000000000000000000081526004016107ca90611e12565b60405180910390fd5b6107dd82826114a8565b5050565b60007f6270edb7c868f86fda4adedba75108201087268ea345934db8bad688e1feb91b61080d81611396565b600073ffffffffffffffffffffffffffffffffffffffff168473ffffffffffffffffffffffffffffffffffffffff160361084657600080fd5b610852600454846113aa565b6004819055506108a1600560008673ffffffffffffffffffffffffffffffffffffffff1673ffffffffffffffffffffffffffffffffffffffff16815260200190815260200160002054846113aa565b600560008673ffffffffffffffffffffffffffffffffffffffff1673ffffffffffffffffffffffffffffffffffffffff168152602001908152602001600020819055508373ffffffffffffffffffffffffffffffffffffffff16600073ffffffffffffffffffffffffffffffffffffffff167fddf252ad1be2c89b69c2b068fc378daa952ba7f163c4a11628f55a4df523b3ef856040516109429190611a58565b60405180910390a3600191505092915050565b61096160045482611589565b6004819055506109b0600560003373ffffffffffffffffffffffffffffffffffffffff1673ffffffffffffffffffffffffffffffffffffffff1681526020019081526020016000205482611589565b600560003373ffffffffffffffffffffffffffffffffffffffff1673ffffffffffffffffffffffffffffffffffffffff16815260200190815260200160002081905550600073ffffffffffffffffffffffffffffffffffffffff163373ffffffffffffffffffffffffffffffffffffffff167fddf252ad1be2c89b69c2b068fc378daa952ba7f163c4a11628f55a4df523b3ef83604051610a519190611a58565b60405180910390a350565b60606040518060400160405280600681526020017f6572633232330000000000000000000000000000000000000000000000000000815250905090565b6000600560008373ffffffffffffffffffffffffffffffffffffffff1673ffffffffffffffffffffffffffffffffffffffff168152602001908152602001600020549050919050565b7f6270edb7c868f86fda4adedba75108201087268ea345934db8bad688e1feb91b610b0c81611396565b610b55600660008573ffffffffffffffffffffffffffffffffffffffff1673ffffffffffffffffffffffffffffffffffffffff1681526020019081526020016000205483611589565b600660008573ffffffffffffffffffffffffffffffffffffffff1673ffffffffffffffffffffffffffffffffffffffff168152602001908152602001600020819055508273ffffffffffffffffffffffffffffffffffffffff167f2cfce4af01bcb9d6cf6c84ee1b7c491100b8695368264146a94d71e10a63083f83604051610bde9190611a58565b60405180910390a2505050565b600080600084815260200190815260200160002060000160008373ffffffffffffffffffffffffffffffffffffffff1673ffffffffffffffffffffffffffffffffffffffff16815260200190815260200160002060009054906101000a900460ff16905092915050565b606060028054610c6490611d6f565b80601f0160208091040260200160405190810160405280929190818152602001828054610c9090611d6f565b8015610cdd5780601f10610cb257610100808354040283529160200191610cdd565b820191906000526020600020905b815481529060010190602001808311610cc057829003601f168201915b5050505050905090565b6000801b81565b600081610d79600560003373ffffffffffffffffffffffffffffffffffffffff1673ffffffffffffffffffffffffffffffffffffffff16815260200190815260200160002054600660003373ffffffffffffffffffffffffffffffffffffffff1673ffffffffffffffffffffffffffffffffffffffff16815260200190815260200160002054611589565b1015610dba576040517f08c379a0000000000000000000000000000000000000000000000000000000008152600401610db190611e7e565b60405180910390fd5b610e03600560003373ffffffffffffffffffffffffffffffffffffffff1673ffffffffffffffffffffffffffffffffffffffff1681526020019081526020016000205483611589565b600560003373ffffffffffffffffffffffffffffffffffffffff1673ffffffffffffffffffffffffffffffffffffffff16815260200190815260200160002081905550610e8f600560008573ffffffffffffffffffffffffffffffffffffffff1673ffffffffffffffffffffffffffffffffffffffff16815260200190815260200160002054836113aa565b600560008573ffffffffffffffffffffffffffffffffffffffff1673ffffffffffffffffffffffffffffffffffffffff16815260200190815260200160002081905550610edb8361159f565b15610f66578273ffffffffffffffffffffffffffffffffffffffff1663c0ee0b8a338460405180604001604052806004815260200160008152506040518463ffffffff1660e01b8152600401610f3393929190611f02565b600060405180830381600087803b158015610f4d57600080fd5b505af1158015610f61573d6000803e3d6000fd5b505050505b8273ffffffffffffffffffffffffffffffffffffffff163373ffffffffffffffffffffffffffffffffffffffff167fddf252ad1be2c89b69c2b068fc378daa952ba7f163c4a11628f55a4df523b3ef84604051610fc39190611a58565b60405180910390a36001905092915050565b600083611060600560003373ffffffffffffffffffffffffffffffffffffffff1673ffffffffffffffffffffffffffffffffffffffff16815260200190815260200160002054600660003373ffffffffffffffffffffffffffffffffffffffff1673ffffffffffffffffffffffffffffffffffffffff16815260200190815260200160002054611589565b10156110a1576040517f08c379a000000000000000000000000000000000000000000000000000000000815260040161109890611e7e565b60405180910390fd5b6110ea600560003373ffffffffffffffffffffffffffffffffffffffff1673ffffffffffffffffffffffffffffffffffffffff1681526020019081526020016000205485611589565b600560003373ffffffffffffffffffffffffffffffffffffffff1673ffffffffffffffffffffffffffffffffffffffff16815260200190815260200160002081905550611176600560008773ffffffffffffffffffffffffffffffffffffffff1673ffffffffffffffffffffffffffffffffffffffff16815260200190815260200160002054856113aa565b600560008773ffffffffffffffffffffffffffffffffffffffff1673ffffffffffffffffffffffffffffffffffffffff168152602001908152602001600020819055506111c28561159f565b15611239578473ffffffffffffffffffffffffffffffffffffffff1663c0ee0b8a338686866040518563ffffffff1660e01b81526004016112069493929190611f7c565b600060405180830381600087803b15801561122057600080fd5b505af1158015611234573d6000803e3d6000fd5b505050505b8473ffffffffffffffffffffffffffffffffffffffff163373ffffffffffffffffffffffffffffffffffffffff167fddf252ad1be2c89b69c2b068fc378daa952ba7f163c4a11628f55a4df523b3ef866040516112969190611a58565b60405180910390a360019050949350505050565b6000600660008373ffffffffffffffffffffffffffffffffffffffff1673ffffffffffffffffffffffffffffffffffffffff168152602001908152602001600020549050919050565b60066020528060005260406000206000915090505481565b611314826105e6565b61131d81611396565b61132783836114a8565b505050565b60007f01ffc9a7000000000000000000000000000000000000000000000000000000007bffffffffffffffffffffffffffffffffffffffffffffffffffffffff1916827bffffffffffffffffffffffffffffffffffffffffffffffffffffffff1916149050919050565b6113a7816113a26114a0565b6115b2565b50565b600081836113b89190611feb565b905092915050565b6113ca8282610beb565b61149c57600160008084815260200190815260200160002060000160008373ffffffffffffffffffffffffffffffffffffffff1673ffffffffffffffffffffffffffffffffffffffff16815260200190815260200160002060006101000a81548160ff0219169083151502179055506114416114a0565b73ffffffffffffffffffffffffffffffffffffffff168173ffffffffffffffffffffffffffffffffffffffff16837f2f8788117e7eff1d82e926ec794901d17c78024a50270940304540a733656f0d60405160405180910390a45b5050565b600033905090565b6114b28282610beb565b1561158557600080600084815260200190815260200160002060000160008373ffffffffffffffffffffffffffffffffffffffff1673ffffffffffffffffffffffffffffffffffffffff16815260200190815260200160002060006101000a81548160ff02191690831515021790555061152a6114a0565b73ffffffffffffffffffffffffffffffffffffffff168173ffffffffffffffffffffffffffffffffffffffff16837ff6391f5c32d9c69d2a47ea670b442974b53935d1edc7fd64eb21e047a839171b60405160405180910390a45b5050565b600081836115979190612041565b905092915050565b600080823b905060008111915050919050565b6115bc8282610beb565b61164b576115e18173ffffffffffffffffffffffffffffffffffffffff16601461164f565b6115ef8360001c602061164f565b604051602001611600929190612149565b6040516020818303038152906040526040517f08c379a000000000000000000000000000000000000000000000000000000000815260040161164291906119e9565b60405180910390fd5b5050565b6060600060028360026116629190612183565b61166c9190611feb565b67ffffffffffffffff811115611685576116846121dd565b5b6040519080825280601f01601f1916602001820160405280156116b75781602001600182028036833780820191505090505b5090507f3000000000000000000000000000000000000000000000000000000000000000816000815181106116ef576116ee61220c565b5b60200101907effffffffffffffffffffffffffffffffffffffffffffffffffffffffffffff1916908160001a9053507f7800000000000000000000000000000000000000000000000000000000000000816001815181106117535761175261220c565b5b60200101907effffffffffffffffffffffffffffffffffffffffffffffffffffffffffffff1916908160001a905350600060018460026117939190612183565b61179d9190611feb565b90505b600181111561183d577f3031323334353637383961626364656600000000000000000000000000000000600f8616601081106117df576117de61220c565b5b1a60f81b8282815181106117f6576117f561220c565b5b60200101907effffffffffffffffffffffffffffffffffffffffffffffffffffffffffffff1916908160001a905350600485901c9450806118369061223b565b90506117a0565b5060008414611881576040517f08c379a0000000000000000000000000000000000000000000000000000000008152600401611878906122b0565b60405180910390fd5b8091505092915050565b600080fd5b600080fd5b60007fffffffff0000000000000000000000000000000000000000000000000000000082169050919050565b6118ca81611895565b81146118d557600080fd5b50565b6000813590506118e7816118c1565b92915050565b6000602082840312156119035761190261188b565b5b6000611911848285016118d8565b91505092915050565b60008115159050919050565b61192f8161191a565b82525050565b600060208201905061194a6000830184611926565b92915050565b600081519050919050565b600082825260208201905092915050565b60005b8381101561198a57808201518184015260208101905061196f565b83811115611999576000848401525b50505050565b6000601f19601f8301169050919050565b60006119bb82611950565b6119c5818561195b565b93506119d581856020860161196c565b6119de8161199f565b840191505092915050565b60006020820190508181036000830152611a0381846119b0565b905092915050565b6000819050919050565b611a1e81611a0b565b82525050565b6000602082019050611a396000830184611a15565b92915050565b6000819050919050565b611a5281611a3f565b82525050565b6000602082019050611a6d6000830184611a49565b92915050565b611a7c81611a0b565b8114611a8757600080fd5b50565b600081359050611a9981611a73565b92915050565b600060208284031215611ab557611ab461188b565b5b6000611ac384828501611a8a565b91505092915050565b600073ffffffffffffffffffffffffffffffffffffffff82169050919050565b6000611af782611acc565b9050919050565b611b0781611aec565b8114611b1257600080fd5b50565b600081359050611b2481611afe565b92915050565b611b3381611a3f565b8114611b3e57600080fd5b50565b600081359050611b5081611b2a565b92915050565b60008060408385031215611b6d57611b6c61188b565b5b6000611b7b85828601611b15565b9250506020611b8c85828601611b41565b9150509250929050565b600060208284031215611bac57611bab61188b565b5b6000611bba84828501611b15565b91505092915050565b60008060408385031215611bda57611bd961188b565b5b6000611be885828601611a8a565b9250506020611bf985828601611b15565b9150509250929050565b600060ff82169050919050565b611c1981611c03565b82525050565b6000602082019050611c346000830184611c10565b92915050565b600060208284031215611c5057611c4f61188b565b5b6000611c5e84828501611b41565b91505092915050565b600080fd5b600080fd5b600080fd5b60008083601f840112611c8c57611c8b611c67565b5b8235905067ffffffffffffffff811115611ca957611ca8611c6c565b5b602083019150836001820283011115611cc557611cc4611c71565b5b9250929050565b60008060008060608587031215611ce657611ce561188b565b5b6000611cf487828801611b15565b9450506020611d0587828801611b41565b935050604085013567ffffffffffffffff811115611d2657611d25611890565b5b611d3287828801611c76565b925092505092959194509250565b7f4e487b7100000000000000000000000000000000000000000000000000000000600052602260045260246000fd5b60006002820490506001821680611d8757607f821691505b602082108103611d9a57611d99611d40565b5b50919050565b7f416363657373436f6e74726f6c3a2063616e206f6e6c792072656e6f756e636560008201527f20726f6c657320666f722073656c660000000000000000000000000000000000602082015250565b6000611dfc602f8361195b565b9150611e0782611da0565b604082019050919050565b60006020820190508181036000830152611e2b81611def565b9050919050565b7f596f75722062616c616e63652069732066726f7a656e21000000000000000000600082015250565b6000611e6860178361195b565b9150611e7382611e32565b602082019050919050565b60006020820190508181036000830152611e9781611e5b565b9050919050565b611ea781611aec565b82525050565b600081519050919050565b600082825260208201905092915050565b6000611ed482611ead565b611ede8185611eb8565b9350611eee81856020860161196c565b611ef78161199f565b840191505092915050565b6000606082019050611f176000830186611e9e565b611f246020830185611a49565b8181036040830152611f368184611ec9565b9050949350505050565b82818337600083830152505050565b6000611f5b8385611eb8565b9350611f68838584611f40565b611f718361199f565b840190509392505050565b6000606082019050611f916000830187611e9e565b611f9e6020830186611a49565b8181036040830152611fb1818486611f4f565b905095945050505050565b7f4e487b7100000000000000000000000000000000000000000000000000000000600052601160045260246000fd5b6000611ff682611a3f565b915061200183611a3f565b9250827fffffffffffffffffffffffffffffffffffffffffffffffffffffffffffffffff0382111561203657612035611fbc565b5b828201905092915050565b600061204c82611a3f565b915061205783611a3f565b92508282101561206a57612069611fbc565b5b828203905092915050565b600081905092915050565b7f416363657373436f6e74726f6c3a206163636f756e7420000000000000000000600082015250565b60006120b6601783612075565b91506120c182612080565b601782019050919050565b60006120d782611950565b6120e18185612075565b93506120f181856020860161196c565b80840191505092915050565b7f206973206d697373696e6720726f6c6520000000000000000000000000000000600082015250565b6000612133601183612075565b915061213e826120fd565b601182019050919050565b6000612154826120a9565b915061216082856120cc565b915061216b82612126565b915061217782846120cc565b91508190509392505050565b600061218e82611a3f565b915061219983611a3f565b9250817fffffffffffffffffffffffffffffffffffffffffffffffffffffffffffffffff04831182151516156121d2576121d1611fbc565b5b828202905092915050565b7f4e487b7100000000000000000000000000000000000000000000000000000000600052604160045260246000fd5b7f4e487b7100000000000000000000000000000000000000000000000000000000600052603260045260246000fd5b600061224682611a3f565b91506000820361225957612258611fbc565b5b600182039050919050565b7f537472696e67733a20686578206c656e67746820696e73756666696369656e74600082015250565b600061229a60208361195b565b91506122a582612264565b602082019050919050565b600060208201905081810360008301526122c98161228d565b905091905056fea26469706673582212209460f186526c82a4dae45d811ae9d2af19c1498088bd32eb06f2e700fc95eba064736f6c634300080f0033",
  "immutableReferences": {},
  "source": "// SPDX-License-Identifier: MIT\n\n/*\n* ERC223 Token.\n*/\n\npragma solidity ^0.8.4;\n\nimport \"./ERC223Token.sol\";\n\ncontract DAOToken is ERC223Token {\n\n    mapping(address => uint256) public frozen; //List of users that saves address, unlockTime, frozen amount\n    event Freeze(address indexed owner, uint256 amount);\n    event Unfreeze(address indexed owner, uint256 amount);\n\n    constructor() ERC223Token(\"DAOToken\", \"DT\", 0) {\n    }\n\n    function freeze(address _address, uint256 _amount) public onlyRole(OWNER) {\n        frozen[_address] = SafeMath.add(frozen[_address], _amount);\n        emit Freeze(_address, _amount);\n    }\n\n    function unfreeze(address _address, uint256 _amount) public onlyRole(OWNER) {\n        frozen[_address] = SafeMath.sub(frozen[_address], _amount);\n        emit Unfreeze(_address, _amount);\n    }\n\n    function frozenBalanceOf(address owner) public view returns (uint256) {\n      return frozen[owner];\n   }\n\n    function transfer(address _to, uint256 _value) public override returns (bool success){\n        // Standard function transfer similar to ERC20 transfer with no _data .\n        // Added due to backwards compatibility reasons .\n        require(SafeMath.sub(balances[msg.sender], frozen[msg.sender]) >= _value, \"Your balance is frozen!\");\n        ERC223Token.balances[msg.sender] = SafeMath.sub(ERC223Token.balances[msg.sender], _value);\n        ERC223Token.balances[_to] = SafeMath.add(ERC223Token.balances[_to], _value);\n        if (Address.isContract(_to)) {\n            IERC223Recipient(_to).tokenFallback(msg.sender, _value, _empty);\n        }\n        emit Transfer(msg.sender, _to, _value);\n        return true;\n    }\n\n    function transfer(address _to, uint256 _value, bytes calldata _data) public override returns (bool success) {\n        require(SafeMath.sub(balances[msg.sender], frozen[msg.sender]) >= _value, \"Your balance is frozen!\");\n        ERC223Token.balances[msg.sender] = SafeMath.sub(ERC223Token.balances[msg.sender], _value);\n        ERC223Token.balances[_to] = SafeMath.add(ERC223Token.balances[_to], _value);\n        if (Address.isContract(_to)) {\n            IERC223Recipient(_to).tokenFallback(msg.sender, _value, _data);\n        }\n        emit Transfer(msg.sender, _to, _value);\n        return true;\n    }\n\n}",
  "sourcePath": "/home/fabian/Documents/02_Uni/TU-Wien/Smart_Contracts/FinalProject/e12140504/contracts/DAOToken.sol",
  "compiler": {
    "name": "solc",
    "version": "0.8.15+commit.e14f2714.Emscripten.clang"
  },
  "schemaVersion": "3.4.7",
  "updatedAt": "2022-06-23T13:04:35.120Z",
  "networkType": "ethereum",
  "devdoc": {
    "kind": "dev",
    "methods": {
      "getRoleAdmin(bytes32)": {
        "details": "Returns the admin role that controls `role`. See {grantRole} and {revokeRole}. To change a role's admin, use {_setRoleAdmin}."
      },
      "grantRole(bytes32,address)": {
        "details": "Grants `role` to `account`. If `account` had not been already granted `role`, emits a {RoleGranted} event. Requirements: - the caller must have ``role``'s admin role."
      },
      "hasRole(bytes32,address)": {
        "details": "Returns `true` if `account` has been granted `role`."
      },
      "renounceRole(bytes32,address)": {
        "details": "Revokes `role` from the calling account. Roles are often managed via {grantRole} and {revokeRole}: this function's purpose is to provide a mechanism for accounts to lose their privileges if they are compromised (such as when a trusted device is misplaced). If the calling account had been revoked `role`, emits a {RoleRevoked} event. Requirements: - the caller must be `account`."
      },
      "revokeRole(bytes32,address)": {
        "details": "Revokes `role` from `account`. If `account` had been granted `role`, emits a {RoleRevoked} event. Requirements: - the caller must have ``role``'s admin role."
      },
      "supportsInterface(bytes4)": {
        "details": "See {IERC165-supportsInterface}."
      }
    },
    "version": 1
  },
  "userdoc": {
    "kind": "user",
    "methods": {},
    "version": 1
  }
}