{
  "contractName": "ERC223Token",
  "abi": [
    {
      "inputs": [
        {
          "internalType": "string",
          "name": "Name",
          "type": "string"
        },
        {
          "internalType": "string",
          "name": "Symbol",
          "type": "string"
        },
        {
          "internalType": "uint8",
          "name": "Decimals",
          "type": "uint8"
        }
      ],
      "stateMutability": "nonpayable",
      "type": "constructor"
    },
    {
      "anonymous": false,
      "inputs": [
        {
          "indexed": true,
          "internalType": "bytes32",
          "name": "role",
          "type": "bytes32"
        },
        {
          "indexed": true,
          "internalType": "bytes32",
          "name": "previousAdminRole",
          "type": "bytes32"
        },
        {
          "indexed": true,
          "internalType": "bytes32",
          "name": "newAdminRole",
          "type": "bytes32"
        }
      ],
      "name": "RoleAdminChanged",
      "type": "event"
    },
    {
      "anonymous": false,
      "inputs": [
        {
          "indexed": true,
          "internalType": "bytes32",
          "name": "role",
          "type": "bytes32"
        },
        {
          "indexed": true,
          "internalType": "address",
          "name": "account",
          "type": "address"
        },
        {
          "indexed": true,
          "internalType": "address",
          "name": "sender",
          "type": "address"
        }
      ],
      "name": "RoleGranted",
      "type": "event"
    },
    {
      "anonymous": false,
      "inputs": [
        {
          "indexed": true,
          "internalType": "bytes32",
          "name": "role",
          "type": "bytes32"
        },
        {
          "indexed": true,
          "internalType": "address",
          "name": "account",
          "type": "address"
        },
        {
          "indexed": true,
          "internalType": "address",
          "name": "sender",
          "type": "address"
        }
      ],
      "name": "RoleRevoked",
      "type": "event"
    },
    {
      "anonymous": false,
      "inputs": [
        {
          "indexed": true,
          "internalType": "address",
          "name": "from",
          "type": "address"
        },
        {
          "indexed": true,
          "internalType": "address",
          "name": "to",
          "type": "address"
        },
        {
          "indexed": false,
          "internalType": "uint256",
          "name": "value",
          "type": "uint256"
        }
      ],
      "name": "Transfer",
      "type": "event"
    },
    {
      "inputs": [],
      "name": "DEFAULT_ADMIN_ROLE",
      "outputs": [
        {
          "internalType": "bytes32",
          "name": "",
          "type": "bytes32"
        }
      ],
      "stateMutability": "view",
      "type": "function"
    },
    {
      "inputs": [],
      "name": "OWNER",
      "outputs": [
        {
          "internalType": "bytes32",
          "name": "",
          "type": "bytes32"
        }
      ],
      "stateMutability": "view",
      "type": "function"
    },
    {
      "inputs": [
        {
          "internalType": "address",
          "name": "",
          "type": "address"
        }
      ],
      "name": "balances",
      "outputs": [
        {
          "internalType": "uint256",
          "name": "",
          "type": "uint256"
        }
      ],
      "stateMutability": "view",
      "type": "function"
    },
    {
      "inputs": [
        {
          "internalType": "bytes32",
          "name": "role",
          "type": "bytes32"
        }
      ],
      "name": "getRoleAdmin",
      "outputs": [
        {
          "internalType": "bytes32",
          "name": "",
          "type": "bytes32"
        }
      ],
      "stateMutability": "view",
      "type": "function"
    },
    {
      "inputs": [
        {
          "internalType": "bytes32",
          "name": "role",
          "type": "bytes32"
        },
        {
          "internalType": "address",
          "name": "account",
          "type": "address"
        }
      ],
      "name": "grantRole",
      "outputs": [],
      "stateMutability": "nonpayable",
      "type": "function"
    },
    {
      "inputs": [
        {
          "internalType": "bytes32",
          "name": "role",
          "type": "bytes32"
        },
        {
          "internalType": "address",
          "name": "account",
          "type": "address"
        }
      ],
      "name": "hasRole",
      "outputs": [
        {
          "internalType": "bool",
          "name": "",
          "type": "bool"
        }
      ],
      "stateMutability": "view",
      "type": "function"
    },
    {
      "inputs": [
        {
          "internalType": "bytes32",
          "name": "role",
          "type": "bytes32"
        },
        {
          "internalType": "address",
          "name": "account",
          "type": "address"
        }
      ],
      "name": "renounceRole",
      "outputs": [],
      "stateMutability": "nonpayable",
      "type": "function"
    },
    {
      "inputs": [
        {
          "internalType": "bytes32",
          "name": "role",
          "type": "bytes32"
        },
        {
          "internalType": "address",
          "name": "account",
          "type": "address"
        }
      ],
      "name": "revokeRole",
      "outputs": [],
      "stateMutability": "nonpayable",
      "type": "function"
    },
    {
      "inputs": [
        {
          "internalType": "bytes4",
          "name": "interfaceId",
          "type": "bytes4"
        }
      ],
      "name": "supportsInterface",
      "outputs": [
        {
          "internalType": "bool",
          "name": "",
          "type": "bool"
        }
      ],
      "stateMutability": "view",
      "type": "function"
    },
    {
      "inputs": [],
      "name": "standard",
      "outputs": [
        {
          "internalType": "string",
          "name": "",
          "type": "string"
        }
      ],
      "stateMutability": "pure",
      "type": "function"
    },
    {
      "inputs": [],
      "name": "name",
      "outputs": [
        {
          "internalType": "string",
          "name": "",
          "type": "string"
        }
      ],
      "stateMutability": "view",
      "type": "function"
    },
    {
      "inputs": [],
      "name": "symbol",
      "outputs": [
        {
          "internalType": "string",
          "name": "",
          "type": "string"
        }
      ],
      "stateMutability": "view",
      "type": "function"
    },
    {
      "inputs": [],
      "name": "decimals",
      "outputs": [
        {
          "internalType": "uint8",
          "name": "",
          "type": "uint8"
        }
      ],
      "stateMutability": "view",
      "type": "function"
    },
    {
      "inputs": [],
      "name": "totalSupply",
      "outputs": [
        {
          "internalType": "uint256",
          "name": "",
          "type": "uint256"
        }
      ],
      "stateMutability": "view",
      "type": "function"
    },
    {
      "inputs": [
        {
          "internalType": "address",
          "name": "owner",
          "type": "address"
        }
      ],
      "name": "balanceOf",
      "outputs": [
        {
          "internalType": "uint256",
          "name": "",
          "type": "uint256"
        }
      ],
      "stateMutability": "view",
      "type": "function"
    },
    {
      "inputs": [
        {
          "internalType": "address",
          "name": "_to",
          "type": "address"
        },
        {
          "internalType": "uint256",
          "name": "_value",
          "type": "uint256"
        }
      ],
      "name": "transfer",
      "outputs": [
        {
          "internalType": "bool",
          "name": "success",
          "type": "bool"
        }
      ],
      "stateMutability": "nonpayable",
      "type": "function"
    },
    {
      "inputs": [
        {
          "internalType": "address",
          "name": "_to",
          "type": "address"
        },
        {
          "internalType": "uint256",
          "name": "_value",
          "type": "uint256"
        },
        {
          "internalType": "bytes",
          "name": "_data",
          "type": "bytes"
        }
      ],
      "name": "transfer",
      "outputs": [
        {
          "internalType": "bool",
          "name": "success",
          "type": "bool"
        }
      ],
      "stateMutability": "nonpayable",
      "type": "function"
    },
    {
      "inputs": [
        {
          "internalType": "address",
          "name": "account",
          "type": "address"
        },
        {
          "internalType": "uint256",
          "name": "value",
          "type": "uint256"
        }
      ],
      "name": "mint",
      "outputs": [
        {
          "internalType": "bool",
          "name": "success",
          "type": "bool"
        }
      ],
      "stateMutability": "nonpayable",
      "type": "function"
    },
    {
      "inputs": [
        {
          "internalType": "uint256",
          "name": "value",
          "type": "uint256"
        }
      ],
      "name": "burn",
      "outputs": [],
      "stateMutability": "nonpayable",
      "type": "function"
    }
  ],
  "bytecode": "0x60806040523480156200001157600080fd5b506040516200238b3803806200238b8339818101604052810190620000379190620004ae565b82600190805190602001906200004f92919062000223565b5081600290805190602001906200006892919062000223565b5080600360006101000a81548160ff021916908360ff1602179055506000600481905550620000a16000801b33620000aa60201b60201c565b505050620005ac565b620000bc8282620000c060201b60201c565b5050565b620000d28282620001b160201b60201c565b620001ad57600160008084815260200190815260200160002060000160008373ffffffffffffffffffffffffffffffffffffffff1673ffffffffffffffffffffffffffffffffffffffff16815260200190815260200160002060006101000a81548160ff021916908315150217905550620001526200021b60201b60201c565b73ffffffffffffffffffffffffffffffffffffffff168173ffffffffffffffffffffffffffffffffffffffff16837f2f8788117e7eff1d82e926ec794901d17c78024a50270940304540a733656f0d60405160405180910390a45b5050565b600080600084815260200190815260200160002060000160008373ffffffffffffffffffffffffffffffffffffffff1673ffffffffffffffffffffffffffffffffffffffff16815260200190815260200160002060009054906101000a900460ff16905092915050565b600033905090565b828054620002319062000577565b90600052602060002090601f016020900481019282620002555760008555620002a1565b82601f106200027057805160ff1916838001178555620002a1565b82800160010185558215620002a1579182015b82811115620002a057825182559160200191906001019062000283565b5b509050620002b09190620002b4565b5090565b5b80821115620002cf576000816000905550600101620002b5565b5090565b6000604051905090565b600080fd5b600080fd5b600080fd5b600080fd5b6000601f19601f8301169050919050565b7f4e487b7100000000000000000000000000000000000000000000000000000000600052604160045260246000fd5b6200033c82620002f1565b810181811067ffffffffffffffff821117156200035e576200035d62000302565b5b80604052505050565b600062000373620002d3565b905062000381828262000331565b919050565b600067ffffffffffffffff821115620003a457620003a362000302565b5b620003af82620002f1565b9050602081019050919050565b60005b83811015620003dc578082015181840152602081019050620003bf565b83811115620003ec576000848401525b50505050565b600062000409620004038462000386565b62000367565b905082815260208101848484011115620004285762000427620002ec565b5b62000435848285620003bc565b509392505050565b600082601f830112620004555762000454620002e7565b5b815162000467848260208601620003f2565b91505092915050565b600060ff82169050919050565b620004888162000470565b81146200049457600080fd5b50565b600081519050620004a8816200047d565b92915050565b600080600060608486031215620004ca57620004c9620002dd565b5b600084015167ffffffffffffffff811115620004eb57620004ea620002e2565b5b620004f9868287016200043d565b935050602084015167ffffffffffffffff8111156200051d576200051c620002e2565b5b6200052b868287016200043d565b92505060406200053e8682870162000497565b9150509250925092565b7f4e487b7100000000000000000000000000000000000000000000000000000000600052602260045260246000fd5b600060028204905060018216806200059057607f821691505b602082108103620005a657620005a562000548565b5b50919050565b611dcf80620005bc6000396000f3fe608060405234801561001057600080fd5b50600436106101215760003560e01c806340c10f19116100ad57806395d89b411161007157806395d89b4114610330578063a217fddf1461034e578063a9059cbb1461036c578063be45fd621461039c578063d547741f146103cc57610121565b806340c10f191461026657806342966c68146102965780635a3b7e42146102b257806370a08231146102d057806391d148541461030057610121565b8063248a9ca3116100f4578063248a9ca3146101b057806327e235e3146101e05780632f2ff15d14610210578063313ce5671461022c57806336568abe1461024a57610121565b806301ffc9a71461012657806306fdde0314610156578063117803e31461017457806318160ddd14610192575b600080fd5b610140600480360381019061013b9190611422565b6103e8565b60405161014d919061146a565b60405180910390f35b61015e610462565b60405161016b919061151e565b60405180910390f35b61017c6104f4565b6040516101899190611559565b60405180910390f35b61019a610518565b6040516101a7919061158d565b60405180910390f35b6101ca60048036038101906101c591906115d4565b610522565b6040516101d79190611559565b60405180910390f35b6101fa60048036038101906101f5919061165f565b610541565b604051610207919061158d565b60405180910390f35b61022a6004803603810190610225919061168c565b610559565b005b61023461057a565b60405161024191906116e8565b60405180910390f35b610264600480360381019061025f919061168c565b610591565b005b610280600480360381019061027b919061172f565b610614565b60405161028d919061146a565b60405180910390f35b6102b060048036038101906102ab919061176f565b610788565b005b6102ba61088f565b6040516102c7919061151e565b60405180910390f35b6102ea60048036038101906102e5919061165f565b6108cc565b6040516102f7919061158d565b60405180910390f35b61031a6004803603810190610315919061168c565b610915565b604051610327919061146a565b60405180910390f35b61033861097f565b604051610345919061151e565b60405180910390f35b610356610a11565b6040516103639190611559565b60405180910390f35b6103866004803603810190610381919061172f565b610a18565b604051610393919061146a565b60405180910390f35b6103b660048036038101906103b19190611801565b610c35565b6040516103c3919061146a565b60405180910390f35b6103e660048036038101906103e1919061168c565b610e40565b005b60007f7965db0b000000000000000000000000000000000000000000000000000000007bffffffffffffffffffffffffffffffffffffffffffffffffffffffff1916827bffffffffffffffffffffffffffffffffffffffffffffffffffffffff1916148061045b575061045a82610e61565b5b9050919050565b606060018054610471906118a4565b80601f016020809104026020016040519081016040528092919081815260200182805461049d906118a4565b80156104ea5780601f106104bf576101008083540402835291602001916104ea565b820191906000526020600020905b8154815290600101906020018083116104cd57829003601f168201915b5050505050905090565b7f6270edb7c868f86fda4adedba75108201087268ea345934db8bad688e1feb91b81565b6000600454905090565b6000806000838152602001908152602001600020600101549050919050565b60056020528060005260406000206000915090505481565b61056282610522565b61056b81610ecb565b6105758383610edf565b505050565b6000600360009054906101000a900460ff16905090565b610599610fbf565b73ffffffffffffffffffffffffffffffffffffffff168173ffffffffffffffffffffffffffffffffffffffff1614610606576040517f08c379a00000000000000000000000000000000000000000000000000000000081526004016105fd90611947565b60405180910390fd5b6106108282610fc7565b5050565b60007f6270edb7c868f86fda4adedba75108201087268ea345934db8bad688e1feb91b61064081610ecb565b600073ffffffffffffffffffffffffffffffffffffffff168473ffffffffffffffffffffffffffffffffffffffff160361067957600080fd5b610685600454846110a8565b6004819055506106d4600560008673ffffffffffffffffffffffffffffffffffffffff1673ffffffffffffffffffffffffffffffffffffffff16815260200190815260200160002054846110a8565b600560008673ffffffffffffffffffffffffffffffffffffffff1673ffffffffffffffffffffffffffffffffffffffff168152602001908152602001600020819055508373ffffffffffffffffffffffffffffffffffffffff16600073ffffffffffffffffffffffffffffffffffffffff167fddf252ad1be2c89b69c2b068fc378daa952ba7f163c4a11628f55a4df523b3ef85604051610775919061158d565b60405180910390a3600191505092915050565b610794600454826110be565b6004819055506107e3600560003373ffffffffffffffffffffffffffffffffffffffff1673ffffffffffffffffffffffffffffffffffffffff16815260200190815260200160002054826110be565b600560003373ffffffffffffffffffffffffffffffffffffffff1673ffffffffffffffffffffffffffffffffffffffff16815260200190815260200160002081905550600073ffffffffffffffffffffffffffffffffffffffff163373ffffffffffffffffffffffffffffffffffffffff167fddf252ad1be2c89b69c2b068fc378daa952ba7f163c4a11628f55a4df523b3ef83604051610884919061158d565b60405180910390a350565b60606040518060400160405280600681526020017f6572633232330000000000000000000000000000000000000000000000000000815250905090565b6000600560008373ffffffffffffffffffffffffffffffffffffffff1673ffffffffffffffffffffffffffffffffffffffff168152602001908152602001600020549050919050565b600080600084815260200190815260200160002060000160008373ffffffffffffffffffffffffffffffffffffffff1673ffffffffffffffffffffffffffffffffffffffff16815260200190815260200160002060009054906101000a900460ff16905092915050565b60606002805461098e906118a4565b80601f01602080910402602001604051908101604052809291908181526020018280546109ba906118a4565b8015610a075780601f106109dc57610100808354040283529160200191610a07565b820191906000526020600020905b8154815290600101906020018083116109ea57829003601f168201915b5050505050905090565b6000801b81565b6000610a63600560003373ffffffffffffffffffffffffffffffffffffffff1673ffffffffffffffffffffffffffffffffffffffff16815260200190815260200160002054836110be565b600560003373ffffffffffffffffffffffffffffffffffffffff1673ffffffffffffffffffffffffffffffffffffffff16815260200190815260200160002081905550610aef600560008573ffffffffffffffffffffffffffffffffffffffff1673ffffffffffffffffffffffffffffffffffffffff16815260200190815260200160002054836110a8565b600560008573ffffffffffffffffffffffffffffffffffffffff1673ffffffffffffffffffffffffffffffffffffffff16815260200190815260200160002081905550610b3b836110d4565b15610bc6578273ffffffffffffffffffffffffffffffffffffffff1663c0ee0b8a338460405180604001604052806004815260200160008152506040518463ffffffff1660e01b8152600401610b93939291906119cb565b600060405180830381600087803b158015610bad57600080fd5b505af1158015610bc1573d6000803e3d6000fd5b505050505b8273ffffffffffffffffffffffffffffffffffffffff163373ffffffffffffffffffffffffffffffffffffffff167fddf252ad1be2c89b69c2b068fc378daa952ba7f163c4a11628f55a4df523b3ef84604051610c23919061158d565b60405180910390a36001905092915050565b6000610c80600560003373ffffffffffffffffffffffffffffffffffffffff1673ffffffffffffffffffffffffffffffffffffffff16815260200190815260200160002054856110be565b600560003373ffffffffffffffffffffffffffffffffffffffff1673ffffffffffffffffffffffffffffffffffffffff16815260200190815260200160002081905550610d0c600560008773ffffffffffffffffffffffffffffffffffffffff1673ffffffffffffffffffffffffffffffffffffffff16815260200190815260200160002054856110a8565b600560008773ffffffffffffffffffffffffffffffffffffffff1673ffffffffffffffffffffffffffffffffffffffff16815260200190815260200160002081905550610d58856110d4565b15610dcf578473ffffffffffffffffffffffffffffffffffffffff1663c0ee0b8a338686866040518563ffffffff1660e01b8152600401610d9c9493929190611a45565b600060405180830381600087803b158015610db657600080fd5b505af1158015610dca573d6000803e3d6000fd5b505050505b8473ffffffffffffffffffffffffffffffffffffffff163373ffffffffffffffffffffffffffffffffffffffff167fddf252ad1be2c89b69c2b068fc378daa952ba7f163c4a11628f55a4df523b3ef86604051610e2c919061158d565b60405180910390a360019050949350505050565b610e4982610522565b610e5281610ecb565b610e5c8383610fc7565b505050565b60007f01ffc9a7000000000000000000000000000000000000000000000000000000007bffffffffffffffffffffffffffffffffffffffffffffffffffffffff1916827bffffffffffffffffffffffffffffffffffffffffffffffffffffffff1916149050919050565b610edc81610ed7610fbf565b6110e7565b50565b610ee98282610915565b610fbb57600160008084815260200190815260200160002060000160008373ffffffffffffffffffffffffffffffffffffffff1673ffffffffffffffffffffffffffffffffffffffff16815260200190815260200160002060006101000a81548160ff021916908315150217905550610f60610fbf565b73ffffffffffffffffffffffffffffffffffffffff168173ffffffffffffffffffffffffffffffffffffffff16837f2f8788117e7eff1d82e926ec794901d17c78024a50270940304540a733656f0d60405160405180910390a45b5050565b600033905090565b610fd18282610915565b156110a457600080600084815260200190815260200160002060000160008373ffffffffffffffffffffffffffffffffffffffff1673ffffffffffffffffffffffffffffffffffffffff16815260200190815260200160002060006101000a81548160ff021916908315150217905550611049610fbf565b73ffffffffffffffffffffffffffffffffffffffff168173ffffffffffffffffffffffffffffffffffffffff16837ff6391f5c32d9c69d2a47ea670b442974b53935d1edc7fd64eb21e047a839171b60405160405180910390a45b5050565b600081836110b69190611ab4565b905092915050565b600081836110cc9190611b0a565b905092915050565b600080823b905060008111915050919050565b6110f18282610915565b611180576111168173ffffffffffffffffffffffffffffffffffffffff166014611184565b6111248360001c6020611184565b604051602001611135929190611c12565b6040516020818303038152906040526040517f08c379a0000000000000000000000000000000000000000000000000000000008152600401611177919061151e565b60405180910390fd5b5050565b6060600060028360026111979190611c4c565b6111a19190611ab4565b67ffffffffffffffff8111156111ba576111b9611ca6565b5b6040519080825280601f01601f1916602001820160405280156111ec5781602001600182028036833780820191505090505b5090507f30000000000000000000000000000000000000000000000000000000000000008160008151811061122457611223611cd5565b5b60200101907effffffffffffffffffffffffffffffffffffffffffffffffffffffffffffff1916908160001a9053507f78000000000000000000000000000000000000000000000000000000000000008160018151811061128857611287611cd5565b5b60200101907effffffffffffffffffffffffffffffffffffffffffffffffffffffffffffff1916908160001a905350600060018460026112c89190611c4c565b6112d29190611ab4565b90505b6001811115611372577f3031323334353637383961626364656600000000000000000000000000000000600f86166010811061131457611313611cd5565b5b1a60f81b82828151811061132b5761132a611cd5565b5b60200101907effffffffffffffffffffffffffffffffffffffffffffffffffffffffffffff1916908160001a905350600485901c94508061136b90611d04565b90506112d5565b50600084146113b6576040517f08c379a00000000000000000000000000000000000000000000000000000000081526004016113ad90611d79565b60405180910390fd5b8091505092915050565b600080fd5b600080fd5b60007fffffffff0000000000000000000000000000000000000000000000000000000082169050919050565b6113ff816113ca565b811461140a57600080fd5b50565b60008135905061141c816113f6565b92915050565b600060208284031215611438576114376113c0565b5b60006114468482850161140d565b91505092915050565b60008115159050919050565b6114648161144f565b82525050565b600060208201905061147f600083018461145b565b92915050565b600081519050919050565b600082825260208201905092915050565b60005b838110156114bf5780820151818401526020810190506114a4565b838111156114ce576000848401525b50505050565b6000601f19601f8301169050919050565b60006114f082611485565b6114fa8185611490565b935061150a8185602086016114a1565b611513816114d4565b840191505092915050565b6000602082019050818103600083015261153881846114e5565b905092915050565b6000819050919050565b61155381611540565b82525050565b600060208201905061156e600083018461154a565b92915050565b6000819050919050565b61158781611574565b82525050565b60006020820190506115a2600083018461157e565b92915050565b6115b181611540565b81146115bc57600080fd5b50565b6000813590506115ce816115a8565b92915050565b6000602082840312156115ea576115e96113c0565b5b60006115f8848285016115bf565b91505092915050565b600073ffffffffffffffffffffffffffffffffffffffff82169050919050565b600061162c82611601565b9050919050565b61163c81611621565b811461164757600080fd5b50565b60008135905061165981611633565b92915050565b600060208284031215611675576116746113c0565b5b60006116838482850161164a565b91505092915050565b600080604083850312156116a3576116a26113c0565b5b60006116b1858286016115bf565b92505060206116c28582860161164a565b9150509250929050565b600060ff82169050919050565b6116e2816116cc565b82525050565b60006020820190506116fd60008301846116d9565b92915050565b61170c81611574565b811461171757600080fd5b50565b60008135905061172981611703565b92915050565b60008060408385031215611746576117456113c0565b5b60006117548582860161164a565b92505060206117658582860161171a565b9150509250929050565b600060208284031215611785576117846113c0565b5b60006117938482850161171a565b91505092915050565b600080fd5b600080fd5b600080fd5b60008083601f8401126117c1576117c061179c565b5b8235905067ffffffffffffffff8111156117de576117dd6117a1565b5b6020830191508360018202830111156117fa576117f96117a6565b5b9250929050565b6000806000806060858703121561181b5761181a6113c0565b5b60006118298782880161164a565b945050602061183a8782880161171a565b935050604085013567ffffffffffffffff81111561185b5761185a6113c5565b5b611867878288016117ab565b925092505092959194509250565b7f4e487b7100000000000000000000000000000000000000000000000000000000600052602260045260246000fd5b600060028204905060018216806118bc57607f821691505b6020821081036118cf576118ce611875565b5b50919050565b7f416363657373436f6e74726f6c3a2063616e206f6e6c792072656e6f756e636560008201527f20726f6c657320666f722073656c660000000000000000000000000000000000602082015250565b6000611931602f83611490565b915061193c826118d5565b604082019050919050565b6000602082019050818103600083015261196081611924565b9050919050565b61197081611621565b82525050565b600081519050919050565b600082825260208201905092915050565b600061199d82611976565b6119a78185611981565b93506119b78185602086016114a1565b6119c0816114d4565b840191505092915050565b60006060820190506119e06000830186611967565b6119ed602083018561157e565b81810360408301526119ff8184611992565b9050949350505050565b82818337600083830152505050565b6000611a248385611981565b9350611a31838584611a09565b611a3a836114d4565b840190509392505050565b6000606082019050611a5a6000830187611967565b611a67602083018661157e565b8181036040830152611a7a818486611a18565b905095945050505050565b7f4e487b7100000000000000000000000000000000000000000000000000000000600052601160045260246000fd5b6000611abf82611574565b9150611aca83611574565b9250827fffffffffffffffffffffffffffffffffffffffffffffffffffffffffffffffff03821115611aff57611afe611a85565b5b828201905092915050565b6000611b1582611574565b9150611b2083611574565b925082821015611b3357611b32611a85565b5b828203905092915050565b600081905092915050565b7f416363657373436f6e74726f6c3a206163636f756e7420000000000000000000600082015250565b6000611b7f601783611b3e565b9150611b8a82611b49565b601782019050919050565b6000611ba082611485565b611baa8185611b3e565b9350611bba8185602086016114a1565b80840191505092915050565b7f206973206d697373696e6720726f6c6520000000000000000000000000000000600082015250565b6000611bfc601183611b3e565b9150611c0782611bc6565b601182019050919050565b6000611c1d82611b72565b9150611c298285611b95565b9150611c3482611bef565b9150611c408284611b95565b91508190509392505050565b6000611c5782611574565b9150611c6283611574565b9250817fffffffffffffffffffffffffffffffffffffffffffffffffffffffffffffffff0483118215151615611c9b57611c9a611a85565b5b828202905092915050565b7f4e487b7100000000000000000000000000000000000000000000000000000000600052604160045260246000fd5b7f4e487b7100000000000000000000000000000000000000000000000000000000600052603260045260246000fd5b6000611d0f82611574565b915060008203611d2257611d21611a85565b5b600182039050919050565b7f537472696e67733a20686578206c656e67746820696e73756666696369656e74600082015250565b6000611d63602083611490565b9150611d6e82611d2d565b602082019050919050565b60006020820190508181036000830152611d9281611d56565b905091905056fea2646970667358221220e931481f0efc09821ebe154e01677ae7ae51b9d314aa559de8db1a40f01fb2cf64736f6c634300080e0033",
  "immutableReferences": {},
  "source": "// SPDX-License-Identifier: MIT\n\n/*\n* Standard ERC223 Token implementation.\n*/\n\npragma solidity ^0.8.4;\n\nimport \"@openzeppelin/contracts/access/AccessControl.sol\";\nimport \"@openzeppelin/contracts/utils/math/SafeMath.sol\";\n\n// Standard ERC223 function that will handle incoming token transfers.\ninterface IERC223Recipient {\n    function tokenFallback(\n        address _from,\n        uint256 _value,\n        bytes calldata _data\n    ) external;\n}\n\n// Utility library of inline functions on addresses\nlibrary Address {\n   // Returns whether the target address is a contract\n   function isContract(address account) internal view returns (bool) {\n      uint256 size;\n      // solhint-disable-next-line no-inline-assembly\n      assembly {\n         size := extcodesize(account)\n      }\n      return size > 0;\n   }\n}\n\ncontract ERC223Token is AccessControl {\n\n   bytes32 public constant OWNER = keccak256(\"OWNER\");\n\n   string private _name;\n   string private _symbol;\n   uint8 private _decimals;\n   uint256 internal _totalSupply;\n   bytes constant _empty = hex\"00000000\";\n   mapping(address => uint256) public balances; //List of user balances\n   event Transfer(address indexed from, address indexed to, uint256 value);\n\n   constructor(string memory Name, string memory Symbol, uint8 Decimals) {\n      _name = Name;\n      _symbol = Symbol;\n      _decimals = Decimals;\n      _totalSupply = 0;\n      _setupRole(DEFAULT_ADMIN_ROLE, msg.sender);\n   }\n\n   // @dev ERC223 tokens must explicitly return.\n   function standard() public pure returns (string memory) {\n      return \"erc223\";\n   }\n\n   // @dev Returns the name of the token.\n   function name() public view returns (string memory) {\n      return _name;\n   }\n\n   // @dev Returns the symbol of the token, usually a shorter veriosn of the name.\n   function symbol() public view returns (string memory) {\n      return _symbol;\n   }\n\n   // @dev  Returns the number of decimals used to get its user representation.\n   // E.g. if decimals=2, a balance of `505` tokens should be displayed to a user as `5,05` (`505 / 10^decimals`)\n   function decimals() public view returns (uint8) {\n      return _decimals;\n   }\n\n   // @dev Returns total supply of the token.\n   function totalSupply() public view returns (uint256) {\n      return _totalSupply;\n   }\n\n   // @dev Returns balance of the owner.\n   function balanceOf(address owner) public view returns (uint256) {\n      return balances[owner];\n   }\n\n   function transfer(address _to, uint256 _value) public virtual returns (bool success){\n        // Standard function transfer similar to ERC20 transfer with no _data .\n        // Added due to backwards compatibility reasons .\n        balances[msg.sender] = SafeMath.sub(balances[msg.sender], _value);\n        balances[_to] = SafeMath.add(balances[_to], _value);\n        if (Address.isContract(_to)) {\n            IERC223Recipient(_to).tokenFallback(msg.sender, _value, _empty);\n        }\n        emit Transfer(msg.sender, _to, _value);\n        return true;\n    }\n\n    function transfer(address _to, uint256 _value, bytes calldata _data) public virtual returns (bool success) {\n        balances[msg.sender] = SafeMath.sub(balances[msg.sender], _value);\n        balances[_to] = SafeMath.add(balances[_to], _value);\n        if (Address.isContract(_to)) {\n            IERC223Recipient(_to).tokenFallback(msg.sender, _value, _data);\n        }\n        emit Transfer(msg.sender, _to, _value);\n        return true;\n    }\n\n    function mint(address account, uint256 value) public onlyRole(OWNER) returns (bool success) {\n        require(account != address(0));\n        _totalSupply = SafeMath.add(_totalSupply, (value));\n        balances[account] = SafeMath.add(balances[account], (value));\n        emit Transfer(address(0), account, value);\n        return true;\n    }\n\n   function burn(uint256 value) public {\n        _totalSupply = SafeMath.sub(_totalSupply, (value));\n        balances[msg.sender] = SafeMath.sub(balances[msg.sender], (value));\n        emit Transfer(msg.sender, address(0), value);\n    }\n}\n",
  "sourcePath": "/home/fabian/Documents/02_Uni/TU-Wien/Smart_Contracts/FinalProject/e12140504/contracts/ERC223Token.sol",
  "compiler": {
    "name": "solc",
    "version": "0.8.14+commit.80d49f37.Emscripten.clang"
  },
  "schemaVersion": "3.4.7",
  "updatedAt": "2022-06-14T08:49:34.901Z",
  "devdoc": {
    "kind": "dev",
    "methods": {
      "getRoleAdmin(bytes32)": {
        "details": "Returns the admin role that controls `role`. See {grantRole} and {revokeRole}. To change a role's admin, use {_setRoleAdmin}."
      },
      "grantRole(bytes32,address)": {
        "details": "Grants `role` to `account`. If `account` had not been already granted `role`, emits a {RoleGranted} event. Requirements: - the caller must have ``role``'s admin role."
      },
      "hasRole(bytes32,address)": {
        "details": "Returns `true` if `account` has been granted `role`."
      },
      "renounceRole(bytes32,address)": {
        "details": "Revokes `role` from the calling account. Roles are often managed via {grantRole} and {revokeRole}: this function's purpose is to provide a mechanism for accounts to lose their privileges if they are compromised (such as when a trusted device is misplaced). If the calling account had been revoked `role`, emits a {RoleRevoked} event. Requirements: - the caller must be `account`."
      },
      "revokeRole(bytes32,address)": {
        "details": "Revokes `role` from `account`. If `account` had been granted `role`, emits a {RoleRevoked} event. Requirements: - the caller must have ``role``'s admin role."
      },
      "supportsInterface(bytes4)": {
        "details": "See {IERC165-supportsInterface}."
      }
    },
    "version": 1
  },
  "userdoc": {
    "kind": "user",
    "methods": {},
    "version": 1
  }
}