{
  "contractName": "ICO_DAOToken",
  "abi": [
    {
      "inputs": [
        {
          "internalType": "address",
          "name": "_address",
          "type": "address"
        }
      ],
      "stateMutability": "payable",
      "type": "constructor",
      "payable": true
    },
    {
      "anonymous": false,
      "inputs": [
        {
          "indexed": true,
          "internalType": "address",
          "name": "to",
          "type": "address"
        },
        {
          "indexed": false,
          "internalType": "uint256",
          "name": "amount",
          "type": "uint256"
        }
      ],
      "name": "Buy",
      "type": "event"
    },
    {
      "anonymous": false,
      "inputs": [
        {
          "indexed": true,
          "internalType": "address",
          "name": "previousOwner",
          "type": "address"
        },
        {
          "indexed": true,
          "internalType": "address",
          "name": "newOwner",
          "type": "address"
        }
      ],
      "name": "OwnershipTransferred",
      "type": "event"
    },
    {
      "inputs": [],
      "name": "DAOTokenContract",
      "outputs": [
        {
          "internalType": "contract DAOToken",
          "name": "",
          "type": "address"
        }
      ],
      "stateMutability": "view",
      "type": "function",
      "constant": true
    },
    {
      "inputs": [],
      "name": "ICO2_TOKEN_SUPPLY_LIMIT",
      "outputs": [
        {
          "internalType": "uint16",
          "name": "",
          "type": "uint16"
        }
      ],
      "stateMutability": "view",
      "type": "function",
      "constant": true
    },
    {
      "inputs": [],
      "name": "ICO_PRICE1",
      "outputs": [
        {
          "internalType": "uint8",
          "name": "",
          "type": "uint8"
        }
      ],
      "stateMutability": "view",
      "type": "function",
      "constant": true
    },
    {
      "inputs": [],
      "name": "ICO_PRICE2",
      "outputs": [
        {
          "internalType": "uint8",
          "name": "",
          "type": "uint8"
        }
      ],
      "stateMutability": "view",
      "type": "function",
      "constant": true
    },
    {
      "inputs": [],
      "name": "ICO_TOKEN_SUPPLY_LIMIT",
      "outputs": [
        {
          "internalType": "uint16",
          "name": "",
          "type": "uint16"
        }
      ],
      "stateMutability": "view",
      "type": "function",
      "constant": true
    },
    {
      "inputs": [],
      "name": "PRESALE_PRICE",
      "outputs": [
        {
          "internalType": "uint8",
          "name": "",
          "type": "uint8"
        }
      ],
      "stateMutability": "view",
      "type": "function",
      "constant": true
    },
    {
      "inputs": [],
      "name": "PRESALE_TOKEN_SUPPLY_LIMIT",
      "outputs": [
        {
          "internalType": "uint16",
          "name": "",
          "type": "uint16"
        }
      ],
      "stateMutability": "view",
      "type": "function",
      "constant": true
    },
    {
      "inputs": [],
      "name": "_totalSupply",
      "outputs": [
        {
          "internalType": "uint256",
          "name": "",
          "type": "uint256"
        }
      ],
      "stateMutability": "view",
      "type": "function",
      "constant": true
    },
    {
      "inputs": [],
      "name": "inProcess",
      "outputs": [
        {
          "internalType": "bool",
          "name": "",
          "type": "bool"
        }
      ],
      "stateMutability": "view",
      "type": "function",
      "constant": true
    },
    {
      "inputs": [],
      "name": "owner",
      "outputs": [
        {
          "internalType": "address",
          "name": "",
          "type": "address"
        }
      ],
      "stateMutability": "view",
      "type": "function",
      "constant": true
    },
    {
      "inputs": [],
      "name": "price",
      "outputs": [
        {
          "internalType": "uint8",
          "name": "",
          "type": "uint8"
        }
      ],
      "stateMutability": "view",
      "type": "function",
      "constant": true
    },
    {
      "inputs": [],
      "name": "renounceOwnership",
      "outputs": [],
      "stateMutability": "nonpayable",
      "type": "function"
    },
    {
      "inputs": [
        {
          "internalType": "address",
          "name": "newOwner",
          "type": "address"
        }
      ],
      "name": "transferOwnership",
      "outputs": [],
      "stateMutability": "nonpayable",
      "type": "function"
    },
    {
      "stateMutability": "payable",
      "type": "receive",
      "payable": true
    },
    {
      "inputs": [],
      "name": "startICO",
      "outputs": [],
      "stateMutability": "nonpayable",
      "type": "function"
    },
    {
      "inputs": [],
      "name": "stopICO",
      "outputs": [],
      "stateMutability": "nonpayable",
      "type": "function"
    },
    {
      "inputs": [],
      "name": "buy",
      "outputs": [
        {
          "internalType": "bool",
          "name": "success",
          "type": "bool"
        }
      ],
      "stateMutability": "payable",
      "type": "function",
      "payable": true
    },
    {
      "inputs": [],
      "name": "getBuyPrice",
      "outputs": [
        {
          "internalType": "uint256",
          "name": "",
          "type": "uint256"
        }
      ],
      "stateMutability": "view",
      "type": "function",
      "constant": true
    },
    {
      "inputs": [
        {
          "internalType": "uint256",
          "name": "amount",
          "type": "uint256"
        }
      ],
      "name": "withdraw",
      "outputs": [
        {
          "internalType": "bool",
          "name": "success",
          "type": "bool"
        }
      ],
      "stateMutability": "nonpayable",
      "type": "function"
    }
  ],
  "bytecode": "0x6080604052611388600355600a600460006101000a81548160ff021916908360ff16021790555060405162001cb538038062001cb583398181016040528101906200004b919062000216565b60016000819055506200007362000067620000de60201b60201c565b620000e660201b60201c565b6001600260146101000a81548160ff02191690831515021790555080600260006101000a81548173ffffffffffffffffffffffffffffffffffffffff021916908373ffffffffffffffffffffffffffffffffffffffff16021790555060006005819055505062000248565b600033905090565b6000600160009054906101000a900473ffffffffffffffffffffffffffffffffffffffff16905081600160006101000a81548173ffffffffffffffffffffffffffffffffffffffff021916908373ffffffffffffffffffffffffffffffffffffffff1602179055508173ffffffffffffffffffffffffffffffffffffffff168173ffffffffffffffffffffffffffffffffffffffff167f8be0079c531659141344cd1fd0a4f28419497f9722a3daafe3b4186f6b6457e060405160405180910390a35050565b600080fd5b600073ffffffffffffffffffffffffffffffffffffffff82169050919050565b6000620001de82620001b1565b9050919050565b620001f081620001d1565b8114620001fc57600080fd5b50565b6000815190506200021081620001e5565b92915050565b6000602082840312156200022f576200022e620001ac565b5b60006200023f84828501620001ff565b91505092915050565b611a5d80620002586000396000f3fe60806040526004361061010d5760003560e01c806398e0fb0811610095578063c8e569a811610064578063c8e569a81461032d578063d69b153814610344578063e92e5f031461036f578063f2fde38b1461039a578063f88607e4146103c35761011c565b806398e0fb081461028e5780639989bdf1146102b9578063a035b1fe146102e4578063a6f2ae3a1461030f5761011c565b80636cb5291e116100dc5780636cb5291e146101df578063715018a61461020a5780637fa8c15814610221578063859e9266146102385780638da5cb5b146102635761011c565b8063018a25e8146101215780632e1a7d4d1461014c5780633eaaf86b1461018957806362dc6e21146101b45761011c565b3661011c5761011a6103ee565b005b600080fd5b34801561012d57600080fd5b50610136610761565b60405161014391906111a0565b60405180910390f35b34801561015857600080fd5b50610173600480360381019061016e91906111ec565b61077b565b6040516101809190611234565b60405180910390f35b34801561019557600080fd5b5061019e6108b8565b6040516101ab91906111a0565b60405180910390f35b3480156101c057600080fd5b506101c96108be565b6040516101d6919061126b565b60405180910390f35b3480156101eb57600080fd5b506101f46108c3565b604051610201919061126b565b60405180910390f35b34801561021657600080fd5b5061021f6108c8565b005b34801561022d57600080fd5b50610236610950565b005b34801561024457600080fd5b5061024d6109e9565b60405161025a9190611305565b60405180910390f35b34801561026f57600080fd5b50610278610a0f565b6040516102859190611341565b60405180910390f35b34801561029a57600080fd5b506102a3610a39565b6040516102b09190611379565b60405180910390f35b3480156102c557600080fd5b506102ce610a3f565b6040516102db9190611234565b60405180910390f35b3480156102f057600080fd5b506102f9610a52565b604051610306919061126b565b60405180910390f35b6103176103ee565b6040516103249190611234565b60405180910390f35b34801561033957600080fd5b50610342610a65565b005b34801561035057600080fd5b50610359610afe565b6040516103669190611379565b60405180910390f35b34801561037b57600080fd5b50610384610b04565b6040516103919190611379565b60405180910390f35b3480156103a657600080fd5b506103c160048036038101906103bc91906113c0565b610b0a565b005b3480156103cf57600080fd5b506103d8610c01565b6040516103e5919061126b565b60405180910390f35b6000600260005403610435576040517f08c379a000000000000000000000000000000000000000000000000000000000815260040161042c9061144a565b60405180910390fd5b600260008190555060011515600260149054906101000a900460ff16151514610493576040517f08c379a000000000000000000000000000000000000000000000000000000000815260040161048a906114b6565b60405180910390fd5b343373ffffffffffffffffffffffffffffffffffffffff1631101580156104bb575060003414155b6104fa576040517f08c379a00000000000000000000000000000000000000000000000000000000081526004016104f190611522565b60405180910390fd5b600354600260009054906101000a900473ffffffffffffffffffffffffffffffffffffffff1673ffffffffffffffffffffffffffffffffffffffff166370a08231336040518263ffffffff1660e01b81526004016105589190611341565b602060405180830381865afa158015610575573d6000803e3d6000fd5b505050506040513d601f19601f820116820180604052508101906105999190611557565b106105d9576040517f08c379a00000000000000000000000000000000000000000000000000000000081526004016105d0906115d0565b60405180910390fd5b600460009054906101000a900460ff1660ff1634101561062e576040517f08c379a00000000000000000000000000000000000000000000000000000000081526004016106259061163c565b60405180910390fd5b60006005549050600061064034610c06565b905061064e60055482611061565b600581905550600260009054906101000a900473ffffffffffffffffffffffffffffffffffffffff1673ffffffffffffffffffffffffffffffffffffffff166340c10f1933836040518363ffffffff1660e01b81526004016106b192919061165c565b6020604051808303816000875af11580156106d0573d6000803e3d6000fd5b505050506040513d601f19601f820116820180604052508101906106f491906116b1565b503373ffffffffffffffffffffffffffffffffffffffff167fe3d4187f6ca4248660cc0ac8b8056515bac4a8132be2eca31d6d0cc170722a7e8360055461073b919061170d565b60405161074891906111a0565b60405180910390a2600192505050600160008190555090565b6000600460009054906101000a900460ff1660ff16905090565b6000610785611077565b73ffffffffffffffffffffffffffffffffffffffff166107a3610a0f565b73ffffffffffffffffffffffffffffffffffffffff16146107f9576040517f08c379a00000000000000000000000000000000000000000000000000000000081526004016107f09061178d565b60405180910390fd5b4782111561083c576040517f08c379a00000000000000000000000000000000000000000000000000000000081526004016108339061181f565b60405180910390fd5b610844611077565b73ffffffffffffffffffffffffffffffffffffffff168260405161086790611870565b60006040518083038185875af1925050503d80600081146108a4576040519150601f19603f3d011682016040523d82523d6000602084013e6108a9565b606091505b50508091505060019050919050565b60055481565b600a81565b601481565b6108d0611077565b73ffffffffffffffffffffffffffffffffffffffff166108ee610a0f565b73ffffffffffffffffffffffffffffffffffffffff1614610944576040517f08c379a000000000000000000000000000000000000000000000000000000000815260040161093b9061178d565b60405180910390fd5b61094e600061107f565b565b610958611077565b73ffffffffffffffffffffffffffffffffffffffff16610976610a0f565b73ffffffffffffffffffffffffffffffffffffffff16146109cc576040517f08c379a00000000000000000000000000000000000000000000000000000000081526004016109c39061178d565b60405180910390fd5b6001600260146101000a81548160ff021916908315150217905550565b600260009054906101000a900473ffffffffffffffffffffffffffffffffffffffff1681565b6000600160009054906101000a900473ffffffffffffffffffffffffffffffffffffffff16905090565b6107d081565b600260149054906101000a900460ff1681565b600460009054906101000a900460ff1681565b610a6d611077565b73ffffffffffffffffffffffffffffffffffffffff16610a8b610a0f565b73ffffffffffffffffffffffffffffffffffffffff1614610ae1576040517f08c379a0000000000000000000000000000000000000000000000000000000008152600401610ad89061178d565b60405180910390fd5b6000600260146101000a81548160ff021916908315150217905550565b610fa081565b6103e881565b610b12611077565b73ffffffffffffffffffffffffffffffffffffffff16610b30610a0f565b73ffffffffffffffffffffffffffffffffffffffff1614610b86576040517f08c379a0000000000000000000000000000000000000000000000000000000008152600401610b7d9061178d565b60405180910390fd5b600073ffffffffffffffffffffffffffffffffffffffff168173ffffffffffffffffffffffffffffffffffffffff1603610bf5576040517f08c379a0000000000000000000000000000000000000000000000000000000008152600401610bec906118f7565b60405180910390fd5b610bfe8161107f565b50565b602881565b600060011515600260149054906101000a900460ff16151514610c5e576040517f08c379a0000000000000000000000000000000000000000000000000000000008152600401610c55906114b6565b60405180910390fd5b60006103e861ffff166005541015610dc157610c8c83600460009054906101000a900460ff1660ff16611145565b91506103e861ffff16610ca183600554611061565b10610dbc57610cb86103e861ffff1660055461115b565b9050610cc660055482611061565b600581905550600260009054906101000a900473ffffffffffffffffffffffffffffffffffffffff1673ffffffffffffffffffffffffffffffffffffffff166340c10f1933836040518363ffffffff1660e01b8152600401610d2992919061165c565b6020604051808303816000875af1158015610d48573d6000803e3d6000fd5b505050506040513d601f19601f82011682018060405250810190610d6c91906116b1565b50610d8981600460009054906101000a900460ff1660ff16611171565b90506014600460006101000a81548160ff021916908360ff160217905550610db9610db4848361115b565b610c06565b91505b61105b565b6107d061ffff166005541015610f2257610ded83600460009054906101000a900460ff1660ff16611145565b91506107d061ffff16610e0283600554611061565b10610f1d57610e196107d061ffff1660055461115b565b9050610e2760055482611061565b600581905550600260009054906101000a900473ffffffffffffffffffffffffffffffffffffffff1673ffffffffffffffffffffffffffffffffffffffff166340c10f1933836040518363ffffffff1660e01b8152600401610e8a92919061165c565b6020604051808303816000875af1158015610ea9573d6000803e3d6000fd5b505050506040513d601f19601f82011682018060405250810190610ecd91906116b1565b50610eea81600460009054906101000a900460ff1660ff16611171565b90506028600460006101000a81548160ff021916908360ff160217905550610f1a610f15848361115b565b610c06565b91505b61105a565b610fa061ffff16600554101561105457610f4e83600460009054906101000a900460ff1660ff16611145565b9150610fa061ffff16610f6383600554611061565b1061104f57610f7a610fa061ffff1660055461115b565b9050610f8860055482611061565b600581905550600260009054906101000a900473ffffffffffffffffffffffffffffffffffffffff1673ffffffffffffffffffffffffffffffffffffffff166340c10f1933836040518363ffffffff1660e01b8152600401610feb92919061165c565b6020604051808303816000875af115801561100a573d6000803e3d6000fd5b505050506040513d601f19601f8201168201806040525081019061102e91906116b1565b506000600260146101000a81548160ff021916908315150217905550600091505b611059565b600091505b5b5b50919050565b6000818361106f9190611917565b905092915050565b600033905090565b6000600160009054906101000a900473ffffffffffffffffffffffffffffffffffffffff16905081600160006101000a81548173ffffffffffffffffffffffffffffffffffffffff021916908373ffffffffffffffffffffffffffffffffffffffff1602179055508173ffffffffffffffffffffffffffffffffffffffff168173ffffffffffffffffffffffffffffffffffffffff167f8be0079c531659141344cd1fd0a4f28419497f9722a3daafe3b4186f6b6457e060405160405180910390a35050565b60008183611153919061199c565b905092915050565b60008183611169919061170d565b905092915050565b6000818361117f91906119cd565b905092915050565b6000819050919050565b61119a81611187565b82525050565b60006020820190506111b56000830184611191565b92915050565b600080fd5b6111c981611187565b81146111d457600080fd5b50565b6000813590506111e6816111c0565b92915050565b600060208284031215611202576112016111bb565b5b6000611210848285016111d7565b91505092915050565b60008115159050919050565b61122e81611219565b82525050565b60006020820190506112496000830184611225565b92915050565b600060ff82169050919050565b6112658161124f565b82525050565b6000602082019050611280600083018461125c565b92915050565b600073ffffffffffffffffffffffffffffffffffffffff82169050919050565b6000819050919050565b60006112cb6112c66112c184611286565b6112a6565b611286565b9050919050565b60006112dd826112b0565b9050919050565b60006112ef826112d2565b9050919050565b6112ff816112e4565b82525050565b600060208201905061131a60008301846112f6565b92915050565b600061132b82611286565b9050919050565b61133b81611320565b82525050565b60006020820190506113566000830184611332565b92915050565b600061ffff82169050919050565b6113738161135c565b82525050565b600060208201905061138e600083018461136a565b92915050565b61139d81611320565b81146113a857600080fd5b50565b6000813590506113ba81611394565b92915050565b6000602082840312156113d6576113d56111bb565b5b60006113e4848285016113ab565b91505092915050565b600082825260208201905092915050565b7f5265656e7472616e637947756172643a207265656e7472616e742063616c6c00600082015250565b6000611434601f836113ed565b915061143f826113fe565b602082019050919050565b6000602082019050818103600083015261146381611427565b9050919050565b7f49434f206973206f766572210000000000000000000000000000000000000000600082015250565b60006114a0600c836113ed565b91506114ab8261146a565b602082019050919050565b600060208201905081810360008301526114cf81611493565b9050919050565b7f49434f3a2066756e6374696f6e2062757920696e76616c696420696e70757400600082015250565b600061150c601f836113ed565b9150611517826114d6565b602082019050919050565b6000602082019050818103600083015261153b816114ff565b9050919050565b600081519050611551816111c0565b92915050565b60006020828403121561156d5761156c6111bb565b5b600061157b84828501611542565b91505092915050565b7f557365722072656163686564206d6178207072656f7264657220616d6f756e74600082015250565b60006115ba6020836113ed565b91506115c582611584565b602082019050919050565b600060208201905081810360008301526115e9816115ad565b9050919050565b7f4d696e696d756d20627579207175616e74697479206973203120746f6b656e00600082015250565b6000611626601f836113ed565b9150611631826115f0565b602082019050919050565b6000602082019050818103600083015261165581611619565b9050919050565b60006040820190506116716000830185611332565b61167e6020830184611191565b9392505050565b61168e81611219565b811461169957600080fd5b50565b6000815190506116ab81611685565b92915050565b6000602082840312156116c7576116c66111bb565b5b60006116d58482850161169c565b91505092915050565b7f4e487b7100000000000000000000000000000000000000000000000000000000600052601160045260246000fd5b600061171882611187565b915061172383611187565b925082821015611736576117356116de565b5b828203905092915050565b7f4f776e61626c653a2063616c6c6572206973206e6f7420746865206f776e6572600082015250565b60006117776020836113ed565b915061178282611741565b602082019050919050565b600060208201905081810360008301526117a68161176a565b9050919050565b7f49434f3a2066756e6374696f6e20776974686472617720696e76616c6964206960008201527f6e70757400000000000000000000000000000000000000000000000000000000602082015250565b60006118096024836113ed565b9150611814826117ad565b604082019050919050565b60006020820190508181036000830152611838816117fc565b9050919050565b600081905092915050565b50565b600061185a60008361183f565b91506118658261184a565b600082019050919050565b600061187b8261184d565b9150819050919050565b7f4f776e61626c653a206e6577206f776e657220697320746865207a65726f206160008201527f6464726573730000000000000000000000000000000000000000000000000000602082015250565b60006118e16026836113ed565b91506118ec82611885565b604082019050919050565b60006020820190508181036000830152611910816118d4565b9050919050565b600061192282611187565b915061192d83611187565b9250827fffffffffffffffffffffffffffffffffffffffffffffffffffffffffffffffff03821115611962576119616116de565b5b828201905092915050565b7f4e487b7100000000000000000000000000000000000000000000000000000000600052601260045260246000fd5b60006119a782611187565b91506119b283611187565b9250826119c2576119c161196d565b5b828204905092915050565b60006119d882611187565b91506119e383611187565b9250817fffffffffffffffffffffffffffffffffffffffffffffffffffffffffffffffff0483118215151615611a1c57611a1b6116de565b5b82820290509291505056fea264697066735822122002bd2675cd51121893ca584f14643162ac04dc95cff8c9b5ea50d91a32990ceb64736f6c634300080f0033",
  "immutableReferences": {},
  "source": "// SPDX-License-Identifier: MIT\npragma solidity ^0.8.4;\n\n// import from node_modules @openzeppelin/contracts v4.0\nimport \"@openzeppelin/contracts/security/ReentrancyGuard.sol\";\nimport \"@openzeppelin/contracts/access/Ownable.sol\";\nimport \"@openzeppelin/contracts/utils/math/SafeMath.sol\";\nimport \"./DAOToken.sol\";\n\n/** \n  *@title Initial Coin Offerring(ICO) contract\n*/\n\ncontract ICO_DAOToken is ReentrancyGuard, Ownable {\n\n    DAOToken public DAOTokenContract;\n\n    bool public inProcess;\n    uint256 maxPreorderAmountPerUser = 5000;\n    uint8 public constant PRESALE_PRICE = 10;\n    uint8 public constant ICO_PRICE1 = 20;\n    uint8 public constant ICO_PRICE2 = 40;\n    uint16 public constant PRESALE_TOKEN_SUPPLY_LIMIT = 1000;\n    uint16 public constant ICO_TOKEN_SUPPLY_LIMIT = 2000;\n    uint16 public constant ICO2_TOKEN_SUPPLY_LIMIT = 4000;\n    uint8 public price = PRESALE_PRICE;\n    uint256 public _totalSupply;\n\n    event Buy(address indexed to, uint256 amount);\n    \n    constructor(address _address) payable {\n      inProcess = true;\n      DAOTokenContract = DAOToken(_address);\n      _totalSupply = 0;\n    }\n    \n    function startICO() public onlyOwner {\n        inProcess = true;\n    }\n\n    function stopICO() public onlyOwner {\n        inProcess = false;\n    }\n\n    modifier _inProcess() {\n      require(inProcess == true, \"ICO is over!\");\n      _;\n    }\n\n    /** \n      @dev function to buy token with ether\n    */\n    function buy() public payable nonReentrant _inProcess returns (bool success) {\n      require(msg.sender.balance >= msg.value && msg.value != 0 ether, \"ICO: function buy invalid input\");\n      require(DAOTokenContract.balanceOf(msg.sender) < maxPreorderAmountPerUser, \"User reached max preorder amount\");\n      require(msg.value >= price, \"Minimum buy quantity is 1 token\");\n      uint256 startingAmount = _totalSupply;\n      uint256 amount = mintAndUpdatePrice(uint256(msg.value));\n      _totalSupply = SafeMath.add(_totalSupply, amount);\n      DAOTokenContract.mint(msg.sender, amount);\n\n      emit Buy(msg.sender, _totalSupply - startingAmount);\n      return true;\n    }\n\n    function getBuyPrice() public view returns(uint) {\n        return price;\n    }\n\n    function mintAndUpdatePrice(uint256 _value) internal _inProcess returns (uint256 amount) {\n      uint256 dif;\n      if (_totalSupply < PRESALE_TOKEN_SUPPLY_LIMIT) {\n        amount = SafeMath.div(_value, price);\n        if ((SafeMath.add(amount, _totalSupply)) >= PRESALE_TOKEN_SUPPLY_LIMIT) {\n          dif = SafeMath.sub(PRESALE_TOKEN_SUPPLY_LIMIT, _totalSupply);\n          _totalSupply = SafeMath.add(_totalSupply, dif);\n          DAOTokenContract.mint(msg.sender, dif);\n          dif = SafeMath.mul(dif, price);\n          price = ICO_PRICE1;\n          amount = mintAndUpdatePrice(SafeMath.sub(_value, dif));\n        }\n      } else if (_totalSupply < ICO_TOKEN_SUPPLY_LIMIT) {\n        amount = SafeMath.div(_value, price);\n        if ((SafeMath.add(amount, _totalSupply)) >= ICO_TOKEN_SUPPLY_LIMIT) {\n          dif = SafeMath.sub(ICO_TOKEN_SUPPLY_LIMIT, _totalSupply);\n          _totalSupply = SafeMath.add(_totalSupply, dif);\n          DAOTokenContract.mint(msg.sender, dif);\n          dif = SafeMath.mul(dif, price);\n          price = ICO_PRICE2;\n          amount = mintAndUpdatePrice(SafeMath.sub(_value, dif));\n        }\n      } else if (_totalSupply < ICO2_TOKEN_SUPPLY_LIMIT) {\n        amount = SafeMath.div(_value, price);\n        if ((SafeMath.add(amount, _totalSupply)) >= ICO2_TOKEN_SUPPLY_LIMIT) {\n          dif = SafeMath.sub(ICO2_TOKEN_SUPPLY_LIMIT, _totalSupply);\n          _totalSupply = SafeMath.add(_totalSupply, dif);\n          DAOTokenContract.mint(msg.sender, dif);\n          inProcess = false;\n          amount = 0;\n        }\n      } else {\n        amount = 0;\n      }\n      return amount;\n    }\n\n    /**\n      @dev function use to withdraw ether from contract\n    */\n    function withdraw(uint256 amount) public onlyOwner returns (bool success) {\n      require(amount <= address(this).balance, \"ICO: function withdraw invalid input\");\n      (success, ) = payable(_msgSender()).call{value: amount}(\"\");\n      return true;\n    }\n\n    receive() external payable {\n      buy();\n    }\n}",
  "sourcePath": "/home/fabian/Documents/02_Uni/TU-Wien/Smart_Contracts/FinalProject/e12140504/contracts/ICO_DAOToken.sol",
  "compiler": {
    "name": "solc",
    "version": "0.8.15+commit.e14f2714.Emscripten.clang"
  },
  "schemaVersion": "3.4.7",
  "updatedAt": "2022-06-23T13:04:35.152Z",
  "networkType": "ethereum",
  "devdoc": {
    "kind": "dev",
    "methods": {
      "buy()": {
        "details": "function to buy token with ether"
      },
      "owner()": {
        "details": "Returns the address of the current owner."
      },
      "renounceOwnership()": {
        "details": "Leaves the contract without owner. It will not be possible to call `onlyOwner` functions anymore. Can only be called by the current owner. NOTE: Renouncing ownership will leave the contract without an owner, thereby removing any functionality that is only available to the owner."
      },
      "transferOwnership(address)": {
        "details": "Transfers ownership of the contract to a new account (`newOwner`). Can only be called by the current owner."
      },
      "withdraw(uint256)": {
        "details": "function use to withdraw ether from contract"
      }
    },
    "title": "Initial Coin Offerring(ICO) contract",
    "version": 1
  },
  "userdoc": {
    "kind": "user",
    "methods": {},
    "version": 1
  }
}