{
  "contractName": "Locker",
  "abi": [
    {
      "inputs": [
        {
          "internalType": "address",
          "name": "DAOTokenAddress",
          "type": "address"
        },
        {
          "internalType": "address",
          "name": "VotingTokenAddress",
          "type": "address"
        }
      ],
      "stateMutability": "payable",
      "type": "constructor",
      "payable": true
    },
    {
      "anonymous": false,
      "inputs": [
        {
          "indexed": false,
          "internalType": "address",
          "name": "_address",
          "type": "address"
        },
        {
          "indexed": false,
          "internalType": "uint256",
          "name": "amount",
          "type": "uint256"
        },
        {
          "indexed": false,
          "internalType": "uint256",
          "name": "lockDays",
          "type": "uint256"
        }
      ],
      "name": "Lock",
      "type": "event"
    },
    {
      "anonymous": false,
      "inputs": [
        {
          "indexed": false,
          "internalType": "address",
          "name": "_address",
          "type": "address"
        },
        {
          "indexed": false,
          "internalType": "uint256",
          "name": "amount",
          "type": "uint256"
        }
      ],
      "name": "Unlock",
      "type": "event"
    },
    {
      "inputs": [],
      "name": "DAOTokenContract",
      "outputs": [
        {
          "internalType": "contract DAOToken",
          "name": "",
          "type": "address"
        }
      ],
      "stateMutability": "view",
      "type": "function",
      "constant": true
    },
    {
      "inputs": [],
      "name": "VotingTokenContract",
      "outputs": [
        {
          "internalType": "contract VotingToken",
          "name": "",
          "type": "address"
        }
      ],
      "stateMutability": "view",
      "type": "function",
      "constant": true
    },
    {
      "inputs": [
        {
          "internalType": "uint256",
          "name": "_lockAmount",
          "type": "uint256"
        },
        {
          "internalType": "uint256",
          "name": "_lockTime",
          "type": "uint256"
        }
      ],
      "name": "lock",
      "outputs": [
        {
          "internalType": "bool",
          "name": "success",
          "type": "bool"
        }
      ],
      "stateMutability": "payable",
      "type": "function",
      "payable": true
    },
    {
      "inputs": [
        {
          "internalType": "uint256",
          "name": "_amount",
          "type": "uint256"
        }
      ],
      "name": "unlock",
      "outputs": [
        {
          "internalType": "bool",
          "name": "success",
          "type": "bool"
        }
      ],
      "stateMutability": "nonpayable",
      "type": "function"
    },
    {
      "inputs": [
        {
          "internalType": "address",
          "name": "_address",
          "type": "address"
        }
      ],
      "name": "unlockedAmount",
      "outputs": [
        {
          "internalType": "uint256",
          "name": "",
          "type": "uint256"
        }
      ],
      "stateMutability": "view",
      "type": "function",
      "constant": true
    },
    {
      "inputs": [],
      "name": "totalLocked",
      "outputs": [
        {
          "internalType": "uint256",
          "name": "",
          "type": "uint256"
        }
      ],
      "stateMutability": "view",
      "type": "function",
      "constant": true
    },
    {
      "inputs": [
        {
          "internalType": "address",
          "name": "_address",
          "type": "address"
        }
      ],
      "name": "unlockTime",
      "outputs": [
        {
          "components": [
            {
              "internalType": "uint256",
              "name": "unlockTime",
              "type": "uint256"
            },
            {
              "internalType": "uint256",
              "name": "amount",
              "type": "uint256"
            }
          ],
          "internalType": "struct Locker.Entry[]",
          "name": "",
          "type": "tuple[]"
        }
      ],
      "stateMutability": "view",
      "type": "function",
      "constant": true
    }
  ],
  "bytecode": "0x60806040526040516200198e3803806200198e833981810160405281019062000029919062000125565b600160008190555080600160006101000a81548173ffffffffffffffffffffffffffffffffffffffff021916908373ffffffffffffffffffffffffffffffffffffffff16021790555081600260006101000a81548173ffffffffffffffffffffffffffffffffffffffff021916908373ffffffffffffffffffffffffffffffffffffffff16021790555050506200016c565b600080fd5b600073ffffffffffffffffffffffffffffffffffffffff82169050919050565b6000620000ed82620000c0565b9050919050565b620000ff81620000e0565b81146200010b57600080fd5b50565b6000815190506200011f81620000f4565b92915050565b600080604083850312156200013f576200013e620000bb565b5b60006200014f858286016200010e565b925050602062000162858286016200010e565b9150509250929050565b611812806200017c6000396000f3fe6080604052600436106100705760003560e01c806376b467b71161004e57806376b467b71461010d578063849074ea1461014a578063859e926614610175578063a8988ce2146101a057610070565b80631338736f1461007557806356891412146100a55780636198e339146100d0575b600080fd5b61008f600480360381019061008a9190610fc9565b6101dd565b60405161009c9190611024565b60405180910390f35b3480156100b157600080fd5b506100ba61073b565b6040516100c7919061104e565b60405180910390f35b3480156100dc57600080fd5b506100f760048036038101906100f29190611069565b6107d3565b6040516101049190611024565b60405180910390f35b34801561011957600080fd5b50610134600480360381019061012f91906110f4565b610ac2565b604051610141919061120e565b60405180910390f35b34801561015657600080fd5b5061015f610b74565b60405161016c919061128f565b60405180910390f35b34801561018157600080fd5b5061018a610b9a565b60405161019791906112cb565b60405180910390f35b3480156101ac57600080fd5b506101c760048036038101906101c291906110f4565b610bc0565b6040516101d4919061104e565b60405180910390f35b6000600260005403610224576040517f08c379a000000000000000000000000000000000000000000000000000000000815260040161021b90611343565b60405180910390fd5b60026000819055506000830361023957600080fd5b60008211801561024d57506301e285008211155b61028c576040517f08c379a0000000000000000000000000000000000000000000000000000000008152600401610283906113d5565b60405180910390fd5b82600260009054906101000a900473ffffffffffffffffffffffffffffffffffffffff1673ffffffffffffffffffffffffffffffffffffffff1663be91de53336040518263ffffffff1660e01b81526004016102e89190611404565b602060405180830381865afa158015610305573d6000803e3d6000fd5b505050506040513d601f19601f820116820180604052508101906103299190611434565b600260009054906101000a900473ffffffffffffffffffffffffffffffffffffffff1673ffffffffffffffffffffffffffffffffffffffff166370a08231336040518263ffffffff1660e01b81526004016103849190611404565b602060405180830381865afa1580156103a1573d6000803e3d6000fd5b505050506040513d601f19601f820116820180604052508101906103c59190611434565b6103cf9190611490565b1015610410576040517f08c379a000000000000000000000000000000000000000000000000000000000815260040161040790611510565b60405180910390fd5b600061041f8362015180610d0a565b9050600061042d4285610d20565b90506000610449610443620f424061016d610d0a565b84610d36565b9050600061046f610466610460620f424085610d20565b89610d36565b620f4240610d0a565b905060006040518060400160405280858152602001838152509050600360003373ffffffffffffffffffffffffffffffffffffffff1673ffffffffffffffffffffffffffffffffffffffff168152602001908152602001600020819080600181540180825580915050600190039060005260206000209060020201600090919091909150600082015181600001556020820151816001015550506000610515838a610d4c565b9050600260009054906101000a900473ffffffffffffffffffffffffffffffffffffffff1673ffffffffffffffffffffffffffffffffffffffff166340c10f1933836040518363ffffffff1660e01b8152600401610574929190611530565b6020604051808303816000875af1158015610593573d6000803e3d6000fd5b505050506040513d601f19601f820116820180604052508101906105b79190611585565b50600260009054906101000a900473ffffffffffffffffffffffffffffffffffffffff1673ffffffffffffffffffffffffffffffffffffffff166324bce60c33856040518363ffffffff1660e01b8152600401610615929190611530565b600060405180830381600087803b15801561062f57600080fd5b505af1158015610643573d6000803e3d6000fd5b50505050600160009054906101000a900473ffffffffffffffffffffffffffffffffffffffff1673ffffffffffffffffffffffffffffffffffffffff166340c10f1933856040518363ffffffff1660e01b81526004016106a4929190611530565b6020604051808303816000875af11580156106c3573d6000803e3d6000fd5b505050506040513d601f19601f820116820180604052508101906106e79190611585565b507f49eaf4942f1237055eb4cfa5f31c9dfe50d5b4ade01e021f7de8be2fbbde557b33848a60405161071b939291906115b2565b60405180910390a160019650505050505050600160008190555092915050565b6000600160009054906101000a900473ffffffffffffffffffffffffffffffffffffffff1673ffffffffffffffffffffffffffffffffffffffff166318160ddd6040518163ffffffff1660e01b8152600401602060405180830381865afa1580156107aa573d6000803e3d6000fd5b505050506040513d601f19601f820116820180604052508101906107ce9190611434565b905090565b600060026000540361081a576040517f08c379a000000000000000000000000000000000000000000000000000000000815260040161081190611343565b60405180910390fd5b600260008190555081600260009054906101000a900473ffffffffffffffffffffffffffffffffffffffff1673ffffffffffffffffffffffffffffffffffffffff166370a08231336040518263ffffffff1660e01b815260040161087e9190611404565b602060405180830381865afa15801561089b573d6000803e3d6000fd5b505050506040513d601f19601f820116820180604052508101906108bf9190611434565b1015610900576040517f08c379a00000000000000000000000000000000000000000000000000000000081526004016108f790611510565b60405180910390fd5b600061090b33610bc0565b905082811015610950576040517f08c379a000000000000000000000000000000000000000000000000000000000815260040161094790611635565b60405180910390fd5b600160009054906101000a900473ffffffffffffffffffffffffffffffffffffffff1673ffffffffffffffffffffffffffffffffffffffff16639dc29fac33856040518363ffffffff1660e01b81526004016109ad929190611530565b600060405180830381600087803b1580156109c757600080fd5b505af11580156109db573d6000803e3d6000fd5b50505050600260009054906101000a900473ffffffffffffffffffffffffffffffffffffffff1673ffffffffffffffffffffffffffffffffffffffff16637b46b80b33856040518363ffffffff1660e01b8152600401610a3c929190611530565b600060405180830381600087803b158015610a5657600080fd5b505af1158015610a6a573d6000803e3d6000fd5b50505050610a7783610d62565b7f6381d9813cabeb57471b5a7e05078e64845ccdb563146a6911d536f24ce960f13384604051610aa8929190611530565b60405180910390a160019150506001600081905550919050565b6060600360008373ffffffffffffffffffffffffffffffffffffffff1673ffffffffffffffffffffffffffffffffffffffff168152602001908152602001600020805480602002602001604051908101604052809291908181526020016000905b82821015610b6957838290600052602060002090600202016040518060400160405290816000820154815260200160018201548152505081526020019060010190610b23565b505050509050919050565b600160009054906101000a900473ffffffffffffffffffffffffffffffffffffffff1681565b600260009054906101000a900473ffffffffffffffffffffffffffffffffffffffff1681565b6000804290506000805b600360008673ffffffffffffffffffffffffffffffffffffffff1673ffffffffffffffffffffffffffffffffffffffff16815260200190815260200160002080549050811015610cff5782600360003373ffffffffffffffffffffffffffffffffffffffff1673ffffffffffffffffffffffffffffffffffffffff1681526020019081526020016000208281548110610c6657610c65611655565b5b90600052602060002090600202016000015411610cec57610ce982600360003373ffffffffffffffffffffffffffffffffffffffff1673ffffffffffffffffffffffffffffffffffffffff1681526020019081526020016000208381548110610cd257610cd1611655565b5b906000526020600020906002020160010154610d20565b91505b8080610cf790611684565b915050610bca565b508092505050919050565b60008183610d1891906116fb565b905092915050565b60008183610d2e919061172c565b905092915050565b60008183610d449190611782565b905092915050565b60008183610d5a9190611490565b905092915050565b60008060004290505b83831015610f5b5780600360003373ffffffffffffffffffffffffffffffffffffffff1673ffffffffffffffffffffffffffffffffffffffff1681526020019081526020016000208381548110610dc557610dc4611655565b5b9060005260206000209060020201600001541115610df0578180610de890611684565b925050610d6b565b6000600360003373ffffffffffffffffffffffffffffffffffffffff1673ffffffffffffffffffffffffffffffffffffffff1681526020019081526020016000208381548110610e4357610e42611655565b5b9060005260206000209060020201600101549050610e6a81610e658787610d4c565b610f61565b600360003373ffffffffffffffffffffffffffffffffffffffff1673ffffffffffffffffffffffffffffffffffffffff1681526020019081526020016000208481548110610ebb57610eba611655565b5b906000526020600020906002020160010181905550610f4584610f4083600360003373ffffffffffffffffffffffffffffffffffffffff1673ffffffffffffffffffffffffffffffffffffffff1681526020019081526020016000208781548110610f2957610f28611655565b5b906000526020600020906002020160010154610d4c565b610d20565b93508280610f5290611684565b93505050610d6b565b50505050565b6000828210610f735760009050610f88565b60008284610f819190611490565b9050809150505b92915050565b600080fd5b6000819050919050565b610fa681610f93565b8114610fb157600080fd5b50565b600081359050610fc381610f9d565b92915050565b60008060408385031215610fe057610fdf610f8e565b5b6000610fee85828601610fb4565b9250506020610fff85828601610fb4565b9150509250929050565b60008115159050919050565b61101e81611009565b82525050565b60006020820190506110396000830184611015565b92915050565b61104881610f93565b82525050565b6000602082019050611063600083018461103f565b92915050565b60006020828403121561107f5761107e610f8e565b5b600061108d84828501610fb4565b91505092915050565b600073ffffffffffffffffffffffffffffffffffffffff82169050919050565b60006110c182611096565b9050919050565b6110d1816110b6565b81146110dc57600080fd5b50565b6000813590506110ee816110c8565b92915050565b60006020828403121561110a57611109610f8e565b5b6000611118848285016110df565b91505092915050565b600081519050919050565b600082825260208201905092915050565b6000819050602082019050919050565b61115681610f93565b82525050565b604082016000820151611172600085018261114d565b506020820151611185602085018261114d565b50505050565b6000611197838361115c565b60408301905092915050565b6000602082019050919050565b60006111bb82611121565b6111c5818561112c565b93506111d08361113d565b8060005b838110156112015781516111e8888261118b565b97506111f3836111a3565b9250506001810190506111d4565b5085935050505092915050565b6000602082019050818103600083015261122881846111b0565b905092915050565b6000819050919050565b600061125561125061124b84611096565b611230565b611096565b9050919050565b60006112678261123a565b9050919050565b60006112798261125c565b9050919050565b6112898161126e565b82525050565b60006020820190506112a46000830184611280565b92915050565b60006112b58261125c565b9050919050565b6112c5816112aa565b82525050565b60006020820190506112e060008301846112bc565b92915050565b600082825260208201905092915050565b7f5265656e7472616e637947756172643a207265656e7472616e742063616c6c00600082015250565b600061132d601f836112e6565b9150611338826112f7565b602082019050919050565b6000602082019050818103600083015261135c81611320565b9050919050565b7f4c6f636b2074696d65206d757374206265206265747765656e203020616e642060008201527f3336362064617973210000000000000000000000000000000000000000000000602082015250565b60006113bf6029836112e6565b91506113ca82611363565b604082019050919050565b600060208201905081810360008301526113ee816113b2565b9050919050565b6113fe816110b6565b82525050565b600060208201905061141960008301846113f5565b92915050565b60008151905061142e81610f9d565b92915050565b60006020828403121561144a57611449610f8e565b5b60006114588482850161141f565b91505092915050565b7f4e487b7100000000000000000000000000000000000000000000000000000000600052601160045260246000fd5b600061149b82610f93565b91506114a683610f93565b9250828210156114b9576114b8611461565b5b828203905092915050565b7f496e73756666696369656e742062616c616e6365210000000000000000000000600082015250565b60006114fa6015836112e6565b9150611505826114c4565b602082019050919050565b60006020820190508181036000830152611529816114ed565b9050919050565b600060408201905061154560008301856113f5565b611552602083018461103f565b9392505050565b61156281611009565b811461156d57600080fd5b50565b60008151905061157f81611559565b92915050565b60006020828403121561159b5761159a610f8e565b5b60006115a984828501611570565b91505092915050565b60006060820190506115c760008301866113f5565b6115d4602083018561103f565b6115e1604083018461103f565b949350505050565b7f4e6f7420656e6f75676820746f6b656e7320756e6c6f636b61626c6521000000600082015250565b600061161f601d836112e6565b915061162a826115e9565b602082019050919050565b6000602082019050818103600083015261164e81611612565b9050919050565b7f4e487b7100000000000000000000000000000000000000000000000000000000600052603260045260246000fd5b600061168f82610f93565b91507fffffffffffffffffffffffffffffffffffffffffffffffffffffffffffffffff82036116c1576116c0611461565b5b600182019050919050565b7f4e487b7100000000000000000000000000000000000000000000000000000000600052601260045260246000fd5b600061170682610f93565b915061171183610f93565b925082611721576117206116cc565b5b828204905092915050565b600061173782610f93565b915061174283610f93565b9250827fffffffffffffffffffffffffffffffffffffffffffffffffffffffffffffffff0382111561177757611776611461565b5b828201905092915050565b600061178d82610f93565b915061179883610f93565b9250817fffffffffffffffffffffffffffffffffffffffffffffffffffffffffffffffff04831182151516156117d1576117d0611461565b5b82820290509291505056fea26469706673582212205476e3d7759ed9fd7d8fdea887d6da92c628dda115420997b3d848facc605d3d64736f6c634300080f0033",
  "immutableReferences": {},
  "source": "// SPDX-License-Identifier: MIT\npragma solidity ^0.8.4;\n\nimport \"@openzeppelin/contracts/security/ReentrancyGuard.sol\";\nimport \"./DAOToken.sol\";\nimport \"./VotingToken.sol\";\n\n/** \n  *@title Locking contract to lock DAOTokens and wrap them in voting tokens\n*/\n\ncontract Locker is ReentrancyGuard {\n\n    VotingToken public VotingTokenContract;\n    DAOToken public DAOTokenContract;\n    struct Entry {\n        uint256 unlockTime;\n        uint256 amount;\n    }\n    mapping(address => Entry[]) locked;\n    event Lock(address _address, uint256 amount, uint256 lockDays);\n    event Unlock(address _address, uint256 amount);\n\n    constructor(address DAOTokenAddress, address VotingTokenAddress) payable {\n      VotingTokenContract = VotingToken(VotingTokenAddress);\n      DAOTokenContract = DAOToken(DAOTokenAddress);\n    }\n\n    //function to lock tokens and mint correspoding voting tokens plus additional DAOTokens\n    //based on the locking time\n    //note: normally the minimum locking days would need to be the voting time for the proposals, to prevent multiple votes from the same person\n    function lock(uint256 _lockAmount, uint256 _lockTime) public payable nonReentrant returns (bool success) {\n        require(_lockAmount != 0);\n        require(_lockTime > 0 && _lockTime <= 31622400, \"Lock time must be between 0 and 366 days!\"); //Normally it should be between 14 and 366 days\n        require((DAOTokenContract.balanceOf(msg.sender) - DAOTokenContract.frozenBalanceOf(msg.sender)) >= _lockAmount, \"Insufficient balance!\");\n        uint256 lockDays = SafeMath.div(_lockTime, 86400);                         //Calculate locking time from seconds to days\n        uint256 unlockTimestamp = SafeMath.add(block.timestamp, _lockTime);        //Calculate unlocking time\n        uint256 multiplier = SafeMath.mul(SafeMath.div(1000000, 365), lockDays);   //Multiplier for additional tokens, 365days = 2x\n        uint256 amount = SafeMath.div(SafeMath.mul(SafeMath.add(1000000, multiplier), _lockAmount), 1000000);    //Calculate new amount based on locking time\n        Entry memory entry = Entry(unlockTimestamp, amount);\n        locked[msg.sender].push(entry);\n        uint256 newDaoTokens = SafeMath.sub(amount, _lockAmount);\n        DAOTokenContract.mint(msg.sender, newDaoTokens);\n        DAOTokenContract.freeze(msg.sender, amount);\n        VotingTokenContract.mint(msg.sender, amount);\n        emit Lock(msg.sender, amount, _lockTime);\n        return true;\n    }\n\n    //function to unlock tokens\n    //only possible if unlock time has bee reached\n    function unlock(uint256 _amount) public nonReentrant returns (bool success) {\n        require(DAOTokenContract.balanceOf(msg.sender) >= _amount, \"Insufficient balance!\");\n        uint256 unlockedTokens = unlockedAmount(msg.sender);\n        require(unlockedTokens >= _amount, \"Not enough tokens unlockable!\");\n        VotingTokenContract.burn(msg.sender, _amount);\n        DAOTokenContract.unfreeze(msg.sender, _amount);\n        updateUnlockAmount(_amount);\n        emit Unlock(msg.sender, _amount);\n        return true;\n    }\n\n    function updateUnlockAmount(uint256 _amount) internal {\n        uint256 unlocked = 0;\n        uint256 i = 0;\n        uint256 currentTime = block.timestamp;\n        while (unlocked < _amount) {\n            if (locked[msg.sender][i].unlockTime > currentTime) {\n                i++;\n                continue;\n            }\n            uint256 oldAmount = locked[msg.sender][i].amount;\n            locked[msg.sender][i].amount = subFloor(oldAmount, SafeMath.sub(_amount, unlocked));\n            unlocked = SafeMath.add(unlocked,SafeMath.sub(oldAmount, locked[msg.sender][i].amount));\n            i++;\n        }\n    }\n\n    function subFloor(uint256 a, uint256 b) internal pure returns (uint256) {\n        if (b >= a) {\n            return 0;\n        } else {\n            uint256 c = a - b;\n            return c;\n        }\n    }\n\n    //returns amount of tokens can be unlocked\n    function unlockedAmount(address _address) public view returns (uint256) {\n        uint256 currentTime = block.timestamp;\n        uint256 amount = 0;\n        for (uint256 i = 0; i < locked[_address].length; i++) {\n            if (locked[msg.sender][i].unlockTime > currentTime) {\n                continue;\n            }\n            amount = SafeMath.add(amount, locked[msg.sender][i].amount);\n        }\n        return amount;\n    }\n\n    //total locked tokens\n    function totalLocked() public view returns (uint256) {\n        return VotingTokenContract.totalSupply();\n    }\n\n    //returns unlocktime and amount as array of Entry structs\n    function unlockTime(address _address) public view returns (Entry[] memory) {\n        return locked[_address];\n    }\n}",
  "sourcePath": "/home/fabian/Documents/02_Uni/TU-Wien/Smart_Contracts/FinalProject/e12140504/contracts/Locker.sol",
  "compiler": {
    "name": "solc",
    "version": "0.8.15+commit.e14f2714.Emscripten.clang"
  },
  "schemaVersion": "3.4.7",
  "updatedAt": "2022-06-23T13:04:35.170Z",
  "networkType": "ethereum",
  "devdoc": {
    "kind": "dev",
    "methods": {},
    "title": "Locking contract to lock DAOTokens and wrap them in voting tokens",
    "version": 1
  },
  "userdoc": {
    "kind": "user",
    "methods": {},
    "version": 1
  }
}