{
  "contractName": "VotingToken",
  "abi": [
    {
      "inputs": [],
      "stateMutability": "nonpayable",
      "type": "constructor"
    },
    {
      "anonymous": false,
      "inputs": [
        {
          "indexed": true,
          "internalType": "bytes32",
          "name": "role",
          "type": "bytes32"
        },
        {
          "indexed": true,
          "internalType": "bytes32",
          "name": "previousAdminRole",
          "type": "bytes32"
        },
        {
          "indexed": true,
          "internalType": "bytes32",
          "name": "newAdminRole",
          "type": "bytes32"
        }
      ],
      "name": "RoleAdminChanged",
      "type": "event"
    },
    {
      "anonymous": false,
      "inputs": [
        {
          "indexed": true,
          "internalType": "bytes32",
          "name": "role",
          "type": "bytes32"
        },
        {
          "indexed": true,
          "internalType": "address",
          "name": "account",
          "type": "address"
        },
        {
          "indexed": true,
          "internalType": "address",
          "name": "sender",
          "type": "address"
        }
      ],
      "name": "RoleGranted",
      "type": "event"
    },
    {
      "anonymous": false,
      "inputs": [
        {
          "indexed": true,
          "internalType": "bytes32",
          "name": "role",
          "type": "bytes32"
        },
        {
          "indexed": true,
          "internalType": "address",
          "name": "account",
          "type": "address"
        },
        {
          "indexed": true,
          "internalType": "address",
          "name": "sender",
          "type": "address"
        }
      ],
      "name": "RoleRevoked",
      "type": "event"
    },
    {
      "anonymous": false,
      "inputs": [
        {
          "indexed": true,
          "internalType": "address",
          "name": "from",
          "type": "address"
        },
        {
          "indexed": true,
          "internalType": "address",
          "name": "to",
          "type": "address"
        },
        {
          "indexed": false,
          "internalType": "uint256",
          "name": "value",
          "type": "uint256"
        }
      ],
      "name": "Transfer",
      "type": "event"
    },
    {
      "inputs": [],
      "name": "DEFAULT_ADMIN_ROLE",
      "outputs": [
        {
          "internalType": "bytes32",
          "name": "",
          "type": "bytes32"
        }
      ],
      "stateMutability": "view",
      "type": "function",
      "constant": true
    },
    {
      "inputs": [],
      "name": "OWNER",
      "outputs": [
        {
          "internalType": "bytes32",
          "name": "",
          "type": "bytes32"
        }
      ],
      "stateMutability": "view",
      "type": "function",
      "constant": true
    },
    {
      "inputs": [
        {
          "internalType": "address",
          "name": "owner",
          "type": "address"
        }
      ],
      "name": "balanceOf",
      "outputs": [
        {
          "internalType": "uint256",
          "name": "",
          "type": "uint256"
        }
      ],
      "stateMutability": "view",
      "type": "function",
      "constant": true
    },
    {
      "inputs": [
        {
          "internalType": "address",
          "name": "",
          "type": "address"
        }
      ],
      "name": "balances",
      "outputs": [
        {
          "internalType": "uint256",
          "name": "",
          "type": "uint256"
        }
      ],
      "stateMutability": "view",
      "type": "function",
      "constant": true
    },
    {
      "inputs": [],
      "name": "decimals",
      "outputs": [
        {
          "internalType": "uint8",
          "name": "",
          "type": "uint8"
        }
      ],
      "stateMutability": "view",
      "type": "function",
      "constant": true
    },
    {
      "inputs": [
        {
          "internalType": "bytes32",
          "name": "role",
          "type": "bytes32"
        }
      ],
      "name": "getRoleAdmin",
      "outputs": [
        {
          "internalType": "bytes32",
          "name": "",
          "type": "bytes32"
        }
      ],
      "stateMutability": "view",
      "type": "function",
      "constant": true
    },
    {
      "inputs": [
        {
          "internalType": "bytes32",
          "name": "role",
          "type": "bytes32"
        },
        {
          "internalType": "address",
          "name": "account",
          "type": "address"
        }
      ],
      "name": "grantRole",
      "outputs": [],
      "stateMutability": "nonpayable",
      "type": "function"
    },
    {
      "inputs": [
        {
          "internalType": "bytes32",
          "name": "role",
          "type": "bytes32"
        },
        {
          "internalType": "address",
          "name": "account",
          "type": "address"
        }
      ],
      "name": "hasRole",
      "outputs": [
        {
          "internalType": "bool",
          "name": "",
          "type": "bool"
        }
      ],
      "stateMutability": "view",
      "type": "function",
      "constant": true
    },
    {
      "inputs": [
        {
          "internalType": "address",
          "name": "account",
          "type": "address"
        },
        {
          "internalType": "uint256",
          "name": "value",
          "type": "uint256"
        }
      ],
      "name": "mint",
      "outputs": [
        {
          "internalType": "bool",
          "name": "success",
          "type": "bool"
        }
      ],
      "stateMutability": "nonpayable",
      "type": "function"
    },
    {
      "inputs": [],
      "name": "name",
      "outputs": [
        {
          "internalType": "string",
          "name": "",
          "type": "string"
        }
      ],
      "stateMutability": "view",
      "type": "function",
      "constant": true
    },
    {
      "inputs": [
        {
          "internalType": "bytes32",
          "name": "role",
          "type": "bytes32"
        },
        {
          "internalType": "address",
          "name": "account",
          "type": "address"
        }
      ],
      "name": "renounceRole",
      "outputs": [],
      "stateMutability": "nonpayable",
      "type": "function"
    },
    {
      "inputs": [
        {
          "internalType": "bytes32",
          "name": "role",
          "type": "bytes32"
        },
        {
          "internalType": "address",
          "name": "account",
          "type": "address"
        }
      ],
      "name": "revokeRole",
      "outputs": [],
      "stateMutability": "nonpayable",
      "type": "function"
    },
    {
      "inputs": [],
      "name": "standard",
      "outputs": [
        {
          "internalType": "string",
          "name": "",
          "type": "string"
        }
      ],
      "stateMutability": "pure",
      "type": "function",
      "constant": true
    },
    {
      "inputs": [
        {
          "internalType": "bytes4",
          "name": "interfaceId",
          "type": "bytes4"
        }
      ],
      "name": "supportsInterface",
      "outputs": [
        {
          "internalType": "bool",
          "name": "",
          "type": "bool"
        }
      ],
      "stateMutability": "view",
      "type": "function",
      "constant": true
    },
    {
      "inputs": [],
      "name": "symbol",
      "outputs": [
        {
          "internalType": "string",
          "name": "",
          "type": "string"
        }
      ],
      "stateMutability": "view",
      "type": "function",
      "constant": true
    },
    {
      "inputs": [],
      "name": "totalSupply",
      "outputs": [
        {
          "internalType": "uint256",
          "name": "",
          "type": "uint256"
        }
      ],
      "stateMutability": "view",
      "type": "function",
      "constant": true
    },
    {
      "inputs": [
        {
          "internalType": "address",
          "name": "_to",
          "type": "address"
        },
        {
          "internalType": "uint256",
          "name": "_value",
          "type": "uint256"
        }
      ],
      "name": "transfer",
      "outputs": [
        {
          "internalType": "bool",
          "name": "success",
          "type": "bool"
        }
      ],
      "stateMutability": "nonpayable",
      "type": "function"
    },
    {
      "inputs": [
        {
          "internalType": "address",
          "name": "_to",
          "type": "address"
        },
        {
          "internalType": "uint256",
          "name": "_value",
          "type": "uint256"
        },
        {
          "internalType": "bytes",
          "name": "_data",
          "type": "bytes"
        }
      ],
      "name": "transfer",
      "outputs": [
        {
          "internalType": "bool",
          "name": "success",
          "type": "bool"
        }
      ],
      "stateMutability": "nonpayable",
      "type": "function"
    },
    {
      "inputs": [
        {
          "internalType": "uint256",
          "name": "value",
          "type": "uint256"
        }
      ],
      "name": "burn",
      "outputs": [],
      "stateMutability": "nonpayable",
      "type": "function"
    },
    {
      "inputs": [
        {
          "internalType": "address",
          "name": "_address",
          "type": "address"
        },
        {
          "internalType": "uint256",
          "name": "_value",
          "type": "uint256"
        }
      ],
      "name": "burn",
      "outputs": [],
      "stateMutability": "nonpayable",
      "type": "function"
    }
  ],
  "bytecode": "0x60806040523480156200001157600080fd5b506040518060400160405280600b81526020017f566f74696e67546f6b656e0000000000000000000000000000000000000000008152506040518060400160405280600281526020017f565400000000000000000000000000000000000000000000000000000000000081525060008260019080519060200190620000989291906200026c565b508160029080519060200190620000b19291906200026c565b5080600360006101000a81548160ff021916908360ff1602179055506000600481905550620000ea6000801b33620000f360201b60201c565b50505062000380565b6200010582826200010960201b60201c565b5050565b6200011b8282620001fa60201b60201c565b620001f657600160008084815260200190815260200160002060000160008373ffffffffffffffffffffffffffffffffffffffff1673ffffffffffffffffffffffffffffffffffffffff16815260200190815260200160002060006101000a81548160ff0219169083151502179055506200019b6200026460201b60201c565b73ffffffffffffffffffffffffffffffffffffffff168173ffffffffffffffffffffffffffffffffffffffff16837f2f8788117e7eff1d82e926ec794901d17c78024a50270940304540a733656f0d60405160405180910390a45b5050565b600080600084815260200190815260200160002060000160008373ffffffffffffffffffffffffffffffffffffffff1673ffffffffffffffffffffffffffffffffffffffff16815260200190815260200160002060009054906101000a900460ff16905092915050565b600033905090565b8280546200027a906200034b565b90600052602060002090601f0160209004810192826200029e5760008555620002ea565b82601f10620002b957805160ff1916838001178555620002ea565b82800160010185558215620002ea579182015b82811115620002e9578251825591602001919060010190620002cc565b5b509050620002f99190620002fd565b5090565b5b8082111562000318576000816000905550600101620002fe565b5090565b7f4e487b7100000000000000000000000000000000000000000000000000000000600052602260045260246000fd5b600060028204905060018216806200036457607f821691505b6020821081036200037a57620003796200031c565b5b50919050565b611c2f80620003906000396000f3fe608060405234801561001057600080fd5b506004361061012c5760003560e01c806342966c68116100ad5780639dc29fac116100715780639dc29fac14610359578063a217fddf14610375578063a9059cbb14610393578063be45fd62146103c3578063d547741f146103f35761012c565b806342966c68146102a15780635a3b7e42146102bd57806370a08231146102db57806391d148541461030b57806395d89b411461033b5761012c565b806327e235e3116100f457806327e235e3146101eb5780632f2ff15d1461021b578063313ce5671461023757806336568abe1461025557806340c10f19146102715761012c565b806301ffc9a71461013157806306fdde0314610161578063117803e31461017f57806318160ddd1461019d578063248a9ca3146101bb575b600080fd5b61014b60048036038101906101469190611282565b61040f565b60405161015891906112ca565b60405180910390f35b610169610489565b604051610176919061137e565b60405180910390f35b61018761051b565b60405161019491906113b9565b60405180910390f35b6101a561053f565b6040516101b291906113ed565b60405180910390f35b6101d560048036038101906101d09190611434565b610549565b6040516101e291906113b9565b60405180910390f35b610205600480360381019061020091906114bf565b610568565b60405161021291906113ed565b60405180910390f35b610235600480360381019061023091906114ec565b610580565b005b61023f6105a1565b60405161024c9190611548565b60405180910390f35b61026f600480360381019061026a91906114ec565b6105b8565b005b61028b6004803603810190610286919061158f565b61063b565b60405161029891906112ca565b60405180910390f35b6102bb60048036038101906102b691906115cf565b6107af565b005b6102c56108b6565b6040516102d2919061137e565b60405180910390f35b6102f560048036038101906102f091906114bf565b6108f3565b60405161030291906113ed565b60405180910390f35b610325600480360381019061032091906114ec565b61093c565b60405161033291906112ca565b60405180910390f35b6103436109a6565b604051610350919061137e565b60405180910390f35b610373600480360381019061036e919061158f565b610a38565b005b61037d610b6b565b60405161038a91906113b9565b60405180910390f35b6103ad60048036038101906103a8919061158f565b610b72565b6040516103ba91906112ca565b60405180910390f35b6103dd60048036038101906103d89190611661565b610c12565b6040516103ea91906112ca565b60405180910390f35b61040d600480360381019061040891906114ec565b610ca0565b005b60007f7965db0b000000000000000000000000000000000000000000000000000000007bffffffffffffffffffffffffffffffffffffffffffffffffffffffff1916827bffffffffffffffffffffffffffffffffffffffffffffffffffffffff19161480610482575061048182610cc1565b5b9050919050565b60606001805461049890611704565b80601f01602080910402602001604051908101604052809291908181526020018280546104c490611704565b80156105115780601f106104e657610100808354040283529160200191610511565b820191906000526020600020905b8154815290600101906020018083116104f457829003601f168201915b5050505050905090565b7f6270edb7c868f86fda4adedba75108201087268ea345934db8bad688e1feb91b81565b6000600454905090565b6000806000838152602001908152602001600020600101549050919050565b60056020528060005260406000206000915090505481565b61058982610549565b61059281610d2b565b61059c8383610d3f565b505050565b6000600360009054906101000a900460ff16905090565b6105c0610e1f565b73ffffffffffffffffffffffffffffffffffffffff168173ffffffffffffffffffffffffffffffffffffffff161461062d576040517f08c379a0000000000000000000000000000000000000000000000000000000008152600401610624906117a7565b60405180910390fd5b6106378282610e27565b5050565b60007f6270edb7c868f86fda4adedba75108201087268ea345934db8bad688e1feb91b61066781610d2b565b600073ffffffffffffffffffffffffffffffffffffffff168473ffffffffffffffffffffffffffffffffffffffff16036106a057600080fd5b6106ac60045484610f08565b6004819055506106fb600560008673ffffffffffffffffffffffffffffffffffffffff1673ffffffffffffffffffffffffffffffffffffffff1681526020019081526020016000205484610f08565b600560008673ffffffffffffffffffffffffffffffffffffffff1673ffffffffffffffffffffffffffffffffffffffff168152602001908152602001600020819055508373ffffffffffffffffffffffffffffffffffffffff16600073ffffffffffffffffffffffffffffffffffffffff167fddf252ad1be2c89b69c2b068fc378daa952ba7f163c4a11628f55a4df523b3ef8560405161079c91906113ed565b60405180910390a3600191505092915050565b6107bb60045482610f1e565b60048190555061080a600560003373ffffffffffffffffffffffffffffffffffffffff1673ffffffffffffffffffffffffffffffffffffffff1681526020019081526020016000205482610f1e565b600560003373ffffffffffffffffffffffffffffffffffffffff1673ffffffffffffffffffffffffffffffffffffffff16815260200190815260200160002081905550600073ffffffffffffffffffffffffffffffffffffffff163373ffffffffffffffffffffffffffffffffffffffff167fddf252ad1be2c89b69c2b068fc378daa952ba7f163c4a11628f55a4df523b3ef836040516108ab91906113ed565b60405180910390a350565b60606040518060400160405280600681526020017f6572633232330000000000000000000000000000000000000000000000000000815250905090565b6000600560008373ffffffffffffffffffffffffffffffffffffffff1673ffffffffffffffffffffffffffffffffffffffff168152602001908152602001600020549050919050565b600080600084815260200190815260200160002060000160008373ffffffffffffffffffffffffffffffffffffffff1673ffffffffffffffffffffffffffffffffffffffff16815260200190815260200160002060009054906101000a900460ff16905092915050565b6060600280546109b590611704565b80601f01602080910402602001604051908101604052809291908181526020018280546109e190611704565b8015610a2e5780601f10610a0357610100808354040283529160200191610a2e565b820191906000526020600020905b815481529060010190602001808311610a1157829003601f168201915b5050505050905090565b7f6270edb7c868f86fda4adedba75108201087268ea345934db8bad688e1feb91b610a6281610d2b565b610a6e60045483610f1e565b600481905550610abd600560008573ffffffffffffffffffffffffffffffffffffffff1673ffffffffffffffffffffffffffffffffffffffff1681526020019081526020016000205483610f1e565b600560008573ffffffffffffffffffffffffffffffffffffffff1673ffffffffffffffffffffffffffffffffffffffff16815260200190815260200160002081905550600073ffffffffffffffffffffffffffffffffffffffff168373ffffffffffffffffffffffffffffffffffffffff167fddf252ad1be2c89b69c2b068fc378daa952ba7f163c4a11628f55a4df523b3ef84604051610b5e91906113ed565b60405180910390a3505050565b6000801b81565b6000610b7d83610f34565b15610c08578273ffffffffffffffffffffffffffffffffffffffff1663c0ee0b8a338460405180604001604052806004815260200160008152506040518463ffffffff1660e01b8152600401610bd59392919061182b565b600060405180830381600087803b158015610bef57600080fd5b505af1158015610c03573d6000803e3d6000fd5b505050505b6000905092915050565b6000610c1d85610f34565b15610c94578473ffffffffffffffffffffffffffffffffffffffff1663c0ee0b8a338686866040518563ffffffff1660e01b8152600401610c6194939291906118a5565b600060405180830381600087803b158015610c7b57600080fd5b505af1158015610c8f573d6000803e3d6000fd5b505050505b60009050949350505050565b610ca982610549565b610cb281610d2b565b610cbc8383610e27565b505050565b60007f01ffc9a7000000000000000000000000000000000000000000000000000000007bffffffffffffffffffffffffffffffffffffffffffffffffffffffff1916827bffffffffffffffffffffffffffffffffffffffffffffffffffffffff1916149050919050565b610d3c81610d37610e1f565b610f47565b50565b610d49828261093c565b610e1b57600160008084815260200190815260200160002060000160008373ffffffffffffffffffffffffffffffffffffffff1673ffffffffffffffffffffffffffffffffffffffff16815260200190815260200160002060006101000a81548160ff021916908315150217905550610dc0610e1f565b73ffffffffffffffffffffffffffffffffffffffff168173ffffffffffffffffffffffffffffffffffffffff16837f2f8788117e7eff1d82e926ec794901d17c78024a50270940304540a733656f0d60405160405180910390a45b5050565b600033905090565b610e31828261093c565b15610f0457600080600084815260200190815260200160002060000160008373ffffffffffffffffffffffffffffffffffffffff1673ffffffffffffffffffffffffffffffffffffffff16815260200190815260200160002060006101000a81548160ff021916908315150217905550610ea9610e1f565b73ffffffffffffffffffffffffffffffffffffffff168173ffffffffffffffffffffffffffffffffffffffff16837ff6391f5c32d9c69d2a47ea670b442974b53935d1edc7fd64eb21e047a839171b60405160405180910390a45b5050565b60008183610f169190611914565b905092915050565b60008183610f2c919061196a565b905092915050565b600080823b905060008111915050919050565b610f51828261093c565b610fe057610f768173ffffffffffffffffffffffffffffffffffffffff166014610fe4565b610f848360001c6020610fe4565b604051602001610f95929190611a72565b6040516020818303038152906040526040517f08c379a0000000000000000000000000000000000000000000000000000000008152600401610fd7919061137e565b60405180910390fd5b5050565b606060006002836002610ff79190611aac565b6110019190611914565b67ffffffffffffffff81111561101a57611019611b06565b5b6040519080825280601f01601f19166020018201604052801561104c5781602001600182028036833780820191505090505b5090507f30000000000000000000000000000000000000000000000000000000000000008160008151811061108457611083611b35565b5b60200101907effffffffffffffffffffffffffffffffffffffffffffffffffffffffffffff1916908160001a9053507f7800000000000000000000000000000000000000000000000000000000000000816001815181106110e8576110e7611b35565b5b60200101907effffffffffffffffffffffffffffffffffffffffffffffffffffffffffffff1916908160001a905350600060018460026111289190611aac565b6111329190611914565b90505b60018111156111d2577f3031323334353637383961626364656600000000000000000000000000000000600f86166010811061117457611173611b35565b5b1a60f81b82828151811061118b5761118a611b35565b5b60200101907effffffffffffffffffffffffffffffffffffffffffffffffffffffffffffff1916908160001a905350600485901c9450806111cb90611b64565b9050611135565b5060008414611216576040517f08c379a000000000000000000000000000000000000000000000000000000000815260040161120d90611bd9565b60405180910390fd5b8091505092915050565b600080fd5b600080fd5b60007fffffffff0000000000000000000000000000000000000000000000000000000082169050919050565b61125f8161122a565b811461126a57600080fd5b50565b60008135905061127c81611256565b92915050565b60006020828403121561129857611297611220565b5b60006112a68482850161126d565b91505092915050565b60008115159050919050565b6112c4816112af565b82525050565b60006020820190506112df60008301846112bb565b92915050565b600081519050919050565b600082825260208201905092915050565b60005b8381101561131f578082015181840152602081019050611304565b8381111561132e576000848401525b50505050565b6000601f19601f8301169050919050565b6000611350826112e5565b61135a81856112f0565b935061136a818560208601611301565b61137381611334565b840191505092915050565b600060208201905081810360008301526113988184611345565b905092915050565b6000819050919050565b6113b3816113a0565b82525050565b60006020820190506113ce60008301846113aa565b92915050565b6000819050919050565b6113e7816113d4565b82525050565b600060208201905061140260008301846113de565b92915050565b611411816113a0565b811461141c57600080fd5b50565b60008135905061142e81611408565b92915050565b60006020828403121561144a57611449611220565b5b60006114588482850161141f565b91505092915050565b600073ffffffffffffffffffffffffffffffffffffffff82169050919050565b600061148c82611461565b9050919050565b61149c81611481565b81146114a757600080fd5b50565b6000813590506114b981611493565b92915050565b6000602082840312156114d5576114d4611220565b5b60006114e3848285016114aa565b91505092915050565b6000806040838503121561150357611502611220565b5b60006115118582860161141f565b9250506020611522858286016114aa565b9150509250929050565b600060ff82169050919050565b6115428161152c565b82525050565b600060208201905061155d6000830184611539565b92915050565b61156c816113d4565b811461157757600080fd5b50565b60008135905061158981611563565b92915050565b600080604083850312156115a6576115a5611220565b5b60006115b4858286016114aa565b92505060206115c58582860161157a565b9150509250929050565b6000602082840312156115e5576115e4611220565b5b60006115f38482850161157a565b91505092915050565b600080fd5b600080fd5b600080fd5b60008083601f840112611621576116206115fc565b5b8235905067ffffffffffffffff81111561163e5761163d611601565b5b60208301915083600182028301111561165a57611659611606565b5b9250929050565b6000806000806060858703121561167b5761167a611220565b5b6000611689878288016114aa565b945050602061169a8782880161157a565b935050604085013567ffffffffffffffff8111156116bb576116ba611225565b5b6116c78782880161160b565b925092505092959194509250565b7f4e487b7100000000000000000000000000000000000000000000000000000000600052602260045260246000fd5b6000600282049050600182168061171c57607f821691505b60208210810361172f5761172e6116d5565b5b50919050565b7f416363657373436f6e74726f6c3a2063616e206f6e6c792072656e6f756e636560008201527f20726f6c657320666f722073656c660000000000000000000000000000000000602082015250565b6000611791602f836112f0565b915061179c82611735565b604082019050919050565b600060208201905081810360008301526117c081611784565b9050919050565b6117d081611481565b82525050565b600081519050919050565b600082825260208201905092915050565b60006117fd826117d6565b61180781856117e1565b9350611817818560208601611301565b61182081611334565b840191505092915050565b600060608201905061184060008301866117c7565b61184d60208301856113de565b818103604083015261185f81846117f2565b9050949350505050565b82818337600083830152505050565b600061188483856117e1565b9350611891838584611869565b61189a83611334565b840190509392505050565b60006060820190506118ba60008301876117c7565b6118c760208301866113de565b81810360408301526118da818486611878565b905095945050505050565b7f4e487b7100000000000000000000000000000000000000000000000000000000600052601160045260246000fd5b600061191f826113d4565b915061192a836113d4565b9250827fffffffffffffffffffffffffffffffffffffffffffffffffffffffffffffffff0382111561195f5761195e6118e5565b5b828201905092915050565b6000611975826113d4565b9150611980836113d4565b925082821015611993576119926118e5565b5b828203905092915050565b600081905092915050565b7f416363657373436f6e74726f6c3a206163636f756e7420000000000000000000600082015250565b60006119df60178361199e565b91506119ea826119a9565b601782019050919050565b6000611a00826112e5565b611a0a818561199e565b9350611a1a818560208601611301565b80840191505092915050565b7f206973206d697373696e6720726f6c6520000000000000000000000000000000600082015250565b6000611a5c60118361199e565b9150611a6782611a26565b601182019050919050565b6000611a7d826119d2565b9150611a8982856119f5565b9150611a9482611a4f565b9150611aa082846119f5565b91508190509392505050565b6000611ab7826113d4565b9150611ac2836113d4565b9250817fffffffffffffffffffffffffffffffffffffffffffffffffffffffffffffffff0483118215151615611afb57611afa6118e5565b5b828202905092915050565b7f4e487b7100000000000000000000000000000000000000000000000000000000600052604160045260246000fd5b7f4e487b7100000000000000000000000000000000000000000000000000000000600052603260045260246000fd5b6000611b6f826113d4565b915060008203611b8257611b816118e5565b5b600182039050919050565b7f537472696e67733a20686578206c656e67746820696e73756666696369656e74600082015250565b6000611bc36020836112f0565b9150611bce82611b8d565b602082019050919050565b60006020820190508181036000830152611bf281611bb6565b905091905056fea26469706673582212201e7e8f25781321c2e780247892df988d29e1db95c007bb856a215857b9351b1764736f6c634300080e0033",
  "immutableReferences": {},
  "source": "// SPDX-License-Identifier: MIT\n\n/*\n* ERC223 Token.\n*/\n\npragma solidity ^0.8.4;\n\nimport \"./ERC223Token.sol\";\n\ncontract VotingToken is ERC223Token {\n\n    constructor() ERC223Token(\"VotingToken\", \"VT\", 0) {\n    }\n\n    // Voting Token can not be transfered\n\n    function transfer(address _to, uint256 _value) public override returns (bool success){\n        // Standard function transfer similar to ERC20 transfer with no _data .\n        // Added due to backwards compatibility reasons .\n        if (Address.isContract(_to)) {\n            IERC223Recipient(_to).tokenFallback(msg.sender, _value, _empty);\n        }\n        return false;\n    }\n\n    function transfer(address _to, uint256 _value, bytes calldata _data) public override returns (bool success) {\n        if (Address.isContract(_to)) {\n            IERC223Recipient(_to).tokenFallback(msg.sender, _value, _data);\n        }\n        return false;\n    }\n\n    function burn(address _address, uint256 _value) public onlyRole(OWNER) {\n        ERC223Token._totalSupply = SafeMath.sub(ERC223Token._totalSupply, (_value));\n        ERC223Token.balances[_address] = SafeMath.sub(ERC223Token.balances[_address], (_value));\n        emit Transfer(_address, address(0), _value);\n    }\n\n}",
  "sourcePath": "/home/fabian/Documents/02_Uni/TU-Wien/Smart_Contracts/FinalProject/e12140504/contracts/VotingToken.sol",
  "compiler": {
    "name": "solc",
    "version": "0.8.14+commit.80d49f37.Emscripten.clang"
  },
  "schemaVersion": "3.4.7",
  "updatedAt": "2022-06-23T13:04:35.137Z",
  "networkType": "ethereum",
  "devdoc": {
    "kind": "dev",
    "methods": {
      "getRoleAdmin(bytes32)": {
        "details": "Returns the admin role that controls `role`. See {grantRole} and {revokeRole}. To change a role's admin, use {_setRoleAdmin}."
      },
      "grantRole(bytes32,address)": {
        "details": "Grants `role` to `account`. If `account` had not been already granted `role`, emits a {RoleGranted} event. Requirements: - the caller must have ``role``'s admin role."
      },
      "hasRole(bytes32,address)": {
        "details": "Returns `true` if `account` has been granted `role`."
      },
      "renounceRole(bytes32,address)": {
        "details": "Revokes `role` from the calling account. Roles are often managed via {grantRole} and {revokeRole}: this function's purpose is to provide a mechanism for accounts to lose their privileges if they are compromised (such as when a trusted device is misplaced). If the calling account had been revoked `role`, emits a {RoleRevoked} event. Requirements: - the caller must be `account`."
      },
      "revokeRole(bytes32,address)": {
        "details": "Revokes `role` from `account`. If `account` had been granted `role`, emits a {RoleRevoked} event. Requirements: - the caller must have ``role``'s admin role."
      },
      "supportsInterface(bytes4)": {
        "details": "See {IERC165-supportsInterface}."
      }
    },
    "version": 1
  },
  "userdoc": {
    "kind": "user",
    "methods": {},
    "version": 1
  }
}