{
  "contractName": "Voting",
  "abi": [
    {
      "inputs": [
        {
          "internalType": "address",
          "name": "VotingTokenAddress",
          "type": "address"
        },
        {
          "internalType": "address",
          "name": "admin",
          "type": "address"
        },
        {
          "internalType": "address",
          "name": "maintainer",
          "type": "address"
        }
      ],
      "stateMutability": "payable",
      "type": "constructor",
      "payable": true
    },
    {
      "anonymous": false,
      "inputs": [
        {
          "indexed": false,
          "internalType": "bytes32",
          "name": "uuid",
          "type": "bytes32"
        }
      ],
      "name": "Accepted",
      "type": "event"
    },
    {
      "anonymous": false,
      "inputs": [
        {
          "indexed": false,
          "internalType": "uint256",
          "name": "_votingTime",
          "type": "uint256"
        }
      ],
      "name": "ChangeVotingTime",
      "type": "event"
    },
    {
      "anonymous": false,
      "inputs": [
        {
          "indexed": false,
          "internalType": "bytes32",
          "name": "uuid",
          "type": "bytes32"
        }
      ],
      "name": "Done",
      "type": "event"
    },
    {
      "anonymous": false,
      "inputs": [
        {
          "indexed": false,
          "internalType": "address",
          "name": "_address",
          "type": "address"
        },
        {
          "indexed": false,
          "internalType": "bytes32",
          "name": "uuid",
          "type": "bytes32"
        }
      ],
      "name": "Propose",
      "type": "event"
    },
    {
      "anonymous": false,
      "inputs": [
        {
          "indexed": true,
          "internalType": "bytes32",
          "name": "role",
          "type": "bytes32"
        },
        {
          "indexed": true,
          "internalType": "bytes32",
          "name": "previousAdminRole",
          "type": "bytes32"
        },
        {
          "indexed": true,
          "internalType": "bytes32",
          "name": "newAdminRole",
          "type": "bytes32"
        }
      ],
      "name": "RoleAdminChanged",
      "type": "event"
    },
    {
      "anonymous": false,
      "inputs": [
        {
          "indexed": true,
          "internalType": "bytes32",
          "name": "role",
          "type": "bytes32"
        },
        {
          "indexed": true,
          "internalType": "address",
          "name": "account",
          "type": "address"
        },
        {
          "indexed": true,
          "internalType": "address",
          "name": "sender",
          "type": "address"
        }
      ],
      "name": "RoleGranted",
      "type": "event"
    },
    {
      "anonymous": false,
      "inputs": [
        {
          "indexed": true,
          "internalType": "bytes32",
          "name": "role",
          "type": "bytes32"
        },
        {
          "indexed": true,
          "internalType": "address",
          "name": "account",
          "type": "address"
        },
        {
          "indexed": true,
          "internalType": "address",
          "name": "sender",
          "type": "address"
        }
      ],
      "name": "RoleRevoked",
      "type": "event"
    },
    {
      "anonymous": false,
      "inputs": [
        {
          "indexed": false,
          "internalType": "address",
          "name": "_address",
          "type": "address"
        },
        {
          "indexed": false,
          "internalType": "bytes32",
          "name": "uuid",
          "type": "bytes32"
        }
      ],
      "name": "Unvote",
      "type": "event"
    },
    {
      "anonymous": false,
      "inputs": [
        {
          "indexed": false,
          "internalType": "address",
          "name": "_address",
          "type": "address"
        },
        {
          "indexed": false,
          "internalType": "bytes32",
          "name": "uuid",
          "type": "bytes32"
        }
      ],
      "name": "Vote",
      "type": "event"
    },
    {
      "inputs": [],
      "name": "ADMIN",
      "outputs": [
        {
          "internalType": "bytes32",
          "name": "",
          "type": "bytes32"
        }
      ],
      "stateMutability": "view",
      "type": "function",
      "constant": true
    },
    {
      "inputs": [],
      "name": "DEFAULT_ADMIN_ROLE",
      "outputs": [
        {
          "internalType": "bytes32",
          "name": "",
          "type": "bytes32"
        }
      ],
      "stateMutability": "view",
      "type": "function",
      "constant": true
    },
    {
      "inputs": [],
      "name": "MAINTAINER",
      "outputs": [
        {
          "internalType": "bytes32",
          "name": "",
          "type": "bytes32"
        }
      ],
      "stateMutability": "view",
      "type": "function",
      "constant": true
    },
    {
      "inputs": [],
      "name": "VotingTokenContract",
      "outputs": [
        {
          "internalType": "contract VotingToken",
          "name": "",
          "type": "address"
        }
      ],
      "stateMutability": "view",
      "type": "function",
      "constant": true
    },
    {
      "inputs": [
        {
          "internalType": "uint256",
          "name": "",
          "type": "uint256"
        }
      ],
      "name": "accepted",
      "outputs": [
        {
          "internalType": "uint256",
          "name": "time",
          "type": "uint256"
        },
        {
          "internalType": "address",
          "name": "author",
          "type": "address"
        },
        {
          "internalType": "uint256",
          "name": "votes",
          "type": "uint256"
        },
        {
          "internalType": "string",
          "name": "data",
          "type": "string"
        }
      ],
      "stateMutability": "view",
      "type": "function",
      "constant": true
    },
    {
      "inputs": [
        {
          "internalType": "uint256",
          "name": "",
          "type": "uint256"
        }
      ],
      "name": "done",
      "outputs": [
        {
          "internalType": "uint256",
          "name": "time",
          "type": "uint256"
        },
        {
          "internalType": "address",
          "name": "author",
          "type": "address"
        },
        {
          "internalType": "uint256",
          "name": "votes",
          "type": "uint256"
        },
        {
          "internalType": "string",
          "name": "data",
          "type": "string"
        }
      ],
      "stateMutability": "view",
      "type": "function",
      "constant": true
    },
    {
      "inputs": [
        {
          "internalType": "bytes32",
          "name": "role",
          "type": "bytes32"
        }
      ],
      "name": "getRoleAdmin",
      "outputs": [
        {
          "internalType": "bytes32",
          "name": "",
          "type": "bytes32"
        }
      ],
      "stateMutability": "view",
      "type": "function",
      "constant": true
    },
    {
      "inputs": [
        {
          "internalType": "bytes32",
          "name": "role",
          "type": "bytes32"
        },
        {
          "internalType": "address",
          "name": "account",
          "type": "address"
        }
      ],
      "name": "grantRole",
      "outputs": [],
      "stateMutability": "nonpayable",
      "type": "function"
    },
    {
      "inputs": [
        {
          "internalType": "bytes32",
          "name": "role",
          "type": "bytes32"
        },
        {
          "internalType": "address",
          "name": "account",
          "type": "address"
        }
      ],
      "name": "hasRole",
      "outputs": [
        {
          "internalType": "bool",
          "name": "",
          "type": "bool"
        }
      ],
      "stateMutability": "view",
      "type": "function",
      "constant": true
    },
    {
      "inputs": [
        {
          "internalType": "uint256",
          "name": "",
          "type": "uint256"
        }
      ],
      "name": "proposalUuids",
      "outputs": [
        {
          "internalType": "bytes32",
          "name": "",
          "type": "bytes32"
        }
      ],
      "stateMutability": "view",
      "type": "function",
      "constant": true
    },
    {
      "inputs": [
        {
          "internalType": "bytes32",
          "name": "role",
          "type": "bytes32"
        },
        {
          "internalType": "address",
          "name": "account",
          "type": "address"
        }
      ],
      "name": "renounceRole",
      "outputs": [],
      "stateMutability": "nonpayable",
      "type": "function"
    },
    {
      "inputs": [
        {
          "internalType": "bytes32",
          "name": "role",
          "type": "bytes32"
        },
        {
          "internalType": "address",
          "name": "account",
          "type": "address"
        }
      ],
      "name": "revokeRole",
      "outputs": [],
      "stateMutability": "nonpayable",
      "type": "function"
    },
    {
      "inputs": [
        {
          "internalType": "bytes4",
          "name": "interfaceId",
          "type": "bytes4"
        }
      ],
      "name": "supportsInterface",
      "outputs": [
        {
          "internalType": "bool",
          "name": "",
          "type": "bool"
        }
      ],
      "stateMutability": "view",
      "type": "function",
      "constant": true
    },
    {
      "inputs": [
        {
          "internalType": "string",
          "name": "data",
          "type": "string"
        }
      ],
      "name": "propose",
      "outputs": [
        {
          "internalType": "bytes32",
          "name": "uuid",
          "type": "bytes32"
        }
      ],
      "stateMutability": "nonpayable",
      "type": "function"
    },
    {
      "inputs": [],
      "name": "getAllProposals",
      "outputs": [
        {
          "internalType": "bytes32[]",
          "name": "",
          "type": "bytes32[]"
        }
      ],
      "stateMutability": "view",
      "type": "function",
      "constant": true
    },
    {
      "inputs": [
        {
          "internalType": "bytes32",
          "name": "uuid",
          "type": "bytes32"
        }
      ],
      "name": "getProposal",
      "outputs": [
        {
          "components": [
            {
              "internalType": "uint256",
              "name": "time",
              "type": "uint256"
            },
            {
              "internalType": "address",
              "name": "author",
              "type": "address"
            },
            {
              "internalType": "uint256",
              "name": "votes",
              "type": "uint256"
            },
            {
              "internalType": "string",
              "name": "data",
              "type": "string"
            }
          ],
          "internalType": "struct Voting.Proposal",
          "name": "proposal",
          "type": "tuple"
        }
      ],
      "stateMutability": "view",
      "type": "function",
      "constant": true
    },
    {
      "inputs": [
        {
          "internalType": "bytes32",
          "name": "uuid",
          "type": "bytes32"
        }
      ],
      "name": "vote",
      "outputs": [
        {
          "internalType": "bool",
          "name": "",
          "type": "bool"
        }
      ],
      "stateMutability": "nonpayable",
      "type": "function"
    },
    {
      "inputs": [
        {
          "internalType": "bytes32",
          "name": "uuid",
          "type": "bytes32"
        }
      ],
      "name": "unvote",
      "outputs": [
        {
          "internalType": "bool",
          "name": "",
          "type": "bool"
        }
      ],
      "stateMutability": "nonpayable",
      "type": "function"
    },
    {
      "inputs": [
        {
          "internalType": "bytes32",
          "name": "uuid",
          "type": "bytes32"
        }
      ],
      "name": "votingEnd",
      "outputs": [
        {
          "internalType": "uint256",
          "name": "",
          "type": "uint256"
        }
      ],
      "stateMutability": "view",
      "type": "function",
      "constant": true
    },
    {
      "inputs": [
        {
          "internalType": "uint256",
          "name": "_votingTime",
          "type": "uint256"
        }
      ],
      "name": "changeVotingTime",
      "outputs": [],
      "stateMutability": "nonpayable",
      "type": "function"
    },
    {
      "inputs": [
        {
          "internalType": "bytes32",
          "name": "uuid",
          "type": "bytes32"
        }
      ],
      "name": "setAccepted",
      "outputs": [],
      "stateMutability": "nonpayable",
      "type": "function"
    },
    {
      "inputs": [],
      "name": "getAccepted",
      "outputs": [
        {
          "components": [
            {
              "internalType": "uint256",
              "name": "time",
              "type": "uint256"
            },
            {
              "internalType": "address",
              "name": "author",
              "type": "address"
            },
            {
              "internalType": "uint256",
              "name": "votes",
              "type": "uint256"
            },
            {
              "internalType": "string",
              "name": "data",
              "type": "string"
            }
          ],
          "internalType": "struct Voting.Proposal[]",
          "name": "",
          "type": "tuple[]"
        }
      ],
      "stateMutability": "view",
      "type": "function",
      "constant": true
    },
    {
      "inputs": [
        {
          "internalType": "bytes32",
          "name": "uuid",
          "type": "bytes32"
        }
      ],
      "name": "setDone",
      "outputs": [],
      "stateMutability": "nonpayable",
      "type": "function"
    },
    {
      "inputs": [],
      "name": "getDone",
      "outputs": [
        {
          "components": [
            {
              "internalType": "uint256",
              "name": "time",
              "type": "uint256"
            },
            {
              "internalType": "address",
              "name": "author",
              "type": "address"
            },
            {
              "internalType": "uint256",
              "name": "votes",
              "type": "uint256"
            },
            {
              "internalType": "string",
              "name": "data",
              "type": "string"
            }
          ],
          "internalType": "struct Voting.Proposal[]",
          "name": "",
          "type": "tuple[]"
        }
      ],
      "stateMutability": "view",
      "type": "function",
      "constant": true
    }
  ],
  "bytecode": "0x6080604052621275006007556040516200375d3803806200375d8339818101604052810190620000309190620002d6565b82600160006101000a81548173ffffffffffffffffffffffffffffffffffffffff021916908373ffffffffffffffffffffffffffffffffffffffff160217905550620000866000801b33620000f360201b60201c565b620000b87fdf8b4c520ffe197c5343c6f5aec59570151ef9a492f2c624fd45ddde6135ec4283620000f360201b60201c565b620000ea7fd88b35d7427a01a8e16d8a129535b4cf3150edf8d92c0a44dc1eba73bdaf18cb82620000f360201b60201c565b50505062000332565b6200010582826200010960201b60201c565b5050565b6200011b8282620001fa60201b60201c565b620001f657600160008084815260200190815260200160002060000160008373ffffffffffffffffffffffffffffffffffffffff1673ffffffffffffffffffffffffffffffffffffffff16815260200190815260200160002060006101000a81548160ff0219169083151502179055506200019b6200026460201b60201c565b73ffffffffffffffffffffffffffffffffffffffff168173ffffffffffffffffffffffffffffffffffffffff16837f2f8788117e7eff1d82e926ec794901d17c78024a50270940304540a733656f0d60405160405180910390a45b5050565b600080600084815260200190815260200160002060000160008373ffffffffffffffffffffffffffffffffffffffff1673ffffffffffffffffffffffffffffffffffffffff16815260200190815260200160002060009054906101000a900460ff16905092915050565b600033905090565b600080fd5b600073ffffffffffffffffffffffffffffffffffffffff82169050919050565b60006200029e8262000271565b9050919050565b620002b08162000291565b8114620002bc57600080fd5b50565b600081519050620002d081620002a5565b92915050565b600080600060608486031215620002f257620002f16200026c565b5b60006200030286828701620002bf565b93505060206200031586828701620002bf565b92505060406200032886828701620002bf565b9150509250925092565b61341b80620003426000396000f3fe608060405234801561001057600080fd5b50600436106101585760003560e01c8063849074ea116100c3578063b1f6a4bf1161007c578063b1f6a4bf14610416578063cceb68f514610446578063d547741f14610464578063e8738fd514610480578063f196475a1461049c578063f19b8273146104ba57610158565b8063849074ea1461031a57806391d1485414610338578063960bfbf414610368578063a217fddf14610398578063a69beaba146103b6578063aa98df39146103e657610158565b806336568abe1161011557806336568abe14610245578063430694cf1461026157806345cec8be1461029157806358a743c7146102ad5780637e420bad146102e057806382af7869146102fe57610158565b806301ffc9a71461015d5780632345756f1461018d578063248a9ca3146101bd5780632a0acc6a146101ed5780632aabb7261461020b5780632f2ff15d14610229575b600080fd5b61017760048036038101906101729190612029565b6104ed565b6040516101849190612071565b60405180910390f35b6101a760048036038101906101a291906120c2565b610567565b6040516101b49190612108565b60405180910390f35b6101d760048036038101906101d291906120c2565b610592565b6040516101e49190612132565b60405180910390f35b6101f56105b1565b6040516102029190612132565b60405180910390f35b6102136105d5565b6040516102209190612132565b60405180910390f35b610243600480360381019061023e91906121ab565b6105f9565b005b61025f600480360381019061025a91906121ab565b61061a565b005b61027b600480360381019061027691906120c2565b61069d565b6040516102889190612305565b60405180910390f35b6102ab60048036038101906102a691906120c2565b6107c6565b005b6102c760048036038101906102c29190612353565b610945565b6040516102d794939291906123d9565b60405180910390f35b6102e8610a2d565b6040516102f5919061254a565b60405180910390f35b61031860048036038101906103139190612353565b610b88565b005b610322610bf4565b60405161032f91906125cb565b60405180910390f35b610352600480360381019061034d91906121ab565b610c1a565b60405161035f9190612071565b60405180910390f35b610382600480360381019061037d9190612353565b610c84565b60405161038f9190612132565b60405180910390f35b6103a0610ca8565b6040516103ad9190612132565b60405180910390f35b6103d060048036038101906103cb91906120c2565b610caf565b6040516103dd9190612071565b60405180910390f35b61040060048036038101906103fb919061271b565b610f68565b60405161040d9190612132565b60405180910390f35b610430600480360381019061042b91906120c2565b61133f565b60405161043d9190612071565b60405180910390f35b61044e6115f8565b60405161045b9190612822565b60405180910390f35b61047e600480360381019061047991906121ab565b611650565b005b61049a600480360381019061049591906120c2565b611671565b005b6104a46117f0565b6040516104b1919061254a565b60405180910390f35b6104d460048036038101906104cf9190612353565b61194b565b6040516104e494939291906123d9565b60405180910390f35b60007f7965db0b000000000000000000000000000000000000000000000000000000007bffffffffffffffffffffffffffffffffffffffffffffffffffffffff1916827bffffffffffffffffffffffffffffffffffffffffffffffffffffffff19161480610560575061055f82611a33565b5b9050919050565b600061058b6002600084815260200190815260200160002060000154600754611a9d565b9050919050565b6000806000838152602001908152602001600020600101549050919050565b7fdf8b4c520ffe197c5343c6f5aec59570151ef9a492f2c624fd45ddde6135ec4281565b7fd88b35d7427a01a8e16d8a129535b4cf3150edf8d92c0a44dc1eba73bdaf18cb81565b61060282610592565b61060b81611ab3565b6106158383611ac7565b505050565b610622611ba7565b73ffffffffffffffffffffffffffffffffffffffff168173ffffffffffffffffffffffffffffffffffffffff161461068f576040517f08c379a0000000000000000000000000000000000000000000000000000000008152600401610686906128b6565b60405180910390fd5b6106998282611baf565b5050565b6106a5611f7f565b60026000838152602001908152602001600020604051806080016040529081600082015481526020016001820160009054906101000a900473ffffffffffffffffffffffffffffffffffffffff1673ffffffffffffffffffffffffffffffffffffffff1673ffffffffffffffffffffffffffffffffffffffff1681526020016002820154815260200160038201805461073d90612905565b80601f016020809104026020016040519081016040528092919081815260200182805461076990612905565b80156107b65780601f1061078b576101008083540402835291602001916107b6565b820191906000526020600020905b81548152906001019060200180831161079957829003601f168201915b5050505050815250509050919050565b7fd88b35d7427a01a8e16d8a129535b4cf3150edf8d92c0a44dc1eba73bdaf18cb6107f081611ab3565b426107fa83610567565b1161083a576040517f08c379a000000000000000000000000000000000000000000000000000000000815260040161083190612982565b60405180910390fd5b6003600260008481526020019081526020016000209080600181540180825580915050600190039060005260206000209060040201600090919091909150600082015481600001556001820160009054906101000a900473ffffffffffffffffffffffffffffffffffffffff168160010160006101000a81548173ffffffffffffffffffffffffffffffffffffffff021916908373ffffffffffffffffffffffffffffffffffffffff16021790555060028201548160020155600382018160030190816109079190612b5a565b5050507f1f3c0697c3ada95f9e84a917995664b76cd8b4ae5de25e77ee111122ae3a00d0826040516109399190612132565b60405180910390a15050565b6004818154811061095557600080fd5b90600052602060002090600402016000915090508060000154908060010160009054906101000a900473ffffffffffffffffffffffffffffffffffffffff16908060020154908060030180546109aa90612905565b80601f01602080910402602001604051908101604052809291908181526020018280546109d690612905565b8015610a235780601f106109f857610100808354040283529160200191610a23565b820191906000526020600020905b815481529060010190602001808311610a0657829003601f168201915b5050505050905084565b60606004805480602002602001604051908101604052809291908181526020016000905b82821015610b7f5783829060005260206000209060040201604051806080016040529081600082015481526020016001820160009054906101000a900473ffffffffffffffffffffffffffffffffffffffff1673ffffffffffffffffffffffffffffffffffffffff1673ffffffffffffffffffffffffffffffffffffffff16815260200160028201548152602001600382018054610aee90612905565b80601f0160208091040260200160405190810160405280929190818152602001828054610b1a90612905565b8015610b675780601f10610b3c57610100808354040283529160200191610b67565b820191906000526020600020905b815481529060010190602001808311610b4a57829003601f168201915b50505050508152505081526020019060010190610a51565b50505050905090565b7fdf8b4c520ffe197c5343c6f5aec59570151ef9a492f2c624fd45ddde6135ec42610bb281611ab3565b816007819055507ff49ca0f57d13bbcfff8c5845f649bdf71fe9b682c32c0c198173caf8ac2194c682604051610be89190612108565b60405180910390a15050565b600160009054906101000a900473ffffffffffffffffffffffffffffffffffffffff1681565b600080600084815260200190815260200160002060000160008373ffffffffffffffffffffffffffffffffffffffff1673ffffffffffffffffffffffffffffffffffffffff16815260200190815260200160002060009054906101000a900460ff16905092915050565b60058181548110610c9457600080fd5b906000526020600020016000915090505481565b6000801b81565b600042610cbb83610567565b11610cfb576040517f08c379a0000000000000000000000000000000000000000000000000000000008152600401610cf290612cb4565b60405180910390fd5b6000600160009054906101000a900473ffffffffffffffffffffffffffffffffffffffff1673ffffffffffffffffffffffffffffffffffffffff166370a08231336040518263ffffffff1660e01b8152600401610d589190612cd4565b602060405180830381865afa158015610d75573d6000803e3d6000fd5b505050506040513d601f19601f82011682018060405250810190610d999190612d04565b905060008103610dde576040517f08c379a0000000000000000000000000000000000000000000000000000000008152600401610dd590612d7d565b60405180910390fd5b60011515600660003373ffffffffffffffffffffffffffffffffffffffff1673ffffffffffffffffffffffffffffffffffffffff168152602001908152602001600020600085815260200190815260200160002060009054906101000a900460ff16151503610e82576040517f08c379a0000000000000000000000000000000000000000000000000000000008152600401610e7990612de9565b60405180910390fd5b610ea2600260008581526020019081526020016000206002015482611a9d565b60026000858152602001908152602001600020600201819055506001600660003373ffffffffffffffffffffffffffffffffffffffff1673ffffffffffffffffffffffffffffffffffffffff168152602001908152602001600020600085815260200190815260200160002060006101000a81548160ff0219169083151502179055507fc1eff9d9e2ab8a2b29706e0c2818cd78972e60f1ce84c268a77005b0bece97c43384604051610f56929190612e09565b60405180910390a16001915050919050565b600080600160009054906101000a900473ffffffffffffffffffffffffffffffffffffffff1673ffffffffffffffffffffffffffffffffffffffff166370a08231336040518263ffffffff1660e01b8152600401610fc69190612cd4565b602060405180830381865afa158015610fe3573d6000803e3d6000fd5b505050506040513d601f19601f820116820180604052508101906110079190612d04565b03611047576040517f08c379a000000000000000000000000000000000000000000000000000000000815260040161103e90612d7d565b60405180910390fd5b60288251111561108c576040517f08c379a000000000000000000000000000000000000000000000000000000000815260040161108390612e7e565b60405180910390fd5b338260405160200161109f929190612f22565b6040516020818303038152906040528051906020012090506000600260008381526020019081526020016000206000015414611110576040517f08c379a000000000000000000000000000000000000000000000000000000000815260040161110790612f96565b60405180910390fd5b600060405180608001604052804281526020013373ffffffffffffffffffffffffffffffffffffffff168152602001600160009054906101000a900473ffffffffffffffffffffffffffffffffffffffff1673ffffffffffffffffffffffffffffffffffffffff166370a08231336040518263ffffffff1660e01b815260040161119a9190612cd4565b602060405180830381865afa1580156111b7573d6000803e3d6000fd5b505050506040513d601f19601f820116820180604052508101906111db9190612d04565b815260200184815250905080600260008481526020019081526020016000206000820151816000015560208201518160010160006101000a81548173ffffffffffffffffffffffffffffffffffffffff021916908373ffffffffffffffffffffffffffffffffffffffff16021790555060408201518160020155606082015181600301908161126a9190612fb6565b509050506001600660003373ffffffffffffffffffffffffffffffffffffffff1673ffffffffffffffffffffffffffffffffffffffff168152602001908152602001600020600084815260200190815260200160002060006101000a81548160ff02191690831515021790555060058290806001815401808255809150506001900390600052602060002001600090919091909150557f4a39ce763309f508271afaac253977439677efce679f6cd586a301d92e357d713383604051611331929190612e09565b60405180910390a150919050565b60004261134b83610567565b1061138b576040517f08c379a000000000000000000000000000000000000000000000000000000000815260040161138290612cb4565b60405180910390fd5b6000600160009054906101000a900473ffffffffffffffffffffffffffffffffffffffff1673ffffffffffffffffffffffffffffffffffffffff166370a08231336040518263ffffffff1660e01b81526004016113e89190612cd4565b602060405180830381865afa158015611405573d6000803e3d6000fd5b505050506040513d601f19601f820116820180604052508101906114299190612d04565b90506000810361146e576040517f08c379a000000000000000000000000000000000000000000000000000000000815260040161146590612d7d565b60405180910390fd5b60011515600660003373ffffffffffffffffffffffffffffffffffffffff1673ffffffffffffffffffffffffffffffffffffffff168152602001908152602001600020600085815260200190815260200160002060009054906101000a900460ff16151514611512576040517f08c379a0000000000000000000000000000000000000000000000000000000008152600401611509906130fa565b60405180910390fd5b611532600260008581526020019081526020016000206002015482611c90565b60026000858152602001908152602001600020600201819055506001600660003373ffffffffffffffffffffffffffffffffffffffff1673ffffffffffffffffffffffffffffffffffffffff168152602001908152602001600020600085815260200190815260200160002060006101000a81548160ff0219169083151502179055507f13b8a9974b28abbb565c6718cd06a2c7ee7f46790ce2d385457083c6aeba0a7033846040516115e6929190612e09565b60405180910390a16001915050919050565b6060600580548060200260200160405190810160405280929190818152602001828054801561164657602002820191906000526020600020905b815481526020019060010190808311611632575b5050505050905090565b61165982610592565b61166281611ab3565b61166c8383611baf565b505050565b7fd88b35d7427a01a8e16d8a129535b4cf3150edf8d92c0a44dc1eba73bdaf18cb61169b81611ab3565b426116a583610567565b116116e5576040517f08c379a00000000000000000000000000000000000000000000000000000000081526004016116dc90612982565b60405180910390fd5b6004600260008481526020019081526020016000209080600181540180825580915050600190039060005260206000209060040201600090919091909150600082015481600001556001820160009054906101000a900473ffffffffffffffffffffffffffffffffffffffff168160010160006101000a81548173ffffffffffffffffffffffffffffffffffffffff021916908373ffffffffffffffffffffffffffffffffffffffff16021790555060028201548160020155600382018160030190816117b29190612b5a565b5050507f18d3154e7ba84c63069fb198676788f205bca88896d2b08c6f17c821e6063718826040516117e49190612132565b60405180910390a15050565b60606003805480602002602001604051908101604052809291908181526020016000905b828210156119425783829060005260206000209060040201604051806080016040529081600082015481526020016001820160009054906101000a900473ffffffffffffffffffffffffffffffffffffffff1673ffffffffffffffffffffffffffffffffffffffff1673ffffffffffffffffffffffffffffffffffffffff168152602001600282015481526020016003820180546118b190612905565b80601f01602080910402602001604051908101604052809291908181526020018280546118dd90612905565b801561192a5780601f106118ff5761010080835404028352916020019161192a565b820191906000526020600020905b81548152906001019060200180831161190d57829003601f168201915b50505050508152505081526020019060010190611814565b50505050905090565b6003818154811061195b57600080fd5b90600052602060002090600402016000915090508060000154908060010160009054906101000a900473ffffffffffffffffffffffffffffffffffffffff16908060020154908060030180546119b090612905565b80601f01602080910402602001604051908101604052809291908181526020018280546119dc90612905565b8015611a295780601f106119fe57610100808354040283529160200191611a29565b820191906000526020600020905b815481529060010190602001808311611a0c57829003601f168201915b5050505050905084565b60007f01ffc9a7000000000000000000000000000000000000000000000000000000007bffffffffffffffffffffffffffffffffffffffffffffffffffffffff1916827bffffffffffffffffffffffffffffffffffffffffffffffffffffffff1916149050919050565b60008183611aab9190613149565b905092915050565b611ac481611abf611ba7565b611ca6565b50565b611ad18282610c1a565b611ba357600160008084815260200190815260200160002060000160008373ffffffffffffffffffffffffffffffffffffffff1673ffffffffffffffffffffffffffffffffffffffff16815260200190815260200160002060006101000a81548160ff021916908315150217905550611b48611ba7565b73ffffffffffffffffffffffffffffffffffffffff168173ffffffffffffffffffffffffffffffffffffffff16837f2f8788117e7eff1d82e926ec794901d17c78024a50270940304540a733656f0d60405160405180910390a45b5050565b600033905090565b611bb98282610c1a565b15611c8c57600080600084815260200190815260200160002060000160008373ffffffffffffffffffffffffffffffffffffffff1673ffffffffffffffffffffffffffffffffffffffff16815260200190815260200160002060006101000a81548160ff021916908315150217905550611c31611ba7565b73ffffffffffffffffffffffffffffffffffffffff168173ffffffffffffffffffffffffffffffffffffffff16837ff6391f5c32d9c69d2a47ea670b442974b53935d1edc7fd64eb21e047a839171b60405160405180910390a45b5050565b60008183611c9e919061319f565b905092915050565b611cb08282610c1a565b611d3f57611cd58173ffffffffffffffffffffffffffffffffffffffff166014611d43565b611ce38360001c6020611d43565b604051602001611cf492919061326b565b6040516020818303038152906040526040517f08c379a0000000000000000000000000000000000000000000000000000000008152600401611d3691906132a5565b60405180910390fd5b5050565b606060006002836002611d5691906132c7565b611d609190613149565b67ffffffffffffffff811115611d7957611d786125f0565b5b6040519080825280601f01601f191660200182016040528015611dab5781602001600182028036833780820191505090505b5090507f300000000000000000000000000000000000000000000000000000000000000081600081518110611de357611de2613321565b5b60200101907effffffffffffffffffffffffffffffffffffffffffffffffffffffffffffff1916908160001a9053507f780000000000000000000000000000000000000000000000000000000000000081600181518110611e4757611e46613321565b5b60200101907effffffffffffffffffffffffffffffffffffffffffffffffffffffffffffff1916908160001a90535060006001846002611e8791906132c7565b611e919190613149565b90505b6001811115611f31577f3031323334353637383961626364656600000000000000000000000000000000600f861660108110611ed357611ed2613321565b5b1a60f81b828281518110611eea57611ee9613321565b5b60200101907effffffffffffffffffffffffffffffffffffffffffffffffffffffffffffff1916908160001a905350600485901c945080611f2a90613350565b9050611e94565b5060008414611f75576040517f08c379a0000000000000000000000000000000000000000000000000000000008152600401611f6c906133c5565b60405180910390fd5b8091505092915050565b604051806080016040528060008152602001600073ffffffffffffffffffffffffffffffffffffffff16815260200160008152602001606081525090565b6000604051905090565b600080fd5b600080fd5b60007fffffffff0000000000000000000000000000000000000000000000000000000082169050919050565b61200681611fd1565b811461201157600080fd5b50565b60008135905061202381611ffd565b92915050565b60006020828403121561203f5761203e611fc7565b5b600061204d84828501612014565b91505092915050565b60008115159050919050565b61206b81612056565b82525050565b60006020820190506120866000830184612062565b92915050565b6000819050919050565b61209f8161208c565b81146120aa57600080fd5b50565b6000813590506120bc81612096565b92915050565b6000602082840312156120d8576120d7611fc7565b5b60006120e6848285016120ad565b91505092915050565b6000819050919050565b612102816120ef565b82525050565b600060208201905061211d60008301846120f9565b92915050565b61212c8161208c565b82525050565b60006020820190506121476000830184612123565b92915050565b600073ffffffffffffffffffffffffffffffffffffffff82169050919050565b60006121788261214d565b9050919050565b6121888161216d565b811461219357600080fd5b50565b6000813590506121a58161217f565b92915050565b600080604083850312156121c2576121c1611fc7565b5b60006121d0858286016120ad565b92505060206121e185828601612196565b9150509250929050565b6121f4816120ef565b82525050565b6122038161216d565b82525050565b600081519050919050565b600082825260208201905092915050565b60005b83811015612243578082015181840152602081019050612228565b83811115612252576000848401525b50505050565b6000601f19601f8301169050919050565b600061227482612209565b61227e8185612214565b935061228e818560208601612225565b61229781612258565b840191505092915050565b60006080830160008301516122ba60008601826121eb565b5060208301516122cd60208601826121fa565b5060408301516122e060408601826121eb565b50606083015184820360608601526122f88282612269565b9150508091505092915050565b6000602082019050818103600083015261231f81846122a2565b905092915050565b612330816120ef565b811461233b57600080fd5b50565b60008135905061234d81612327565b92915050565b60006020828403121561236957612368611fc7565b5b60006123778482850161233e565b91505092915050565b6123898161216d565b82525050565b600082825260208201905092915050565b60006123ab82612209565b6123b5818561238f565b93506123c5818560208601612225565b6123ce81612258565b840191505092915050565b60006080820190506123ee60008301876120f9565b6123fb6020830186612380565b61240860408301856120f9565b818103606083015261241a81846123a0565b905095945050505050565b600081519050919050565b600082825260208201905092915050565b6000819050602082019050919050565b600060808301600083015161246960008601826121eb565b50602083015161247c60208601826121fa565b50604083015161248f60408601826121eb565b50606083015184820360608601526124a78282612269565b9150508091505092915050565b60006124c08383612451565b905092915050565b6000602082019050919050565b60006124e082612425565b6124ea8185612430565b9350836020820285016124fc85612441565b8060005b85811015612538578484038952815161251985826124b4565b9450612524836124c8565b925060208a01995050600181019050612500565b50829750879550505050505092915050565b6000602082019050818103600083015261256481846124d5565b905092915050565b6000819050919050565b600061259161258c6125878461214d565b61256c565b61214d565b9050919050565b60006125a382612576565b9050919050565b60006125b582612598565b9050919050565b6125c5816125aa565b82525050565b60006020820190506125e060008301846125bc565b92915050565b600080fd5b600080fd5b7f4e487b7100000000000000000000000000000000000000000000000000000000600052604160045260246000fd5b61262882612258565b810181811067ffffffffffffffff82111715612647576126466125f0565b5b80604052505050565b600061265a611fbd565b9050612666828261261f565b919050565b600067ffffffffffffffff821115612686576126856125f0565b5b61268f82612258565b9050602081019050919050565b82818337600083830152505050565b60006126be6126b98461266b565b612650565b9050828152602081018484840111156126da576126d96125eb565b5b6126e584828561269c565b509392505050565b600082601f830112612702576127016125e6565b5b81356127128482602086016126ab565b91505092915050565b60006020828403121561273157612730611fc7565b5b600082013567ffffffffffffffff81111561274f5761274e611fcc565b5b61275b848285016126ed565b91505092915050565b600081519050919050565b600082825260208201905092915050565b6000819050602082019050919050565b6127998161208c565b82525050565b60006127ab8383612790565b60208301905092915050565b6000602082019050919050565b60006127cf82612764565b6127d9818561276f565b93506127e483612780565b8060005b838110156128155781516127fc888261279f565b9750612807836127b7565b9250506001810190506127e8565b5085935050505092915050565b6000602082019050818103600083015261283c81846127c4565b905092915050565b7f416363657373436f6e74726f6c3a2063616e206f6e6c792072656e6f756e636560008201527f20726f6c657320666f722073656c660000000000000000000000000000000000602082015250565b60006128a0602f8361238f565b91506128ab82612844565b604082019050919050565b600060208201905081810360008301526128cf81612893565b9050919050565b7f4e487b7100000000000000000000000000000000000000000000000000000000600052602260045260246000fd5b6000600282049050600182168061291d57607f821691505b6020821081036129305761292f6128d6565b5b50919050565b7f566f74696e67206e6f74206f7665722079657421000000000000000000000000600082015250565b600061296c60148361238f565b915061297782612936565b602082019050919050565b6000602082019050818103600083015261299b8161295f565b9050919050565b6000815490506129b181612905565b9050919050565b60008190508160005260206000209050919050565b60006020601f8301049050919050565b600082821b905092915050565b600060088302612a1a7fffffffffffffffffffffffffffffffffffffffffffffffffffffffffffffffff826129dd565b612a2486836129dd565b95508019841693508086168417925050509392505050565b6000612a57612a52612a4d846120ef565b61256c565b6120ef565b9050919050565b6000819050919050565b612a7183612a3c565b612a85612a7d82612a5e565b8484546129ea565b825550505050565b600090565b612a9a612a8d565b612aa5818484612a68565b505050565b5b81811015612ac957612abe600082612a92565b600181019050612aab565b5050565b601f821115612b0e57612adf816129b8565b612ae8846129cd565b81016020851015612af7578190505b612b0b612b03856129cd565b830182612aaa565b50505b505050565b600082821c905092915050565b6000612b3160001984600802612b13565b1980831691505092915050565b6000612b4a8383612b20565b9150826002028217905092915050565b818103612b68575050612c40565b612b71826129a2565b67ffffffffffffffff811115612b8a57612b896125f0565b5b612b948254612905565b612b9f828285612acd565b6000601f831160018114612bce5760008415612bbc578287015490505b612bc68582612b3e565b865550612c39565b601f198416612bdc876129b8565b9650612be7866129b8565b60005b82811015612c0f57848901548255600182019150600185019450602081019050612bea565b86831015612c2c5784890154612c28601f891682612b20565b8355505b6001600288020188555050505b5050505050505b565b7f566f74696e6720666f7220746869732070726f706f73616c206973206f76657260008201527f2100000000000000000000000000000000000000000000000000000000000000602082015250565b6000612c9e60218361238f565b9150612ca982612c42565b604082019050919050565b60006020820190508181036000830152612ccd81612c91565b9050919050565b6000602082019050612ce96000830184612380565b92915050565b600081519050612cfe81612327565b92915050565b600060208284031215612d1a57612d19611fc7565b5b6000612d2884828501612cef565b91505092915050565b7f42757920736f6d6520766f74696e6720746f6b656e7320666972737421000000600082015250565b6000612d67601d8361238f565b9150612d7282612d31565b602082019050919050565b60006020820190508181036000830152612d9681612d5a565b9050919050565b7f596f757220616c726561647920766f7465642100000000000000000000000000600082015250565b6000612dd360138361238f565b9150612dde82612d9d565b602082019050919050565b60006020820190508181036000830152612e0281612dc6565b9050919050565b6000604082019050612e1e6000830185612380565b612e2b6020830184612123565b9392505050565b7f4d65737361676520746f6f206c6f6e6721000000000000000000000000000000600082015250565b6000612e6860118361238f565b9150612e7382612e32565b602082019050919050565b60006020820190508181036000830152612e9781612e5b565b9050919050565b60008160601b9050919050565b6000612eb682612e9e565b9050919050565b6000612ec882612eab565b9050919050565b612ee0612edb8261216d565b612ebd565b82525050565b600081905092915050565b6000612efc82612209565b612f068185612ee6565b9350612f16818560208601612225565b80840191505092915050565b6000612f2e8285612ecf565b601482019150612f3e8284612ef1565b91508190509392505050565b7f48617320616c7265616479206265656e2070726f706f73656421000000000000600082015250565b6000612f80601a8361238f565b9150612f8b82612f4a565b602082019050919050565b60006020820190508181036000830152612faf81612f73565b9050919050565b612fbf82612209565b67ffffffffffffffff811115612fd857612fd76125f0565b5b612fe28254612905565b612fed828285612acd565b600060209050601f831160018114613020576000841561300e578287015190505b6130188582612b3e565b865550613080565b601f19841661302e866129b8565b60005b8281101561305657848901518255600182019150602085019450602081019050613031565b86831015613073578489015161306f601f891682612b20565b8355505b6001600288020188555050505b505050505050565b7f596f7520646964206e6f7420766f746520666f7220746869732070726f706f7360008201527f616c210000000000000000000000000000000000000000000000000000000000602082015250565b60006130e460238361238f565b91506130ef82613088565b604082019050919050565b60006020820190508181036000830152613113816130d7565b9050919050565b7f4e487b7100000000000000000000000000000000000000000000000000000000600052601160045260246000fd5b6000613154826120ef565b915061315f836120ef565b9250827fffffffffffffffffffffffffffffffffffffffffffffffffffffffffffffffff038211156131945761319361311a565b5b828201905092915050565b60006131aa826120ef565b91506131b5836120ef565b9250828210156131c8576131c761311a565b5b828203905092915050565b7f416363657373436f6e74726f6c3a206163636f756e7420000000000000000000600082015250565b6000613209601783612ee6565b9150613214826131d3565b601782019050919050565b7f206973206d697373696e6720726f6c6520000000000000000000000000000000600082015250565b6000613255601183612ee6565b91506132608261321f565b601182019050919050565b6000613276826131fc565b91506132828285612ef1565b915061328d82613248565b91506132998284612ef1565b91508190509392505050565b600060208201905081810360008301526132bf81846123a0565b905092915050565b60006132d2826120ef565b91506132dd836120ef565b9250817fffffffffffffffffffffffffffffffffffffffffffffffffffffffffffffffff04831182151516156133165761331561311a565b5b828202905092915050565b7f4e487b7100000000000000000000000000000000000000000000000000000000600052603260045260246000fd5b600061335b826120ef565b91506000820361336e5761336d61311a565b5b600182039050919050565b7f537472696e67733a20686578206c656e67746820696e73756666696369656e74600082015250565b60006133af60208361238f565b91506133ba82613379565b602082019050919050565b600060208201905081810360008301526133de816133a2565b905091905056fea26469706673582212209999ed574fdfe9df114f7f2472533f74d0d0a5f70426af431afc3674f83e227e64736f6c634300080f0033",
  "immutableReferences": {},
  "source": "// SPDX-License-Identifier: MIT\npragma solidity ^0.8.4;\n\nimport \"./VotingToken.sol\";\n\n/** \n  *@title Voting contract to suggest features and vote on which should get implemented\n*/\n\ncontract Voting is AccessControl{\n\n    bytes32 public constant ADMIN = keccak256(\"ADMIN\");              //Handles critical operations like setting the votin time\n    bytes32 public constant MAINTAINER = keccak256(\"MAINTAINER\");    //Maintains the proposals and sets them accepted or done\n\n    VotingToken public VotingTokenContract;\n    struct Proposal {\n        uint256 time;\n        address author;\n        uint256 votes;\n        string data;\n    }\n    mapping(bytes32 => Proposal) proposals;\n    Proposal[] public accepted;\n    Proposal[] public done;\n    bytes32[] public proposalUuids;\n    mapping(address => mapping(bytes32 => bool)) voted;\n    uint256 votingTime = 1209600;\n    event Vote(address _address, bytes32 uuid);\n    event Unvote(address _address, bytes32 uuid);\n    event Propose(address _address, bytes32 uuid);\n    event Accepted(bytes32 uuid);\n    event Done(bytes32 uuid);\n    event ChangeVotingTime(uint256 _votingTime);\n\n    constructor(address VotingTokenAddress, address admin, address maintainer) payable {\n      VotingTokenContract = VotingToken(VotingTokenAddress);\n      _setupRole(DEFAULT_ADMIN_ROLE, msg.sender);\n      _setupRole(ADMIN, admin);\n      _setupRole(MAINTAINER, maintainer);\n    }\n\n    function propose(string memory data) public returns (bytes32 uuid) {\n        require(VotingTokenContract.balanceOf(msg.sender) != 0, \"Buy some voting tokens first!\");\n        require(bytes(data).length <= 40, \"Message too long!\");\n        uuid = keccak256(abi.encodePacked(msg.sender, data));\n        require(proposals[uuid].time == 0, \"Has already been proposed!\");\n        Proposal memory proposal = Proposal(block.timestamp, msg.sender, VotingTokenContract.balanceOf(msg.sender), data);\n        proposals[uuid] = proposal;\n        voted[msg.sender][uuid] = true;\n        proposalUuids.push(uuid);\n        emit Propose(msg.sender, uuid);\n        return uuid;\n    }\n\n    function getAllProposals() public view returns (bytes32[] memory) {\n        return proposalUuids;\n    }\n\n    function getProposal(bytes32 uuid) public view returns (Proposal memory proposal) {\n        proposal = proposals[uuid];\n        //require(proposal.time != 0, \"This proposal does not exist!\"); \n        return proposal;\n    }\n\n    function vote(bytes32 uuid) public returns (bool) {\n        require(votingEnd(uuid) > block.timestamp, \"Voting for this proposal is over!\");\n        uint256 tokenBalance = VotingTokenContract.balanceOf(msg.sender);\n        require(tokenBalance != 0, \"Buy some voting tokens first!\");\n        require(voted[msg.sender][uuid] != true, \"Your already voted!\");\n        proposals[uuid].votes = SafeMath.add(proposals[uuid].votes, tokenBalance);\n        voted[msg.sender][uuid] = true;\n        emit Vote(msg.sender, uuid);\n        return true;\n    }\n\n    function unvote(bytes32 uuid) public returns (bool) {\n        require(votingEnd(uuid) < block.timestamp, \"Voting for this proposal is over!\");\n        uint256 tokenBalance = VotingTokenContract.balanceOf(msg.sender);\n        require(tokenBalance != 0, \"Buy some voting tokens first!\");\n        require(voted[msg.sender][uuid] == true, \"You did not vote for this proposal!\");\n        proposals[uuid].votes = SafeMath.sub(proposals[uuid].votes, tokenBalance);\n        voted[msg.sender][uuid] = true;\n        emit Unvote(msg.sender, uuid);\n        return true;\n    }\n\n    function votingEnd(bytes32 uuid) public view returns (uint256) {\n        return SafeMath.add(proposals[uuid].time, votingTime);\n    }\n\n    function changeVotingTime(uint256 _votingTime) public onlyRole(ADMIN) {\n        votingTime = _votingTime;\n        emit ChangeVotingTime(_votingTime);\n    }\n    \n    function setAccepted(bytes32 uuid) public onlyRole(MAINTAINER) {\n        require(votingEnd(uuid) > block.timestamp, \"Voting not over yet!\");\n        accepted.push(proposals[uuid]);\n        emit Accepted(uuid);\n    }\n\n    function getAccepted() public view returns (Proposal[] memory) {\n        return accepted;\n    }\n\n    function setDone(bytes32 uuid) public onlyRole(MAINTAINER) {\n        require(votingEnd(uuid) > block.timestamp, \"Voting not over yet!\");\n        done.push(proposals[uuid]);\n        emit Done(uuid);\n    }\n\n    function getDone() public view returns (Proposal[] memory) {\n        return done;\n    }\n}",
  "sourcePath": "/home/fabian/Documents/02_Uni/TU-Wien/Smart_Contracts/FinalProject/e12140504/contracts/Voting.sol",
  "compiler": {
    "name": "solc",
    "version": "0.8.15+commit.e14f2714.Emscripten.clang"
  },
  "schemaVersion": "3.4.7",
  "updatedAt": "2022-06-23T13:04:35.200Z",
  "networkType": "ethereum",
  "devdoc": {
    "kind": "dev",
    "methods": {
      "getRoleAdmin(bytes32)": {
        "details": "Returns the admin role that controls `role`. See {grantRole} and {revokeRole}. To change a role's admin, use {_setRoleAdmin}."
      },
      "grantRole(bytes32,address)": {
        "details": "Grants `role` to `account`. If `account` had not been already granted `role`, emits a {RoleGranted} event. Requirements: - the caller must have ``role``'s admin role."
      },
      "hasRole(bytes32,address)": {
        "details": "Returns `true` if `account` has been granted `role`."
      },
      "renounceRole(bytes32,address)": {
        "details": "Revokes `role` from the calling account. Roles are often managed via {grantRole} and {revokeRole}: this function's purpose is to provide a mechanism for accounts to lose their privileges if they are compromised (such as when a trusted device is misplaced). If the calling account had been revoked `role`, emits a {RoleRevoked} event. Requirements: - the caller must be `account`."
      },
      "revokeRole(bytes32,address)": {
        "details": "Revokes `role` from `account`. If `account` had been granted `role`, emits a {RoleRevoked} event. Requirements: - the caller must have ``role``'s admin role."
      },
      "supportsInterface(bytes4)": {
        "details": "See {IERC165-supportsInterface}."
      }
    },
    "title": "Voting contract to suggest features and vote on which should get implemented",
    "version": 1
  },
  "userdoc": {
    "kind": "user",
    "methods": {},
    "version": 1
  }
}